:020000040800F2
:10000000005000208D6C01082D6D0108BD510108C4
:100010002D6D01082D6D01082D6D010800000000F7
:100020000000000000000000000000002D6D01082D
:100030002D6D0108000000002D6D01084BF3000834
:100040002D6D01082D6D01082D6D01082D6D010824
:100050002D6D01082D6D010845330108433301085A
:100060002D6D01082D6D01082D6D01082D6D010804
:10007000D9F20008C9F2000891BB00082D6D0108F3
:10008000B9F20008A9F200082D6D01082D6D0108D4
:100090002D6D01082D6D01082D6D010841330108FA
:1000A0002D6D010869B900082D6D010879B90008A6
:1000B0005DB900086D8300085D830008757600084F
:1000C000797600086D760008717600082D6D0108BC
:1000D0002D6D010889BB000881BB000879BB0008B1
:1000E00059F300082D6D01082D6D01080000000076
:1000F0000000000000000000000000000000000000
:0C01000000000000000000005FF808F1A3
:100110002DE9F04FAE4B93B01F789946002F6BD06E
:10012000AC4B1868002801F0AC870FF0B1F8AA4C6E
:1001300020680FF04DFA002801F0A38720680FF027
:1001400044FA0928A54C01D03F2849D14FF00008B6
:1001500046462768A24D2FB1A24829683A4618F0B2
:10016000A5FE10B9A84606B92E469F4B10359D42F4
:10017000F1D3C6B1D6F800E0D8F800C023681EF865
:1001800003501CF80300A8420DD15A1C954938B9F8
:100190002D2B05D8914D2A602025CD54885402E09E
:1001A000CD542260EAE723680BB146450FD08F4853
:1001B00012F032FD464507D856F8100B12F02CFD10
:1001C000092008F035FDF5E70DF0E2FD0027236872
:1001D0009F42ACD2834BD85D08F02AFD0137F6E789
:1001E0002368002B41F0D286042841F023877D4804
:1001F00012F09EFE01F045BF7D4E751E06F101080E
:1002000055F8093C002B01F0618655F8090C0FF0F8
:10021000DFF9002801F03D8655F8090C0FF0D5F9FB
:1002200015F8053C0446013B042B04D8DFE803F035
:10023000070C111B1F0024283BD1012336E04D2859
:1002400014BF0023022331E03C2814BF0023032302
:100250002CE040284FF000039EBF05F8043C05F851
:10026000030C042322E005F8020C05231EE015F818
:10027000042C15F8033C9A4209D2531C5D4905F839
:10028000043C482303FB07131A44107242E015F89C
:10029000022C691E5A4013F1FF3303D311F8010BEE
:1002A0004240F8E794420CBF0623002305F8053CC2
:1002B00030E0DFF870A19AF8003013F0040229D181
:1002C000232C55F8091C1AD1012389F80030424B20
:1002D00049481960494B5A7310221A733D4A5860B5
:1002E0001960996046480433136012F095FC0DF0D4
:1002F0004FFD9AF8003043F002038AF80030414B7A
:100300001B78A34201BF404A404B1A60404A04BFD9
:10031000404BDA6015F8053C062B7FF476AF15F8F4
:1003200003EC482303FB07E33B4A05F1FF3A03EBE9
:10033000020E15F8023C394A1FFA83FB4FF0000CFD
:1003400006AC572BCDF80CA007CACDF810E084E816
:100350000700ADF814B0ADF816C0ADF820B0CAEB88
:100360000E0A00F06A8500F29980372B00F0BD84F8
:100370005CD82D2B00F0198414D8252B00F0F683BF
:1003800004D8232B00F0688100F06BBD292B00F00E
:10039000F8832B2B40F06585039515F8012C204B35
:1003A00001F0B2BC312B00F0008508D82F2B40F0B3
:1003B0005885DFF874A00024D34600F0D7BC332B57
:1003C00000F04984352B00F07D8100F04ABD00BF6C
:1003D000D43A0020F415002040340020A03400203E
:1003E00000BE010870340020F0BF0108E0C301081E
:1003F0006A150020601500209DF60008B00300205B
:1004000010C401080E2C0020EFBEADDEF04F00201E
:100410000400FA0500ED00E0681500203CA001088A
:100420005C340020D33A0020381F0020432B00F01A
:1004300024841DD83C2B00F0EC8011D8392B40F0DF
:100440001085B64B15F8012C1A7016F8012C1A718C
:100450006A78DA70EA1C0392AA785A7101F0C9BC72
:100460003E2B00F0C580412B40F0FB840023F9E3D4
:100470004A2B00F0C78009D8442B00F0ED84482BAC
:1004800040F0EF8407F042FF01F0B3BC4E2B00F0C8
:10049000BB83512B00F0AD8200F0E3BCD22B5CD0CB
:1004A00020D8CD2B00F084820FD8C92B00F0B68263
:1004B00003D8C82B64D000F0D4BCCA2B00F0B380A2
:1004C000CC2B00F0498100F0CCBCCF2B00F08D810B
:1004D000C0F07982D02B00F06382D12B00F0D08263
:1004E00000F0BFBCDA2B00F03F8218D8D42B00F00C
:1004F000DB813ED3D62B00F0CB81D92B40F0B184E9
:1005000003A80CF0D1FC864C208003A80CF0CCFC96
:10051000608003A80CF0C8FCA08001F06ABCEF2B3F
:1005200057D012D8DB2B00F03682DC2B40F09984B8
:100530007C4B15F8012CCDF80C801A7016F8012CA4
:100540005A706A789A7001F054BCF22B00F0ED8179
:10055000FA2B00F0438200F084BC734B1B785907E0
:1005600001F1478415F8010C03950AF0BBFB01F07B
:1005700040BC03A80CF098FC6C4B188001F039BC0F
:10058000CAF3470ABAF1120F01F235840024544528
:1005900007D203A80CF088FC09AB23F8140001343F
:1005A000F5E752460023534507DA09A931F813004D
:1005B0005F4921F813000133F5E7122A05D05C4B9F
:1005C000002123F812100132F7E70124594B00F003
:1005D00045BC594C03A8D4F800A00CF065FCAAF85F
:1005E000020003A824680CF05FFC208001F001BC2D
:1005F000524B15F8012C03969A7016F8012C5A707C
:1006000001F0F7BB03A80CF04FFC4D4B188401F030
:10061000F0BB4C4B15F8010C1B680395987712F052
:1006200097F901F0E6BB474B1A68531E02F1090126
:10063000039A501C0390104610F8024B03F8014F28
:10064000039050788B42987202F1030003909278E5
:100650001A75EDD101F0CDBB15F8011C03951329D6
:1006600001F3C983384C16F801EC20680396002387
:10067000364A02EBC30292F805C0F4451DD1127947
:1006800000EB810300F82120039A511C039112789A
:100690005A70039A511C039112789A70039A511C54
:1006A000039112780021DA7020680EF0CBFD284B00
:1006B00080F00100187001F09CBB01331C2BD7D1D6
:1006C00001F099BB15F8012C03950B2A01F39383D4
:1006D00016F8010C1F4B04281968039601F38B834D
:1006E00006235A438B1858716878CDF80C808854CB
:1006F000039A511C039112785A70039A511C03916A
:1007000012789A70039A511C03911278DA70039A46
:10071000511C039112781A7101F06BBB98140020E0
:1007200010260020A4170020D33A0020FE0E00203F
:100730009C130020BD36002010160020B10E0020B2
:10074000B003002080270020F42200201CA4010810
:1007500006000020F81F0020BAF1090F41F34B8377
:10076000DFF8F8B315F8013CDBF80040039523707F
:10077000039B04F1030E5A1C03921B780022637042
:10078000039B022A03F10101039118780CBF4FF07B
:10079000FF0C4FF0640C604528BF60460132032A0D
:1007A0000EF8010FECD19A1C03925A780333642A95
:1007B00028BF64220393E2714B7812A8A370039BB5
:1007C0005A1C40F83C2D1B78E3700CF06DFBBAF11D
:1007D0000A0F608101F00D83039BDBF80020591C98
:1007E00003911B78137201F004BB03A80CF05CFBAF
:1007F0006FF4AF628318DFF868A3C62B98BFAAF81E
:10080000100003A80CF050FBC14C208003A80CF092
:100810004BFB608003A80CF047FBA08003A80CF002
:1008200043FBBC4BBC495880039BBC4C5A1C0392F5
:100830001A4612F8030B03929A7808704A701A1D30
:100840000392DA780633E27213F8022C0393B44B66
:1008500003A88AF80B20D3F82CA00CF025FB039BEF
:1008600000EB80005A1C4000AAF8000003921A46D0
:1008700012F8021B03925A7821702271DA1C03923B
:100880009A78E2701A1D0392DB78637101F0B1BAB5
:10089000002403A80CF008FBA24B23F81400013439
:1008A000082CF6D101F0A5BABAF10F0F41F0A382DE
:1008B00015F8014C0395072C01F29D82DFF8A4A2E4
:1008C00003A8DAF800B00CF0EFFA0E235C432BF823
:1008D000040003A8DAF800B00CF0E6FAA344ABF881
:1008E000020003A8DAF800B00CF0DEFA039BDAF895
:1008F0000020A34414441A46591CABF80400039189
:1009000012F8021B03A80392A1715A78E271DA1C53
:1009100003929A7822721A1D0392DB7863720CF0AC
:10092000ADFAC4F80A0001F064BA15F8013C039569
:100930000F2B01F360827C4916F8010CC3EBC30254
:100940008B1888546A785A70AA789A70EA78DA70A4
:100950002A791A716A795A71EA1D0392AA799A71F1
:100960000EF09DFE01F045BA704B03951C6815F81A
:10097000013C12A82370039B5A1C03921B786370DE
:10098000039B5A1C40F83C2D1B78A3700CF08CFA8A
:10099000E08001F02EBA66480CF019FF01F029BA88
:1009A000644B1B785B0701F124820AF0B3F91AE06B
:1009B000604B1B785C0701F11C825F4B4FF4C872DF
:1009C0001A8001F016BA5B4B1B78580701F11182AF
:1009D0005A4A137843F0040300F015BF554B1B78B7
:1009E000590701F1088209F003FF09F0F7FF01F050
:1009F00000BA4B4B93F83020012A01F2FC8115F824
:100A0000012CCDF80C8083F8332016F8012C83F8E4
:100A100031206A7883F8322001F0EBB915F8012C07
:100A2000464B1AB11A7842F0020202E01A7822F01C
:100A3000020212AC44F83C6D1A7016F8012C404BBF
:100A400020461A700CF01AFADFF81CA1CAF8000050
:100A500020460CF013FACAF8040020460CF024FAE1
:100A6000384B188020460CF01FFA374B2C4A188060
:100A700092F8343043F0020382F8343001F0B9B90F
:100A800012AC15F8011C44F83C5D204601910CF0B5
:100A9000F5F9009020460CF0F1F9834620460CF061
:100AA000EDF9824620460CF0FFF920460CF0FCF9E7
:100AB000039B019901330393009A99B9234B1020AA
:100AC00083E8040809F04AFE1C4A137843F0010346
:100AD0001370BAF1000F01F08C811D4BC3F800A018
:100AE00001F087B9102941F084811A4B83E804088A
:100AF000BAF1000F02D0164BC3F800A01548164BF0
:100B00000222011D1A7007F021F901F072B900BF2D
:100B100046240020A1390020EC2700209814002052
:100B2000B00300202634002064350020C00F0020D0
:100B300000E60108D33A0020C60E00208C320020C7
:100B4000F80F0020F60F0020F40F0020B010002056
:100B50007C270020080F0020020F0020FC3300201B
:100B6000E82B0020081F0020FC0F0020CA4C03A81F
:100B7000C4F800C00CF082F923681843206001F02B
:100B800038B903A80CF090F9C44CE08003A80CF02D
:100B90008BF9039B20815A1C03921B7803A8A37234
:100BA0000CF082F9A08101F024B912ACDFF8F4A2B4
:100BB00015F8013C44F83C5D20468AF808300CF0FA
:100BC00073F9AAF8140020460CF06EF9AAF8100088
:100BD00020460CF069F9039BAAF812005A1C0392F4
:100BE0001B788AF80A30049B9B1A012B41F3018180
:100BF00020460CF059F9AAF8160020460CF054F9DA
:100C0000AAF8180001F0F5B815F801AC0395BAF18F
:100C1000110F01F3F08016F8013CA14C12A804F862
:100C20001A3040F83C6D0CF03FF940F2ED23984249
:100C300005DD40F6CA039842A8BF184601E040F21D
:100C4000EE20A0F2EE20192390FBF3F004EB4A040F
:100C5000607001F0CEB815F8012C924B0395DA7252
:100C600001F0C7B8039A511C039111788D4A995429
:100C70000133082BF6D101F0BCB812AC44F83C5D4E
:100C8000DFF814A215F8012C874B2046CAF800C0E3
:100C90001A700CF0F3F8DAF800301843039BCAF826
:100CA00000005A1C03921A787E4B20461A720CF0F0
:100CB000FBF8DFF80CA2AAF8350020460CF0F4F897
:100CC000AAF8370020460CF0EFF8AAF839002046C1
:100CD0000CF0EAF8DFF8C4A1AAF8060020460CF0F0
:100CE000E3F8AAF8080001F084B807239AFBF3F3AD
:100CF000C3EBC3039A4541F07E80039A049B9B1A81
:100D0000062B41F37680531C039312780023674C23
:100D100004EBC304A1788A4217D1A27003A80CF097
:100D2000C3F8039BA0805A1C03921A4612F8021BB8
:100D30000392A1715A78E271DA1C03929A78627276
:100D40001A1D0392DB782372D7E70133052BDED11E
:100D500001F051B82BF824000134102C8AF802104D
:100D60008AF803300AF1040A01F04380039A049BD5
:100D70009B1A032B41F33D8003A80CF095F8039BCD
:100D8000B0F5B47F03F1010203921A4612F8021B78
:100D900003925B784FEA8402DCDB00230BEB020159
:100DA0002BF802304B8001F026B8BAF1080F0395FA
:100DB00015F801BC41F01F80BBF11F0F01F31B8030
:100DC00003A80CF071F8044603A80CF06DF8039B1F
:100DD000DFF8F0E0194604F03F0444EA80145A1C9E
:100DE0000EEB8B000392448011F8024B03915A786A
:100DF00002F00F0242EA04120EF82B20DA1C0392D2
:100E00009B7843700FF02EFC00F0F3BF19465A1C7C
:100E1000039211F8022BD81C0391597803909B7808
:100E20000F2B00F2E887052A0ED8052900F2E38788
:100E3000062000FB02121E495354039BC3EB0E0213
:100E4000022AE3DC00F0D5BF062A40F0D487072948
:100E500000F2D187174AEFE7174B01241C7000F00E
:100E6000CCBF562B00F0618600F2C280362B00F01A
:100E7000078666D8242B00F06B852FD8032B00F053
:100E8000B68121D8012B00F0A381022B40F090877E
:100E900020460A490422E9E36C340020981400201B
:100EA000EC140020E82B00205C3400200E2C0020E5
:100EB0000C1F0020301F0020D039002048C401083A
:100EC000B0030020781F0020052B00F0A681C0F0A1
:100ED0009A81222B40F06C870024CEE32E2B00F069
:100EE000E3851FD82A2B00F049852C2B00F049857B
:100EF000282B40F05D87DFF8B4A32046BAF806102F
:100F00000BF0FBFF2046BAF808100BF0F6FF069B2B
:100F10009AF80A20591C06911A702046BAF80C104B
:100F200000F0E0BE322B00F07085342B00F0C88357
:100F3000302B40F03D87DFF878A30AF1800B00F0FA
:100F4000CFBD452B00F09A861FD83B2B00F0918334
:100F500009D8382B00F000853A2B40F0298720462D
:100F6000BF4B00F0F7BC402B00F05285422B00F045
:100F70005A853D2B40F01C87BA4B069A9978501C35
:100F8000069011705A7800F0BCBE4D2B00F01F8502
:100F90000CD8472B00F03586C0F01A86492B40F05C
:100FA0000787B14B2046198C00F09CBE502B00F0F7
:100FB0004B86522B00F05D864F2B40F0F986069B46
:100FC0004FF0000A5A1C069283F800A0069B2046A8
:100FD0005A1C069283F800A0069B51465A1C0692A2
:100FE00083F800A00BF075FF2046514600F051BE7B
:100FF000732B00F0C68300F290806A2B00F0CA8346
:1010000011D8662B00F0AA8104D8642B00F013815C
:10101000652BA7E0682B00F0488200F2558220463D
:101020009249102222E36E2B00F070820DD86C2BB7
:1010300000F05A8240F2D5838D4B204619680BF0A0
:1010400048FF20468B4B00F074BC702B00F0F182FF
:10105000C0F0B482722B40F0AB86DFF858B2DFF8F4
:1010600058A22046BBF810100BF047FFBAF800104A
:1010700020460BF042FFBAF8021020460BF03DFF6D
:10108000BAF8041020460BF038FF7B4B20465988F5
:101090000BF033FF794B069A1978501C06901170AB
:1010A0000699DFF808A24A1C069200220A705978B5
:1010B000069B581C06901970069B9AF80B10581C3A
:1010C00006901970069B9BF80B10581C069019701F
:1010D000069B2046591C06911A70634B0A21DB6A55
:1010E000B3F9003093FBF1F189B20BF006FF069BD8
:1010F0009AF80020591C06911A70069B9AF8042051
:10110000591C06911A70069B9AF80320591C0691E7
:101110001A709AF8052000F0F4BD7E2B00F0E585EA
:1011200015D8772B00F01A8307D8752B00F09B8217
:1011300000F26B834FF0000AF5E27C2B00F0AC85E7
:1011400000F2BA85782B40F0338600223BE1F02B89
:1011500000F0E4832FD8A02B00F0ED83A42B00F047
:101160009F83962B40F02486454B204619880BF030
:10117000C4FE444B2046198889B20BF0BEFE424B98
:1011800020461B68C3F3C001C3F38002890041EA13
:101190004201C3F340021143C3F3401241EAC201CA
:1011A00003F0100319430BF0A8FE384B0021B3F8ED
:1011B00000E00B4682E0F52B00F0A885FE2B00F046
:1011C0009F83F12B40F0F485314B03F1700143E133
:1011D000069A511C069100211170069A511C069125
:1011E0001370069B5A1C0692132200F08DBD069BBD
:1011F0005A1C069201221A70069B9A1806920D221A
:101200001A7000F036BD2046224904220BF057FE2A
:10121000214B2046197800F065BD20461F490B225E
:101220000BF04DFE20461E4908220BF048FE2046DA
:101230001C4907221AE2069B20465A1C0692E72206
:101240001A70194B1A78069B591C06911A70069B46
:1012500004215A1C069200221A7000F01ABD00BF29
:1012600050270020B10E0020B0030020F003002022
:10127000A8100020D40F0020A1390020EC27002066
:10128000C8390020FC1500208C1700206432002093
:10129000653500204DC40108D13A002052C4010830
:1012A0005EC4010867C401085C3400209814002063
:1012B000791F0020E82B002046240020AA4AD0569F
:1012C000421C0BD04FF2FF721A41D20706D54EFADC
:1012D00003F2D20742BF01228240114301330C2B9B
:1012E000ECD1A24B0022D3F800E00123A0489340A8
:1012F000184018B113EA0E0F18BF19430132202A03
:10130000F3D19C4B8E461B7858079B4B48BF41F04E
:10131000010ED3F83CA0002319461846012202FA18
:1013200003FC1CEA0A0F05D01CEA0E0F1CBF82400A
:101330001143013001331C2BF0D120460BF0C9FDC5
:101340008E4B1A78069B591C06911A70BDF9143001
:10135000962B40F04E852046894BEAE2894B4FF0B0
:10136000000A1B89B3F5806F8CBF4FF0030B4FF061
:10137000000B854B204633F91A100AF1010A41FA95
:101380000BF189B20BF0B9FDBAF1030FF1D14FF0B7
:10139000000A7E4B204633F82A100AF1010A0BF0AE
:1013A000ACFDBAF1030FF4D14FF0000A784B2046A0
:1013B00033F82A100AF1010A0BF09FFDBAF1030F6E
:1013C000F4D100F016BD0E2303FB02FADFF8E4B1FE
:1013D0000092DBF80010204631F80A100BF08DFD6A
:1013E000DBF800302046534459880BF086FDDBF8CB
:1013F00000302046534499880BF07FFDDBF8003025
:1014000053449979069B581C06901970DBF80030FC
:101410005344D979069B581C06901970DBF80030AC
:101420005344197A069B581C06901970DBF800305B
:101430005344597A069B581C06901970DBF800300B
:1014400020465344D3F80A100BF043FD009A0132B2
:10145000082AB8D100F0CDBC069A13F8010C541C30
:1014600006941070069A1878541C06941070069A08
:101470005878541C06941070069A9878541C069458
:101480001070069AD878541C06941070069A187931
:10149000541C06941070069A58790733541C8B42DA
:1014A00006941070D8D100F0A4BC4FF0000A394B5C
:1014B000204633F81A100AF1010A0BF01EFDBAF1AA
:1014C000080FF4D100F095BC4FF0000A324B1B78A6
:1014D0009A4580F28E84314B204633F81A100BF077
:1014E0000CFD0AF1010AF1E7DFF8CCA02046BAF8BA
:1014F00000100BF002FDBAF8021020460BF0FDFCC4
:10150000BAF904300A2193FBF1F129E04FF6FF7A92
:10151000234B069A1B88511CFF2BA8BFFF23069163
:101520001370204B204619685145A8BF514621EA47
:10153000E17189B20BF0E1FC1B4B204619880BF0DE
:10154000DCFC1A4BDA7A1A4B19683AB10A23594370
:101550005145A8BF514621EAE17101E001F30F01B5
:10156000204689B2BEE300BF48A0010888320020AF
:10157000C0F11F0AD33A0020B00300202434002019
:10158000F8150020C8160020CE0F00207C32002065
:10159000A027002024250020082C002074290020EA
:1015A000AC140020A8140020AC10002098140020D7
:1015B000F00F0020081F00209C320020A74B1A6863
:1015C0001178069A501C069011701A685178069A84
:1015D000501C0690117000221968DFF880A2114497
:1015E00008790699013201F1010E032ACDF818E0BD
:1015F0000870F1D1DAF800302046DA79069B591CE0
:1016000006911A70DAF800309A78069B591C0691F8
:101610001A70DAF80030DA78069B591C06911A70B5
:10162000DAF8003059890BF068FCDAF800301A7AE1
:1016300067E300238A4A1168C85C06994C1C06942B
:10164000087011681944887A06994C1C0694087031
:1016500012681A44117D069A0133501C0A2B069019
:101660001170E7D1C5E320467E492F220BF027FCFD
:10167000BFE37B4B1B689A7F43E37B4B1B6813F8EC
:10168000240003EB840A07F01BFA069B4279591CDD
:1016900006911A70069B9AF80120591C06911A703F
:1016A000069B9AF80220591C06911A70069B9AF81C
:1016B00003200134591C142C06911A70DDD198E3D3
:1016C000002106224A43694B069C186804F1010C6C
:1016D000831893F805E0CDF818C084F800E0805C2A
:1016E000069A0131541C06941070069A5878541CBE
:1016F00006941070069A9878541C06941070069AF6
:10170000D878541C069410701A79069B0C2903F1A2
:10171000010006901A70D4D16BE30AF1010ABAF104
:101720001C0F00F06683524A0123D26B03FA0AF3BE
:101730001342F2D05FFA8AF007F0C2F9D0F800B095
:10174000584617F0AAFB5946024620460BF0B7FB55
:10175000069B5A1C06923B221A70DEE70024444A7C
:101760000123D26BA340134207D0E0B207F0A8F9DF
:10177000069B4279591C06911A7001341C2CEED13B
:1017800037E30123069A511C069113700133092B8C
:10179000F8D12EE3374B069A1B78511C03F0020355
:1017A00006911370344BDFF8F4A01A78069B20469C
:1017B000591C06911A70DAF800100BF08AFB2046CB
:1017C000DAF804100BF085FB2C4B204619880BF03F
:1017D00094FB2B4B204619880BF08FFB2046294B9E
:1017E000A7E0294B204619880BF087FB274B2046A2
:1017F00019880BF082FB1E4B069A93F83430511C6B
:1018000003F0010306911370F3E215F8013C039510
:101810000BB91F4A02E0102B03D11E4A92E80204C2
:1018200002E04FF0000A5146069A501C06901370D1
:1018300020460BF04EFB204651460BF04AFB164B60
:10184000204619680BF045FB204600210BF055FBA4
:10185000204600210BF051FB0BE200BFFC330020BF
:101860008027002054A00108F4220020F81F002047
:10187000B00300208C320020F80F0020F60F00206B
:10188000F40F0020C01000206A1000206C1000200F
:10189000B0100020080F00207C270020FC0F002043
:1018A000069BB94A581C0690104692F850101970C1
:1018B000002390F85020934280F29B82B34A06990D
:1018C0009C5C01F1010ECDF818E00C7002F11001E2
:1018D0005C5C069901F1010ECDF818E00C7002F184
:1018E00020015C5C0699303201F1010ECDF818E060
:1018F0000C70995C069A0133541C06941170D8E759
:101900004FF0000AA24B204633F81A100AF1010AE0
:101910000BF0F3FABAF1040FF4D16AE2DFF8A8A2EF
:101920002046DAF8003059880BF0E7FA2046DAF85A
:1019300000301988D6E1974B204619680BF0C9FA98
:10194000954B204619680BF0C4FA2046934B01E0F2
:101950002046934B19689CE1924B069A1978501CCB
:1019600006901170069A1979501C06901170069A0B
:10197000D978501C069011705A79C2E18A4B1A78B6
:10198000BFE1DFF830A2069B9AF80820591C0691A7
:101990001A702046BAF814100BF0AFFA2046BAF8C5
:1019A00010100BF0AAFA2046BAF812100BF0A5FAA4
:1019B000069B9AF80A20591C06911A702046BAF81C
:1019C00016100BF09AFA2046BAF818108AE14FF078
:1019D000000A764B1B789A4580F20B82744B13F801
:1019E0001A1003EB4A02069B0AF1010A581C0690E2
:1019F00019705178204601EB810101EB810101F260
:101A0000EE2189B20BF079FAE3E76A4BDA7A78E1F2
:101A10000023684A995C069A0133501C082B0690F3
:101A20001170F6D1E5E1604B20461A78069BDFF88D
:101A300058A1591C06911A70594B19680BF049FAB4
:101A40005C4B20461A7A069B591C06911A70BAF80C
:101A500035100BF052FABAF8371020460BF04DFA59
:101A6000BAF83910DFF83CA120460BF046FA2046C0
:101A7000BAF806100BF041FA2046BAF8081031E126
:101A8000DFF848A10AF1280B9AF8022000234A49FE
:101A9000C95C8A4200F046820C333C2BF7D10AF134
:101AA000080ADA45F0D1A4E14FF0000A434B204682
:101AB00033F80A100AEB030B0BF01FFA069B9BF896
:101AC0000220591C06911A70069B9BF803200AF10C
:101AD000040A591CBAF1400F06911A70E6D188E148
:101AE000BAF80110204601F03F010BF006FABAF8EF
:101AF0000110204689090BF000FA069A1AF8013CF9
:101B0000511C1B0906911370069A1AF8013C511CCE
:101B100003F00F0306911370069B1AF8042B591C4F
:101B2000DA4506911A70DBD163E10022244B0620CE
:101B300000FB0230002306994C1C06940A7006999B
:101B40004C1C06940B700699C45C013301F1010E24
:101B5000062BCDF818E00C70EDD10132062AE5D144
:101B60000023069A511C069106211170069A511CF9
:101B700006911370134A995C069A0133501C082B86
:101B800006901170EDD134E1B00300200104002073
:101B900042040020E8F7FF1FECF7FF1FF0F7FF1FDC
:101BA0006C340020981400205C340020082C0020A5
:101BB000EC140020E82B0020382C0020381F0020D7
:101BC0000C1F0020301F0020101600200E2C0020BB
:101BD00011F0CCFD069B40F002005A1CDFF804A374
:101BE00006921870BAF8001020460BF072F9DAF875
:101BF0000C1020460BF06DF906F080FA01462046E5
:101C000047E003A80BF03AF98246204651460BF014
:101C100060F9DDF818B0079CB24BCBEB0404802CC4
:101C2000DB68A8BF80240AEB04029A4288BFCAEB93
:101C3000030406F01DFB50465946224611F0CAFD2A
:101C4000069B18440690D4E0069B5A1C069201227B
:101C50001A70A54B069A93F83310501C0690117019
:101C6000069A93F83110501C0690117093F83220A8
:101C700047E0069B5A1C0692002245E020469B49FD
:101C80000B220BF01CF9204600210BF022F9204614
:101C900000210BF01EF9ACE0DFF884A22046BAF870
:101CA00000100BF02AF92046BAF802100BF025F9C3
:101CB0002046BAF8041015E08D4B1A681178069A80
:101CC000501C069011701A685178069A501C0690A4
:101CD00011701A689178069A501C0690204611706F
:101CE0001B68D9880BF009F983E0824B069A1978B2
:101CF000501C06901170069A5978501C069011706D
:101D00009A78069B591C06911A7072E07A48002155
:101D1000C02217F07EF84FF0000EF346774C724A5F
:101D200092F89E309E4537DA637AD90730D5227A09
:101D3000734B33F91230002B2ADDE0686E4B4FEA0B
:101D40000B124168B0F808C003EB020AAAF806C0FB
:101D500099504FF0000A012000FA0AF010EA0C0036
:101D600001D0504604E00AF1010ABAF1100FF2D195
:101D7000134498800220D8724820A3F808C09872B3
:101D800003F108029B680BF1010B53601023937160
:101D90000EF1010E0834C2E75A4B5FFA8BF119704D
:101DA000069B581C06901970012382F8143120E01C
:101DB000194655480BF014FD0146002800F0D48068
:101DC0004A880698514B079C93F800E0241AC2F306
:101DD0000B039C42A8BF1C464968120448BF0EFB77
:101DE0000311224617F0B2F8002C06DB069B1C44B8
:101DF0000694012401E04FF0FF34ADF82240002C9E
:101E000044D0069B55F8090C0793414B06930DF0FF
:101E100074FB069B079C55F8090CE41A24238DF8E3
:101E200024304D238DF82530BDF9223009A9002B2F
:101E3000B4BF21233E238DF82630BDF82030052283
:101E40008DF828308DF827400DF00AFC9DF828A069
:101E50009DF82730002C8AEA030A0EDD224655F849
:101E6000090C06990DF0FCFB069B1C44A34204D010
:101E700013F8012B8AEA020AF8E755F8090C5146D3
:101E80000DF0CCFB55F8090C0DF032FB002305F8E2
:101E9000053C154B93F8142152B1002255F8090C5A
:101EA00083F814210DF083FB55F8090C12F030F97A
:101EB000184B1B7853B155F8090C0DF078FB0DF059
:101EC00089FC08F06BFC144A144BDA60012F06F110
:101ED000480605F1480508F1480800F0D2800127BE
:101EE000FEF78EB91C000020B003002052C4010888
:101EF000C00F0020A4170020282200204C0400203E
:101F000024250020E4360020B58500082434002074
:101F1000D1390020D03900200400FA0500ED00E09E
:101F200010260020069B2046591C06911A70BAF80C
:101F300004100AF0E2FF069B9AF80620591C06914D
:101F40001A70069B9AF80720591C06911A70069B76
:101F50009AF80920591C06911A70069B9AF80820D5
:101F6000591C06911A709AE54748BDF914100BF0F8
:101F700037FC00283FF43FAF444B03991B7852468F
:101F80000BF004FC039B5344039332E70C2803D16A
:101F90003F4810F041FE49E00A2801D00D2864D1E5
:101FA0003C4D3D4810F038FE2846232116F067FFCF
:101FB00008B1401B206023687BB35A1EA95C20290E
:101FC00001D11346F8E7334A00212360D154334B43
:101FD000334DD3F80080D5F800A02E4F504616F0B0
:101FE0005CFF064651463246384616F05FFF2D4AE2
:101FF00020B9BB5D43445B78580703D01035954248
:10200000E9D306E0954204D2701CEB683844984747
:1020100002E0254810F000FE00231E480021302277
:10202000236016F0F6FE99F8003053B30BF0B0FEC3
:10203000FEF77DB80C28ABD07F2804D1FEF777B827
:102040002F2B3EF674A8A0F12002D2B25E2A3EF6F3
:102050006EA813B920283EF46AA85A1C22600D4AC3
:10206000D05406F0E5FDFEF762B87F28E8D1094AB2
:10207000013B00210D482360D15410F0CDFDFEF747
:1020800056B813B0BDE8F08FD9850008243400207D
:10209000E5C3010870340020E6C8010840030020B1
:1020A00000BE0108F0BF0108F0C301080CC401081C
:1020B0002DE9F04FA24C97B02368A24F5D6AA24B66
:1020C0009B783BBB2368A14ED3F82490A04B1FFA0A
:1020D00089F51D80284614F011F89E49834614F0B6
:1020E00065F89D4B804618600021706814F0F2F985
:1020F000A0B19A4B736011E098470028E2D10DF02F
:10210000F3F8974B1B68EB1A1844964B1B68643323
:102110009842D7D2FB68002BEED1F0E740467168B9
:1021200013F03CFF0146404614F0F4F8D6F800A046
:1021300080465146584613F02FFF0146404614F0A2
:1021400035F80146504613F029FF306014F01AFAB2
:102150007E4C80B2844B2D1AB081A3F800905D8034
:1021600004F10E007B68984748B9804B804D1A688F
:10217000049312F0020F40F0098100F001BE7D4D82
:10218000B4F90E3028462B60B4F9103029466B6044
:10219000B4F91230AB60784B1A7808F0B9F9774B84
:1021A0005A88984672B9764F3B88002B00F0A7807A
:1021B00098F80030DFF8D081049308F10C044FF058
:1021C000000961E0277D183477B9B8F8020013F0F0
:1021D00095FF644BE1191A6824370AF0CBFE6C2F87
:1021E000F3D15A4B01221A75002755F8270013F036
:1021F00089FF242101FB07410AF089FE17F022F82C
:1022000045F827000137032FEFD1CCE7D4F800C001
:1022100008936146CDF818C0079013F0BDFE089BE7
:102220008346184613F06EFF0146584614F072F8C4
:10223000DDF818C00146604613F0B0FE0346079A69
:10224000194660601046069313F0A6FE01465846F4
:1022500013F0ACFFA16813F0A1FE069BE0602360C1
:10226000A060DFF820B1002345F80A304AF80B30AF
:10227000059B012B26D009F10109B9F1030F08F1E3
:10228000040804F1140447D03B8855F82900B3F53D
:102290007A7F059302BF0023C8F800302361D8F885
:1022A00000304FEA890A0344C8F8003013F02AFFCF
:1022B00023690133012B2361A8D1002360602060D2
:1022C000A360CEE72069012807DD013813F01AFF6B
:1022D0000146E06814F01EF800E0002017F078F9DD
:1022E000049A72B10590104613F00CFF059B01464D
:1022F000184614F017F920B14FF47A733B8000238D
:1023000012E0D8F800304FF47A7203F5FA7393FBB9
:10231000F2F34BF80A30AEE73888012801D10DF00E
:1023200047F83B88013BE9E7164955F8232051F867
:102330002310521A45F823200133032BF4D114E75C
:1023400034270020D4160020D0030020040A0020E7
:10235000C8390020BD378635E033002083F9223E9E
:10236000B039002094330020420400208C17002054
:10237000D03800207C320020D23A00209017002074
:10238000C00E0020D00A0020880A0020904B1B7845
:10239000002B00F0F5840CF0A7FFD6F8D8308D4C58
:1023A000C31A0693D6F8DC30C6F8D8001F78059318
:1023B0004FF0000A4FEA4A030793002F3AD055F82E
:1023C0002A0013F09FFE8346069813F097FE824979
:1023D00013F0ECFE00218146606814F07BF858B1E0
:1023E000384613F08FFE7D4913F0E0FE01464FF0B2
:1023F0007E5013F08FFF60604846616813F0CEFD99
:102400000146484613F086FFD4F8008081464146D5
:10241000584613F0C1FD0146484613F0C7FE014679
:10242000404613F0BBFD206014F086F86C4A079B11
:10243000D05204E055F82A10694A22F81A100AF11D
:10244000010ABAF1030F04F10C04B3D16449B1F8E5
:1024500002A0B1F800900FFA8AF252430FFA89F302
:1024600003FB03228B8864210993BDF9243003FB0D
:10247000032301FB03F25B4B1B895B4392FBF3F3EA
:10248000523B0B93049B1A68110706D5564B1968EB
:1024900019B1596809B19B687BBB544B197801F09D
:1024A000100000F0FF0360B312F0200329D001F008
:1024B000020202F0FF0322B34D4B1B78042B1FD9FD
:1024C0004C4B1B88B3F5967F1AD34B4BB3F90400E2
:1024D00013F018FE494B0446188813F013FE4849C0
:1024E00013F018FF0146204613F056FD454913F03E
:1024F0005DFE00248046012306E00023012401E064
:1025000000231C464FF0000806980D9313F0F6FDCB
:10251000314913F04BFED6F804513B4E049030681D
:1025200013F0F0FD294613F041FE0790706813F098
:10253000E9FD294613F03AFE0890B06813F0E2FD79
:10254000294613F033FE2849834607988B680F68A5
:102550004D6801460A9313F029FE06460898014685
:1025600013F024FE0146304613F018FD5946064686
:10257000584613F01BFE0146304613F00FFD17F0CE
:1025800027F80D9B0C90002B44D040461F4913F0B8
:10259000C9FF28B14046114913F0FEFC8046F4E71C
:1025A00040461B4913F0A0FF28B140460B4913F0E9
:1025B000F5FC8046F4E74FF07C51404613F0F6FD01
:1025C0000BF020F8002113F0E9FC064623E000BFE1
:1025D00004390020E40A0020BD378635DB0FC940EE
:1025E000CE0F0020C8160020A02700208C3200202B
:1025F000F80F0020F40F00209C320020C0100020B3
:102600000000204135FA8E3C7C320020DB0F49402F
:10261000DB0F49C00026002C00F0A180384613F0E3
:1026200071FD0746284613F06DFD05460A9813F024
:1026300069FD39460446384613F0B8FD2946804600
:10264000284613F0B3FD0146404613F0A7FC21468F
:102650008046204613F0AAFD0146404613F09EFC3A
:10266000A349804613F05EFF002878D0404616F05C
:10267000AFFF01464FF07E5013F04CFE80463846C7
:10268000414613F093FD41460746284613F08EFD60
:1026900041460546204613F089FD964C8046216848
:1026A000384613F083FD61680A90284613F07EFDDA
:1026B0000A9B0146184613F071FCA1680A90404637
:1026C00013F074FD0A9B0146184613F067FCE1689D
:1026D0000A90384613F06AFD21690746284613F030
:1026E00065FD0146384613F059FC616905464046D0
:1026F00013F05CFD0146284613F050FC0A9B05468A
:102700001946184613F052FD29460746284613F08D
:102710004DFD0146384613F041FC16F059FF0146C5
:10272000284613F043FD00F10048A169404613F02C
:102730003DFD002113F032FCE1690746404613F0ED
:1027400035FD002113F02AFC216A0546404613F0AE
:102750002DFD0146304613F021FC064601E0002520
:102760002F460B9B262B00F286800FFA89F013F080
:10277000C9FC81460FFA8AF013F0C4FC0446BDF987
:10278000240013F0BFFC49468046484613F00EFD76
:1027900021468246204613F009FD0146504613F0BB
:1027A000FDFB41468246404613F000FD014650467F
:1027B00013F0F4FB4E49824613F0B4FE00285AD0C1
:1027C000504616F005FF01464FF07E5013F0A2FD73
:1027D00082464846514613F0E9FC51468146204660
:1027E00013F0E4FC51460446404613F0DFFC414B35
:1027F00082461A6A20461146D3F81C800A920B932F
:1028000013F0D4FC41460990504613F0CFFCDDF89C
:1028100024C00146604613F0BFFB0146384613F062
:10282000BDFB0B9B07469B6950461946099313F065
:10283000BDFC0A9A82461146484613F0B7FC014691
:10284000504613F0A9FB0146284613F0A7FB41466A
:102850000546484613F0AAFC099B804619462046C7
:1028600013F0A4FC0146404613F096FB01463046A7
:1028700013F094FB0646059B4FF00009D3F8048043
:102880004946404613F04EFE1B4C002838D00C98A9
:102890001A4913F029FE002838D03946404613F073
:1028A00085FC049913F082FC0146D4F8080113F06A
:1028B00075FB2946C4F80801404613F077FC0499DB
:1028C00013F074FC0146D4F80C0113F067FB314699
:1028D000C4F80C01404613F069FC049913F066FC3F
:1028E0000146D4F8100113F059FBC4F810010DE0B3
:1028F0000AD7233C24260020040A0020C2B8B23E96
:10290000C4F80891C4F80C91C4F81091059B98681C
:10291000064B1B785B0705D4054B1A6844F61F630A
:102920009A4207D94FF07E5105E000BFD33A00200C
:1029300018150020A64913F039FC3946804613F0DB
:1029400035FCD4F8081113F029FB0146079813F061
:1029500025FB29468146404613F028FCD4F80C118B
:1029600013F01CFB0146089813F018FB314607468C
:10297000404613F01BFCD4F8101113F00FFB014676
:10298000584613F00BFB4FF07C518246049813F02D
:102990000DFC05464846294613F008FC2946064624
:1029A000384613F003FC29468046504613F0FEFBE0
:1029B000884B8246D3F800B0874B3146D3F800905D
:1029C000864B09F100401F68854B1D6813F0EEFB34
:1029D00041460790384613F0E9FB079B014618462D
:1029E00013F0DAFA51460790284613F0DFFB079BF5
:1029F0000146184613F0D0FA0146584613F0CEFAB5
:102A0000744B314618600990584613F0CFFB51467D
:102A10000790384613F0CAFB079B0146184613F08F
:102A2000BDFA41460790284613F0C0FB079B0146BC
:102A3000184613F0B1FA0146484613F0AFFA664B58
:102A4000414618600890584613F0B0FB5146079075
:102A5000484613F0ABFB079B0146184613F09CFA5F
:102A600031460790284613F0A1FB079B0146184604
:102A700013F094FA0146384613F090FA574A51463B
:102A800010600790584613F091FB41468246484635
:102A900013F08CFB0146504613F080FA3146804615
:102AA000384613F083FB0146404613F075FA0146A1
:102AB000284613F073FADDF824C0494B61461860CC
:102AC0000546604613F072FB089A0646114610460A
:102AD00013F06CFB0146304613F060FA079B064684
:102AE0001946184613F062FB0146304613F056FAB9
:102AF00029460646284613F059FB0146304613F096
:102B00004DFA16F065FD01464FF07E5013F002FCC1
:102B10000546304B2946186813F048FB2D4B2946D3
:102B200018602D4B2F4E186813F040FB2A4B294696
:102B300018602A4B186813F039FB284B2946186097
:102B4000274B294D186813F031FB254B18600CF00A
:102B50007FFE296AE8690AF0D3FC244913F026FBBA
:102B600016F070FB3080A86900F100400AF08BFC81
:102B700001461F4813F010FA1C4913F017FB16F01A
:102B800061FB29687080E8680AF0BAFC174900F117
:102B9000004013F00BFBD4F8141113F0FFF916F0FA
:102BA00051FB83B213F4004F16BF00F56160B38090
:102BB000B0802C462E6A0F4D3046D5F8181113F010
:102BC000B1FC0D4B1A78C8B142F0080218E000BF02
:102BD000000020412C000020182600201C26002088
:102BE000202600209C320020242600204C3D0F444B
:102BF000DB0FC93F040A00208C32002022F00802BB
:102C0000954F1A70B7F9000013F07CFA8146B7F9B6
:102C1000020013F077FA8046B7F9040013F072FA55
:102C200021680746484613F0C1FA6168824640466B
:102C300013F0BCFA0146504613F0B0F9A168824681
:102C4000384613F0B3FA0146504613F0A7F9A169CC
:102C50008246484613F0AAFAE1698346404613F0DB
:102C6000A5FA0146584613F099F93946834630468D
:102C700013F09CFA0146584613F090F9E1680646B5
:102C8000484613F093FA21698146404613F08EFAC4
:102C90000146484613F082F961698046384613F0D0
:102CA00085FA0146404613F079F9059B00F100478B
:102CB0005B78012B18D1694B1B7858070ED4D5F8D7
:102CC0001C01402390FBF3F3C01A13F01BFA3146AA
:102CD00013F064F913F030FCC5F81C01D5F81C01A1
:102CE000402390FBF3F001E05D4B188913F00AFAE2
:102CF0000146304613F050F9D5F8241106460498E1
:102D000013F04CF90146049813F004FBD5F8204168
:102D100080462146304613F03FF90146404613F005
:102D200045FA0146204613F039F9C5F82001064658
:102D3000504616F087FAD5F828514A4C29780AF0FF
:102D400093FB236818442060384616F07BFA2978F4
:102D50000AF08AFB636818446060304616F072FA25
:102D600069780AF081FBA3683F4A18440699136802
:102D7000A060194411603D4A13680133136003E0F9
:102D800000232B606B60AB60394BB3F90610394BF5
:102D90001F687A8991420EDBB1F5FA6FFD79BFBFEA
:102DA0008B1A6B43A2F5FA6593FBF5F5ACBFC5F141
:102DB0006405643500E064252F4B0022B3F810E071
:102DC0002E4B1B6804932E4B1E680593284B4FEA2D
:102DD000420833F912C0CEEB0C03002B05DDB3F52E
:102DE000FA7FA8BF4FF4FA7306E0CCEB0E03B3F5FD
:102DF000FA7FA8BF4FF4FA73022A49D0049C2478C2
:102E00001CB1A342CCBF1B1B0023642093FBF0F931
:102E10001C4C6FF0630B34F819A00BFB093B09F154
:102E2000010934F919400FFA8AF9C9EB040404FBCB
:102E30000BF494FBF0F41448544420F80840BC18F8
:102E4000247964206343114C93FBF4F364339BB205
:102E50006B4393FBF0F048E0CE0F0020D33A002004
:102E6000C816002064270020B43900206027002005
:102E700074290020FC330020E82B0020C00F002024
:102E80008027002078240020663200200CFEFFFFFF
:102E9000049844781CB1A342CCBF1B1B00236420C0
:102EA00093FBF0F0DFF80CA36FF0630909FB003B24
:102EB0003AF9104001303AF91000002BA0EB040061
:102EC00000FB0BFB9BFBF9FB0498C4EB0B0490F994
:102ED00004B0A3480BFB04F48480B879B8BF5B420C
:102EE0004343A04893FBF0F0643033784FF064091B
:102EF000434393FBF9F39C4C022AA354B37A9B4CB3
:102F000000FB03F393FBF9F3A354337D944C00FBD4
:102F100003F090FBF9F0964B9854964B0ED1F44584
:102F200083F802900DDB944B5A8A0493914214DB90
:102F3000B1F5FA6FA8BF4FF4FA610FE0F4459D5464
:102F400004DA34F808305B4224F808300132032AEE
:102F500006F101067FF43AAFE5E71146891A4FF40E
:102F60007A735943C2F5FA62B1FBF2F1642391FB23
:102F7000F3F2824F6FF0630037F8126000FB02112A
:102F8000013237F9122030B2121A514391FBF3F398
:102F90003344E3807A4B724D1B8859063FD5794BF9
:102FA0000A20B3F9043093FBF0F0774B1B88C01A6A
:102FB00000B213F0A7F8754913F0F8F806460AF0C6
:102FC00095FB074630460AF01DFB0646B5F90200A0
:102FD00013F098F88046B5F9000013F093F83946DD
:102FE000814613F0E3F831468246404613F0DEF89E
:102FF0000146504612F0D0FF13F09EFA3946288061
:10300000404613F0D3F831460746484613F0CEF851
:103010000146384612F0C2FF13F08EFA6880049B16
:103020005B4D9B7B002B4FD0AB89B5F83011B1FBCA
:10303000F3F1584B481C1B7880B2A5F832011BB342
:10304000B5F934A10023524E0FFA80F906F59B78AA
:1030500038F9132006F59F7E0AFB02F292FBF9F283
:1030600034F813C03EF813702EF813C0C7EB0C07EA
:10307000174428F813700133042BE4D1454B002288
:103080001A70A6F8341104E0B5F83431013BA5F804
:1030900034313F4A0023B2F93401002812DDB2F97D
:1030A00032613D49A1F1080232F9132031F81310C1
:1030B000424392FBF6F28A1A24F813200133042BC0
:1030C000EFD101E0A2F83431344B01221A70344BB5
:1030D0009B680BB133489847334F344E3B682848C0
:1030E00013F0080F71D0A188DFF8CCE001F10E03D6
:1030F0009BB21C2B234BB3F9043061D802885207D2
:103100005ED50A2293FBF2F2BEF80030D21A92B2D8
:1031100093B20FFA83FE1EF1B30FBCBF02F5B47376
:103120009BB21AB2DFF894E0B32A214A9EF800E07D
:10313000C8BFA3F5B4731268C8BF9BB21EF0080FD6
:10314000127942D052B25242534332681BB2127AC1
:1031500053431E2293FBF2F3CB1AA38035E000BF4A
:10316000663200200CFEFFFFAC320020300B002046
:103170003033002090330020E82B00205224002020
:10318000643200209C320020000F002035FA8E3C73
:10319000040A0020960F0020420B0020970F002009
:1031A000D41600204A0B00208C1700208027002016
:1031B000C00F00206A240020FE0E00208C32002068
:1031C0000A2293FBF2F3AEF800309E4B1B68DA0242
:1031D0006BD5B0F8008008F400681FFA88F8B8F1E1
:1031E000000F4ED1984B1B785B074AD54FF4006017
:1031F00007F0C4FA31688B7F022B944B04BF012285
:1032000083F84821D5F84C2118BF83F848811089EC
:103210004FF47A7343438E48008893FBF0F38D4854
:103220005B429BB290F800E0A5F850310D460021BA
:10323000D67810780EB1B04204D8BEF1030F03D88F
:10324000022901D10026D6702E780132864238BF7D
:10325000287015F8016B7D48B60100F5A97C2CF8A3
:10326000116000F5AC764FF0000C26F811C000F5A7
:10327000AF7626F8113001310329D9D1012380F826
:103280006431754B1B881D051AD46F4B1B7803F0F6
:10329000040303F0FF069BB96C4D95F864317BB1D4
:1032A00007F02EFD85F864610AE00388180507D54C
:1032B000654B1B78590703D54FF4006007F04EFAB1
:1032C0003B68624D13F0140F6FD0634B1B8803F4FF
:1032D0000273002B69D0614B1B7803F0100303F0DD
:1032E000FF0643B15E4B95F965211968638801FBC0
:1032F0000233638059E05B4B5B4A1B685B48D978BB
:103300009B7809B3B2F906E0B0F90010C1EB0E02E8
:10331000002AB8BF52429A420CDD554A8E451660CB
:103320004FF0010285F86621E288C8BF5B42134472
:10333000E3803AE095F866313BB34E4B85F8666121
:103340001A684D4B1A6020E0B0F90000B2F906206F
:10335000121A82EAE270A0EBE27098420ADD0223C0
:1033600092FBF3F2454B1A60454A0123137085F82E
:1033700066310AE095F866313BB13E4B85F866113F
:103380001A683D4B1A603E4B19703E4B3E49B3F9EB
:103390000020334B1B6813440A884988934203DB9F
:1033A0008B42A8BF0B461A46E280384B384E1B783A
:1033B0009BB12D4BB3F90620364B5B8A9A420CDC4D
:1033C0003378012B01D0192B01D1B2792AB90E2BF8
:1033D00003D0082B1CBF0023A380D5F8683193F8D5
:1033E0000280B8F1000F61D01B4B1B889A075DD09B
:1033F000294B2A49D3F82090484613F07FF800283B
:1034000050D148460AF03FF8104BD3F86C1112F037
:10341000CDFE15F017FFB0F5617FA8BF4FF46170C6
:1034200012F070FE1E4912F075FF0AF0EBF88146AB
:10343000404612F067FE494612F0B8FE15F002FF52
:1034400080B230E088320020D33A0020040A002005
:10345000C83900206C250020643200208C32002006
:1034600088270020C00F002074290020980F00201A
:1034700084270020A81000207C270020B8390020D5
:103480008C2700209A0F00204624002006000020F0
:103490005C340020E82B0020242600208FC2753CDD
:1034A000EFB6B0440020E3881844E0803B689B06F8
:1034B00040F19A80B44B1B8803F03003002B00F0DE
:1034C0009380B24B1B78DF0740F18E80B04BB3F98D
:1034D00004000A2390FBF3F012F014FEAD4912F041
:1034E00065FE07460AF08EF8804638460AF0FEF878
:1034F000A94B07461B68DA78A84B002A3DD0DFF8B5
:10350000A0A2B3F90200BAF8029007920FFA89F16B
:10351000401A069304F008FC079A5146C2F1000BCA
:103520005845069B03DB9042A8BF104600E0584672
:1035300000EB090AB1F80090B3F900000FFA89F323
:103540001FFA8AFAC01A0692A1F802A004F0ECFB56
:10355000584504DB069A9042A8BF10468346D944DA
:103560008F4B1FFA89F9A3F800900FFA8AF012F036
:10357000C9FD83460FFA89F008E0B3F9020006930B
:1035800012F0C0FD069B8346B3F9000012F0BAFDAD
:1035900039468246584612F009FE4146069050468A
:1035A00012F004FE069B0146184612F0F5FC7D4918
:1035B00012F0B0FE12F0C0FFDFF828924146A9F8E1
:1035C0000000584612F0F2FD39468046504612F08F
:1035D000EDFD0146404612F0E1FC724912F09AFE00
:1035E00012F0AAFFA9F802006F4B5A89049B0093BE
:1035F0006E4B1F68059B18686D4B19686D4B1B68F7
:10360000B8476D4B6D49DB7804936D4B1F78032FE2
:1036100016D9B6F804E0BEF5FA7F11D2B4F9040069
:10362000B1F904C00028B8BF4042CEF10002131A1D
:103630009C4504DB0EEB00036345A8BF63468B800B
:10364000604B1B6813F000600FD196F90280E3888D
:10365000C8F10002B1F90480B1F80290B1F800A0FD
:1036600008FB02F8584D044674E196F902B04FF099
:103670000008CBF10003B1F904B046460BFB03FB95
:1036800043464A88B1F800A0DFF85C91BB423ED2C5
:1036900010B20793069212F035FDD9F8081012F017
:1036A00085FD05900FFA8AF012F02CFDD9F8041070
:1036B00012F07CFDDDF814C00146604612F06EFC8D
:1036C0000590584612F01EFDD9F80C1012F06EFD50
:1036D000DDF814C00146604612F060FC12F02CFFC9
:1036E000079B80B20FA921F813000FFA86FE01B2E2
:1036F0007145069A04DC0FFA88FE714502DB3046FC
:1037000006464046013309F110098046BEE72F4BBB
:10371000C8EB060A1A681FFA8AFA12F4805FDFF80B
:10372000CC90984664D02A4B1B7813F0040F294B99
:1037300008BF1A8A188A284B08BFA5F830221B68D0
:10374000264AD788DA883CB2811A8C42244B03DCA3
:103750001E88B9F8004005E00244944205DBB9F840
:1037600002605C88A5F8307247E0B5F930228A42E1
:10377000D7BF1E885C88B9F800403746C4BFB9F887
:103780000260274639E000BF643200208C320020FE
:103790009C32002035FA8E3C040F0020160F0020CA
:1037A000120F002000002041D00300203C03002025
:1037B000FC330020101600201C150020343300209C
:1037C0006C25002088320020800B0020E42B002094
:1037D000D33A0020E82B0020C00F002074290020DD
:1037E00010260020CC390020740B00204624002035
:1037F000E788B9F80260B9F80040B6B21FFA84FB56
:10380000CBEB06040FFA8AFA24B2A245B04B2ADDAC
:1038100001221A70204612F075FC0646504612F03E
:1038200071FC0146304612F075FD82460026A94B18
:103830001B789E420FD20FAB33F91600059312F09E
:1038400061FC514612F0B2FC15F0FCFC059B23F81C
:1038500016000136EBE7022094FBF0F00BEB0004BE
:10386000A4B226460AE000221A7002239AFBF3FA59
:103870000BEB0A04CAEB0606A4B2B6B2D8F80030C5
:10388000B9F8042003F480530993B5F93032B9F83C
:1038900002B00593904BB9F800901B8A8F4D0693A8
:1038A0008F4B4FF000081B6807938E4B19885B887D
:1038B0000891884991F800A04FEA4A0AD04500F0E3
:1038C00030810FA938F801C038B20C920B93CDF8B3
:1038D00028C012F017FC844951F8381012F066FC29
:1038E00012F02AFE21B28842DDF828C00B9B0C9A08
:1038F00003DB31B28142A8BF01468C4404991FFA10
:103900008CFC25F802CF0FFA8CFC19B1944517DA1C
:1039100094461AE0099989B107990698C988411A0D
:103920000598884206DCCC450EDB08998C45A8BF7B
:103930008C460AE09C4503DA9C4606E0CC4503DB56
:10394000DC45A8BFDC4600E0CC46A5F800C008F185
:103950000208B3E7BC42DFF8A0B137D218B2069331
:1039600012F0D0FB55F80C1C12F020FC05900FFA59
:1039700089F012F0C7FB55F8041C12F017FC059AE9
:103980000146104612F00AFB05900FFA8AF012F079
:10399000B9FB55F8081C12F009FC059A01461046BF
:1039A00012F0FCFA0590404612F0ACFB55F8101BE3
:1039B00012F0FCFB059A0146104612F0EFFA12F0E5
:1039C000BBFD069B2BF814000134C3E7BBF80010C5
:1039D0000122BA420BB207D23BF9121001328B42DC
:1039E000B8BF0B4699B2F4E7404A96F80180508878
:1039F00083423F4BC8BF091A1B68C8BF89B203F492
:103A000080520B923B4A03F01003B2F90640324A4F
:103A10000C93168A324AD8BF002112680592314AA7
:103A2000B2F80090B2F802E01FFA89F207922F4A2A
:103A30001FFA8EF5B2F800C006959588264A1FFA3F
:103A40008CF3528A0A9308922B4AABB2099302EB89
:103A500047030D930D9B9A4263D013880B9F5B1A0B
:103A60009BB222F8023B07B3B8F1000F09D1059FC2
:103A7000B7F806A0CAEB060B5C4502DDB24454451C
:103A80000CDBB4421BB203DD734514DA734645E028
:103A9000AB4214DB4B45A8BF4B463FE0B442CCBF22
:103AA000BDF81830BDF81C3038E0049F4FB132F932
:103AB000023CAB4203DB8342A8BF03462EE02B4609
:103AC0002CE01BB2634519DB8342A8BF034616E016
:103AD0008D3200206C250020E82B002022250020BC
:103AE000C00F002010260020740B00204624002068
:103AF000E42B00207429002024250020634622F8AE
:103B0000023C089B9C42A5DA0C9B13B1BDF8243003
:103B100004E0B8F1000F9DD1BDF8283022F8023C36
:103B200098E7B7490A788B4602F0040202F0FF03D7
:103B30003AB1B44B1B78013BDBB2182B00F2208169
:103B40000BE0B14A12789342F3D2B04931F8130036
:103B5000AF4921F813000133F5E701229A40AD4B3C
:103B60001340002B00F00C81AB4BAC491B88AC48D8
:103B700013F4807F08D0AB4B1A88ADF83C205A88EC
:103B80009B88ADF83E2013E0A74B1A88ADF83C2087
:103B90005A889B88ADF83E20A44AADF840301268A0
:103BA000D40407D5B1F90640028A944202DA5B4296
:103BB000ADF840309E4D4FF47A72B5F902304FF4B3
:103BC000616403F5E163534393FBF4F3A3F5FA73E4
:103BD000ADF85430B5F9003003F5E1635A4392FB78
:103BE000F4F28B4BA2F5FA721B88ADF85620A3F2C3
:103BF000DC53ADF842300A88038AD21AADF844206B
:103C00004A88D21AADF846208A88D21AADF84820E0
:103C1000CA88D21AADF84A200A89D21AADF84C20C7
:103C20004A89D21AADF84E208A89D21AADF85020AE
:103C3000CA89D31AADF8523000237E4A002122F8F7
:103C400013100133082BF8D17B4B7C491B687C4D4A
:103C500005937C4B1B6804937B4B1B78C3EBC3031E
:103C600001EB0308414573D00B7833B11533DAB259
:103C700001239340059A134066D0049B11F806EC8B
:103C80000E2707FB0E37B7F90020B7F90230642082
:103C90009B1A11F9022C9BB25A4392FBF0F211F8D5
:103CA00005AC4FEA530911F8034CC9EB02024FEA85
:103CB0004A0616A892B211F801CC064414B936F897
:103CC0001C0C0CE0B5F9000036F91C6CB04208DAA7
:103CD0000444844203DBA6423046A8BF2046288025
:103CE00008E007DD041BB44203DB8442A8BF04469E
:103CF00026462E80D7F80A40012000FA0AF020421A
:103D0000B5F9006011F9040C12B200FB06F04FF097
:103D1000640690FBF6F014BF4FF0FF34012490428C
:103D20000ADB4FFA8CF25A4392FBF6F2C9EB02021D
:103D300012B28242A8BF02463E4B33F81E9002FBED
:103D4000049423F81E4000E02B800235073189E7F8
:103D50003C4B3E4E1F6800250E2303FB057393F971
:103D6000064036F9023FE8B26343642493FBF4F45F
:103D700034800BF0BDFC01352044082D3080EBD1A0
:103D80002A4E2C4C33682F4D13F0200F33D00020D7
:103D90000BF0AEFC2080074601200BF0A9FC264B5F
:103DA00060801B681A0626D5294B214AD3F8543265
:103DB0001B78012B4ED12968B2F9003091F914E03B
:103DC0004FF0320C03FB0EF393FBFCF31FFA83FE60
:103DD00091F90630B2F902205B4253436FF0310192
:103DE00093FBF1F193FBFCF30EEB0102B918734462
:103DF000218018446080D5F800E0002344E000BF33
:103E0000D33A00205C3400206C25002026340020AA
:103E10002425002099209801643200207429002074
:103E2000E82B00206632002034330020E42B0020F1
:103E30009C320020F003002088320020B3240020B0
:103E4000360C0020D4350020AC240020EE030020E6
:103E5000040A0020D5F800E0B2F902309EF90610FD
:103E60005943322391FBF3F1394421809EF91470B8
:103E7000B2F9001001FB07F292FBF3F21044B9E72C
:103E80000133082BE25310D00E2101FB03E134F97A
:103E90001300B1F900205F009042B1F90210EFDB8E
:103EA0000AB28242A8BF0246EAE7A34F97F90C3054
:103EB00093B93B78013B182B73D8DFE803F03772D6
:103EC00072507272724972727272725A7272727235
:103ED00072506672725A3700DFF884924FF0000811
:103EE00039F9020F12F00EF9944B242101FB08312D
:103EF00009F00DF815F0A6F92B680E2202FB083226
:103F000080B2A9F80000B2F9003000B29842B2F9CC
:103F1000022003DB13B28342A8BF034608F1010865
:103F2000B8F1080FA9F80030DAD1C2E7BB7913B1B4
:103F30000020618908E09BF8003003F0040303F0DF
:103F4000FF00002BF4D101460DF0CAFF012529E046
:103F50000020E1880DF0C4FF0120218905E0002048
:103F600021890DF0BDFF618901200DF0B9FF022507
:103F700018E00225A81E34F81510C0B201350DF066
:103F8000AFFF082DF6D106250CE00325E81E34F816
:103F90001510C0B201350DF0A3FF072DF6D1042591
:103FA00000E0002533689B0602D43B78052B0AD13C
:103FB000284621880DF094FF681CC0B261880DF07E
:103FC0008FFF0235EDB23368DF0206D45C4C94F803
:103FD000783373B10BF0A6FB0BE05A4F002428197D
:103FE000C0B237F8021F0DF07BFF0D2CEED001346C
:103FF000F5E7554B1878002840F0B98133681D0368
:1040000040F1B581514D2B78033B052B1ED8504B09
:104010009B7833B1012B09D104F068F9C0F17F001E
:1040200004E0D4F87C0303689B689847D4F8803395
:1040300094F884231344B3F5807FA8BF4FF48073B2
:104040008342D4BFC4F88033C4F880032B78023B8A
:10405000092B00F27C81DFE813F00A0015004C0008
:1040600085009B00B400C600340151015C010023AF
:10407000C4F88033C4F88833364B1B68C4F88C33DB
:10408000032363E1334B1A68D4F88C3364339A42C8
:1040900040F25D81402006F09FFE002840F05781ED
:1040A0004FF040082C4BD4F88823254F985C1E46CF
:1040B00080B105F057F9D7F88033B8F1010803F162
:1040C000FF33C7F88033D7F8883303F10103C7F80B
:1040D0008833E7D1D4F88823194BB25C002A40F02A
:1040E0003681C3F888234FF0FF32C3F88C230423B2
:1040F0002CE126230093194B492003F10C02019374
:1041000002925021A3F10A02023305F0EFFC0028CD
:1041100040F01D8133684FF0FF3213F080030FBF72
:10412000C4F88833C4F88803C4F88C23052304BF7B
:10413000C4F88C23072309E15C3400205C0C0020C8
:10414000040A00207A290020D43A0020E00300204D
:10415000E1030020181500204CA10108B6A10108B8
:10416000EE030020834A0223002100930191029173
:10417000482002F1080305F0B9FC002840F0E78070
:104180004FF0FF33C4F88C33C4F888030623DDE016
:10419000794B072603F10C02019302920096A3F1DA
:1041A000080247200021043305F0A0FC002840F05D
:1041B000CE804FF0FF33C4F88803C4F88C332E70E0
:1041C000C5E06E4A0523002100930191029153201E
:1041D00002F1080305F08AFC002840F0B880C4F81A
:1041E00088030823B2E0402006F0F6FD002840F0E6
:1041F000AE80D4F888330D2B00F2AF80DFE803F0F7
:10420000070B0E12171E282C303438454D515C48D0
:1042100005F0D0F84FE05B485B4916E05B485C492D
:104220005C4A46E05C4B5D4819785A7841E05C4B4B
:104230005C4893E8060008331B682BE05A4B5B4848
:104240001A780C2353435A4AD15C05F0B3F832E094
:10425000584B59481988F8E7564B58485988F4E79D
:10426000574B58481969F0E7574B58481989ECE7FC
:10427000D4F89033D80403D5554B56481978E4E761
:10428000554B0C22C3F8882315E0514B534819793C
:104290005A79DB7805F08EF80DE05148B4F89413A4
:1042A000D3E73368190506D5494B4E481989B3F948
:1042B000062005F07FF8D4F888330133C4F888333A
:1042C00045E0494B1B689A0115D5B4F89833424E26
:1042D0008BB9D6F89C330E200F93444B0FA91B6863
:1042E000109305F0F5F84FF48053A6F896330A239F
:1042F0002B7005F045F905F0CDF828E094F8A033CF
:10430000002BF6D0384B1B689B01F2D409232B708D
:10431000F1E7374B1A68D4F88C33C8339A4203D983
:104320001D4B9E788EB904E006F09AFD0028F7D167
:104330000DE0D4F87C030AF081FE94F8A133C4F8B0
:104340007C63022B01D104F013FC01232B7006F0D7
:1043500071FD60B101232B7009E006F081FD00289A
:10436000F5D04FF48053A4F896330A23EEE717B044
:10437000BDE8F08F74A301088CA30108D8A301083D
:1043800050C501086AC5010867C401087FC5010856
:1043900052C401085EC40108E103002093C501086E
:1043A000E8F7FF1FA4C5010824340020B8C50108A0
:1043B0000034002046240020C2C50108D1C50108F0
:1043C000D4160020E0C50108C8160020F0C5010879
:1043D00098140020FAC50108040A002007C6010845
:1043E00020C601082BC6010888320020B039002001
:1043F000181500209B492DE9F04F0A689A4C02F5E8
:104400009C4320332360994B89B01E788946B6B10E
:10441000974909688A4240F2FC80013E1E70F8E02C
:10442000072D96BF934B2946E95C934B93481B6835
:104430009847032D0AD904EB4505A88001368F4B18
:10444000F5B21A781946AA42EAD81EE00028F2D03E
:104450008B4A4FF47A7332F8251002EB8502401A2A
:10446000584353885B1A90FBF3F040F6C90300F5FC
:104470007A70984205DC40F2EE239842B8BF1846A5
:1044800001E040F6CA0080B2D5E742F201067D4B5A
:104490001B681E40B6FA86F67B4B76091A6836B959
:1044A00094F8293084F82830784B5878187094F8AC
:1044B00028701FB1754B1F7887F001070F2384F810
:1044C0002A306C4B91F800A0B3F816B01B8B032177
:1044D000019394F82B30DFF8C881B3FBF1F101EBC5
:1044E0004101591AC9B202910025554554DADFF845
:1044F000B4E13FB3AEF1700131F81500584502D375
:104500000199884222D95EF825005749824203D298
:104510005F4931F815001DE0E8B20493039205915C
:1045200004F06CFA032D039A049B13DC05994FF0F9
:10453000010C91F82AE00CFA05FC2EEA0C0E81F829
:104540002AE007E0BBF1000FDDD1584602F5967175
:104550004EF82510CEB9029928F81100424991F879
:10456000BCE0BEF1000F04D1022B0ED9012081F86E
:10457000BC00B8F80010B8F802000844B8F80410FD
:10458000084480B20321B0FBF1F0414908F106086C
:1045900021F815000135A8E794F82A203A49A2F13C
:1045A0000F067242724184F8BD203A4B92B13A4AEA
:1045B0001268550103D5334A1268D0050AD40A6837
:1045C0009A60DB68D21AC82A1ED9324B012283F8BE
:1045D000212019E02D4A0120507010700A68996856
:1045E000DA605B68521A9A4282BF2A4B002283F833
:1045F00021200025554507DAE8B204F0FFF9244BE5
:1046000023F815000135F5E794F82B30013384F8D1
:104610002B301C4E3368D90405D51F4B1B68DA07B5
:1046200001D410F07BFD134BD9F80070D87A0193B8
:10463000002839D0164A5B7B013832F810001BB1D4
:10464000C0F53B60083080B200B2A0F57A70B0F5DA
:104650007A7FA8BF4FF47A7020EAE07011F052FD23
:104660000E4957E0B0390020DC0D00201415002061
:1046700010150020E82B002034000020082C00201A
:10468000FE150020E42B0020181500200400002057
:10469000742900201C1500208832002000007A4474
:1046A000080E0020500E002033681B043BD5D4F8C0
:1046B000C030AC4DFB1A002B35DB07F59C43203393
:1046C000C5F8C030A84B95F8C4105A79A74B0131F2
:1046D00033F81230019A9BB2127B93FBF2F301F094
:1046E0000F0285F8C4202A4482F8C5300346A04A48
:1046F000825C0130134410289BB2F8D11BB293FBAB
:10470000F0F000B26428A8BF642020EAE07011F045
:10471000F9FC984911F0FEFD974911F047FD11F0A1
:1047200031FF964B18803368954D13F4807F00F06D
:10473000FE80944BDFF850929F4205D999F80220F1
:1047400012B9012289F8022099F80220002A00F00B
:10475000EE808D4A95F8008092F821708B4A07F11F
:10476000FF3E9246DEF10007116847EB0E07002F6F
:10477000C1F38063C8F38008029314BF4FF0000BAD
:104780004FF0030B99F82020052A00F2CA80DFE8D9
:1047900002F0034A5D8594B1B8F1000F36D07C4A2F
:1047A0001268D0880CF0DEFC012809D1794A7A49D8
:1047B0001268B1F80510642000FB0122C9F810202E
:1047C000029B53B1744A12793AB110F0A9FF032247
:1047D00089F820204FF47A7235E0002F40F0A18054
:1047E0006C4AD9F810101068674A88420AD90392B7
:1047F00010F096FF039A032182F8201040F6B8319A
:10480000D161BFE7012182F82010BBE7029B4FF482
:10481000806013B105F0B2FF01E005F09FFF0022B8
:10482000C9F810207DE0002F59D15B4AD279012AC6
:1048300002D010F075FFA5E710F072FF032289F88F
:10484000202040F6B832C9F81C209BE727B105228A
:1048500089F82020012000E03846B8F1000F0ED082
:10486000019B4E491A8A4C4B0A804A808A809A786A
:1048700093F803E04FF0020B42EA0E22CA80454A49
:104880001168D9F81420914202D8B8F1000F45D12F
:1048900047F23052C9F81C20032221E02A7842F066
:1048A00002022A7010F03AFC3A4AD9F81C10126839
:1048B0000A44C9F81820042212E0364A9FB1116850
:1048C000D9F8182091422CD9354A92781AB9DAF8D9
:1048D0000020D00725D42A7822F002022A7005226F
:1048E00089F820204EE71268D9F81C100A44C9F84C
:1048F000182016E0274A28491268B1F805106420EC
:1049000000FB01224FF48060C9F81020002289F8D2
:10491000202089F8032005F021FF33E700287FF4E9
:1049200031AFBBF1000F02D058460AF041FD184BE1
:104930001A4F1B68D8880CF015FC019BB7F90220B0
:104940001B8A824603F10B0191422BDB0B3B934206
:1049500028DCB7F90020914224DB9342CCBF00232E
:10496000012320E0DC0D0020AE140020BE14002046
:10497000A10E00200000C84200C07F44AC100020FF
:10498000D33A0020404B4C001C15002088320020F8
:10499000C00F002018150020A13900207429002024
:1049A000040000200023BAF1000F0FD18D4A1268D5
:1049B000110111D58C4AD27872B92A7852070BD5D9
:1049C00023B18A4A137843F0200303E0874A13781F
:1049D00023F0200313700CE0854A00238548136000
:1049E0005360854A00210360116043605160836019
:1049F00091602B78580739D53368D90636D57B4B6B
:104A00001B78DA0632D47D4B9B789BB1BAF1000F4C
:104A100018D194F8D730DFF8EC8173B1784B1A686D
:104A2000D8F8DC309B1A002B07DA10F077FB88F8F7
:104A3000E0A01BE0BAF1000F10D110200AF0B8FC82
:104A4000012311E094F8D73043B16D4A4FF47A71E5
:104A5000126801FB03236B4AC2F8DC3094F8E030A3
:104A600023B10AF08FFC002384F8E030019B002280
:104A7000B3F812E0B3F814C0134694F8D59094F844
:104A8000D60037F912109B087145C4BF63F07F034D
:104A9000DBB201326145B8BF43F04003042AF0D1D4
:104AA00094F8E12057499A4205D191F8E220F92A79
:104AB00004D8013200E0002281F8E22084F8E130DD
:104AC0004E4B9A789846EAB9464B1B68DB0708D5E7
:104AD000BAF1000F16D12B78D80713D510F06AF968
:104AE00010E02B7859070DD5464B93F828304BB181
:104AF0003D4BDB7833B910B110F010FB02E0BAF196
:104B0000000FF9D094F8E230DFF8F8A0142B40F051
:104B1000988098F8023019F1000918BF4FF0010988
:104B20003BB39AF8E1305F2B0DD12B7803F00403EF
:104B300003F0FF0B13B110F0F1FA04E00B200AF0C0
:104B400037FC8AF8E2B0B9F1000F12D094F8E130E6
:104B50007D2B0ED12B7803F0040303F0FF0A13B171
:104B600010F0DCFA05E00B200AF022FC254B83F85C
:104B7000E2A02B7803F0040303F0FF01002B60D1C7
:104B800094F8E1301F4A572B10D14FF47A73A2F8F2
:104B9000E43033681A0601D503F06EF91A4B1B682E
:104BA0005B074ED5194B0A221A804AE0306840074D
:104BB0002ED55A2B2CD192F8E6302BB1012382F856
:104BC000E61082F8E7303CE092F8E83083F0010329
:104BD00082F8E8300BB10C2000E00D200AF0E8FB71
:104BE0002FE000BF883200201C1500208C320020EE
:104BF000A432002070320020D433002004000020B2
:104C000018150020DC0D00208C170020CA39002068
:104C10005D2B00F0CB845B2B00F0CA845E2B00F090
:104C2000C984562B01D106F06BF898F80230002B9E
:104C300000F0908494F8E1306F2B40F0858410F000
:104C4000B9F833685B0736D594F8E830B249B34A0F
:104C50008BB12B7858070ED5019BB7F906005B8AFC
:104C6000984208DD136813F0010302BF3220A1F857
:104C7000EC0081F8E8301368DA030DD594F8EE20E3
:104C8000A54B2AB993F8E62012B93222A3F8EC20FA
:104C9000012384F8EE300EE094F8E6309E4A53B1DA
:104CA0002B7803F0040303F0FF0123B9012382F8FA
:104CB000E61082F8E7309A4B4FF000091B689F1C02
:104CC00003F152083A787B7817F8010C9A4209D21E
:104CD00039460AF07FFA28B117F8022C01239340D5
:104CE00049EA030904374745ECD18C4BC3F80090DF
:104CF0008C4B1B785BB1894BDFF844B21A6898463D
:104D000012F0020FDFF83C9240F00082F8E1864B8F
:104D10001F6807F148087A78BB7838789A4228D219
:104D2000791C0AF057FA20B378790C2202FB004272
:104D3000D2F8F830BB421CD0C2F8F870397902F1D1
:104D4000F00382F8F01000215960FA785A70FA786E
:104D50000C2A4FF0010204BF9A700322DA7094F813
:104D6000202118BF99700123834022EA030384F8AD
:104D7000203106374745CED16C4B6D4FD3F800A09C
:104D80006C4B4FF000091B68029394F82830039392
:104D900097F80080B8F1000F00F0A981D7F8033030
:104DA000029AD31A002B0CDB02F5FA73C7F8033012
:104DB00094F82021012303FA09F322EA030384F87B
:104DC0002031039B002B00F0928117F8012C7B7897
:104DD0000432D2B2002B40F04681574B33F91220F7
:104DE000019B1B8A03F1C8018A4202DD97F802B0D9
:104DF00016E0C83B9A4204DA97F802C0CCF1000BE7
:104E00000EE094F82021012303FA09F322EA0303B8
:104E100084F82031029B03F5FA73C7F8033066E18A
:104E200094F8203143FA09F3DB0700F16081BBF10C
:104E3000000FCCBF022001200AF0DCFA08F1FF339A
:104E4000252B00F24C81DFE813F026002B00350003
:104E50003F00500056007F009000A100A600AB006C
:104E60004A013F004A0056007F00900062008B001C
:104E70009C00BF00C400C900FB0000010501F60052
:104E8000CE00D300D800DD00E200E700EC00F10026
:104E9000B000B500BA00504601215A46FA2304E09A
:104EA0005A460AF10100022164230CF031FA0AF09B
:104EB00073F914E10AF1030003215A4664230CF04C
:104EC00027FA0AF005F90AE10AF105000D215A4610
:104ED00064230CF01DFAB8F10D0F00F000810AF107
:104EE00004000E215A466423BAE00AF106000521A7
:104EF0005A46FF23B4E0114B0F2118685A4601307F
:104F0000C8230CF005FAB8F10F0F00F0E8800B4B46
:104F100012211868A2E000BFDC0D002088320020BA
:104F2000F4220020D43A0020F81F0020FC33002097
:104F3000CD0E0020181500207429002080270020A5
:104F40008C17002064320020B04B102118685A469C
:104F50000B30C8230CF0DCF9B8F1100F00F0BF8063
:104F6000AA4B132118680A3078E0A84B1121186861
:104F70005A461530C8230CF0CBF9B8F1110F00F0E8
:104F8000AE80A24B14211868143067E09F4B0921B2
:104F90001868023062E09D4B0A2118680C305DE011
:104FA0009A4B0B211868163058E0984B242118684A
:104FB000073053E0954B2521186811304EE0934B94
:104FC000262118681B3049E0904B152118680330E2
:104FD00044E08E4B162118680D303FE08B4B1721B3
:104FE000186817303AE0894B1C211868043035E006
:104FF000864B1D2118680E3030E0844B1E21186846
:1050000005302BE0814B1F2118680F3026E07F4BC5
:1050100020211868193021E07C4B212118680630C6
:105020001CE07A4B22211868103017E0774B2321BF
:1050300018681A3012E0754B1B21186808300DE013
:10504000724B18211868093008E0704B1921186854
:10505000133003E06D4B1A2118681D305A46C823DF
:105060000CF056F93BE0012B39D1694BB87833F994
:105070001230B3F5617F05DB40F633029342A8BFDF
:10508000134601E04FF46173B8F10C0F27D14FF4D0
:10509000966292FBF0F0A3F5617393FBF0F35D4928
:1050A0005FFA83FB0A785A4519D0BBF1030F34BF6E
:1050B0005A4600220A70584908FB021257490A60F2
:1050C0000AF06AF80AF04EF80AF002F8404659462B
:1050D0000AF0C9F80BF10100C0B20AF08BF994F89C
:1050E0002021012303FA09F3134384F8203109F145
:1050F0000109B9F1040F07F10C077FF449AEFAE595
:105100003368DF0512D5464BDB787BB1DBF8003026
:1051100098070BD5B9F8007017F001070BD1414B78
:1051200001201F605F6005F029FB05E0012005F00C
:1051300015FB012700E00027D8F80030590710D5EB
:105140007FB1012005F00AFBB9F8003003F002033B
:105150009BB24BB9334A02201360536005F00EFB3B
:1051600002E0022005F0FAFADFF8C0A0B9F800303A
:10517000DAF80820BAF80C1013F0030F14BF5161CD
:105180001161DBF8002012F00A0F30D0D8F80020AF
:10519000D2060DD55F070ED4042005F0EFFA224B9E
:1051A0000A22B3F9043093FBF2F3A4F8223102E0AF
:1051B000042005F0D3FAD8F80030980607D5B9F8DE
:1051C0000030590606D4402005F0D8FA02E040200D
:1051D00005F0C4FAD8F800305A0641BF124B0A2233
:1051E000B3F9043093FBF2F348BFA4F82431DBF8A1
:1051F00000309B061CD4D8F800301F0540F1B08069
:105200004FF4807005F0BAFAAEE000BF80270020AE
:1052100074290020D813002000340020FC33002023
:105220001C150020A43200209C32002044150020D0
:10523000B14B1B78980756D5B04B1B78042B52D92D
:10524000D8F8003013F400730FD0B9F80030D90645
:105250003DD4102005F092FA202005F07FFAA848EE
:10526000011D02F073FD02232DE0B9F8007007F074
:105270001007BFB23FB11020019305F06FFA019BF8
:10528000012784F82631D8F800305A0513D5D4F810
:1052900028219C485189B0F900209B4B002AB8BFB7
:1052A00052428A4207DAB0F90220002AB8BF5242BD
:1052B0008A42C0F2B081B9F800309B0608D52020A0
:1052C00005F04CFA002384F82631012700E000277E
:1052D00094F83431BBB90E200AF06AF88A4B0122E7
:1052E00083F834210FE0B9F8003003F03003002BCD
:1052F00081D0102005F032FA202005F02FFA00238B
:1053000084F8263102E0002F3FF475AF00221746E3
:105310007E4B002023F817007D4B191D03F10A0E68
:1053200021F81700002142F80E109644CEF8040030
:10533000CEF8081023F8170003F1320E5A3342F862
:105340000E10D15096441344CEF80400CEF8081045
:10535000586099601432002F7FF44DAF0127D7E7D2
:105360004FF4807005F0FAF96A4B1B78082B01D0D6
:105370000E2B02D1402005F0F1F933685E051AD5F5
:1053800094F8B8311BB92B7813F0040F03E0D8F868
:10539000003013F4002F0AD05F4B00221A704FF434
:1053A0009E700BF085FF30B103F0C2FBF7E70FF002
:1053B000F9FB03F0DDFB2B78580705D5DAF8003050
:1053C000BAF804205A6138E0D8F8002094F8D800E0
:1053D000D1075EBF514A43F00103137010F092FEF3
:1053E0004F4910F0E3FE08F081F94E4B0146186A70
:1053F00011F098F818B92B7823F001032B700FF0F7
:10540000C1FE494B18B9494A1288632A06D90222BB
:105410001A702B7823F001032B7005E02A78D2074D
:1054200056BF022218701A7009F05EFF404B1B68CD
:10543000C01A002801DB03F053FB012384F8BA31C2
:1054400094F8BB31304E23B3DBF800305F0720D532
:10545000D8F800301D0703D4082005F07FF918E0C4
:10546000B9F8005005F00805ADB295B9082005F06F
:1054700085F9304B1A68304B1A60304BDB88A6F840
:10548000BC31204BDB88A6F8BE312D4B1D602D4B67
:105490001D6094F8BB311C4D002B00F0D880DBF868
:1054A0000030D80640F1D380D8F80030990206D4F5
:1054B0004FF4007009B0BDE8F04F05F04FB9B9F8EE
:1054C000004004F40074A4B2002C40F0C0804FF4FB
:1054D000007005F053F9174B1A68174B1A60174BF9
:1054E000DB88A5F8BC31074BDB88A5F8BE31144B2F
:1054F0001C60144B1C60AAE08C320020F80F0020C6
:10550000B010002066320020DC0D0020CC390020D5
:10551000120F00205C3400200C2C0020D33A002015
:1055200035FA8E3C2426002040150020F815002076
:105530005C150020A81000207C2700207429002082
:105540008427002088270020B9F1000F02D07E2B8D
:105550003FF475AB94F8E130972B06D13D4B4FF4F7
:10556000C872A3F8EA20FFF76CBBA72B06D13A4A12
:10557000137843F004031370FFF763BB0022BB2BC7
:10558000079201D1022303E0B72B04D14FF6FE733B
:10559000ADF81E301BE0BE2B01D1022303E0BD2B72
:1055A00028D14FF6FE73ADF81C3010E0012002E068
:1055B000022000E003205FFA80F808F1FF30C0B25B
:1055C00005F090FB404609F015FFFFF73ABB234B6F
:1055D000BDF81C101B681A880A441A80BDF81E10FA
:1055E0005A880A445A8005F08BFB002384F8E23085
:1055F000FFF727BB792B04D1194AD37823F0010395
:1056000006E07A2B7FF41DAB154AD37843F00103F3
:10561000D370FFF716BBB9F8002092063FF558AEDD
:105620002020019305F0AAF80E4A019B11685268E8
:10563000C3F82C1103F5967003F59871C3F8302167
:1056400002F084FB019B012783F8267140E609B034
:10565000BDE8F08FDC0D00208C32002010160020F9
:1056600048340020FC0F00202DE9F04F89B00FF0E6
:1056700099FAB84B1E78002E41F03E81B64D2B684A
:10568000580541F13981B54CDFF804832368DF8880
:105690002379002B00F0D681D8F80020A368D31A14
:1056A0007C2B40F2CF81237BA2600133237306F170
:1056B0002400DFF8A892C0B20FF028FA09F10E0317
:1056C00033F916004FF47A735843A54B01361B8902
:1056D00090FBF3F000B20FF007FA032EE7D1302071
:1056E0000FF014FAB9F914000FF0FEF90FF006FAF2
:1056F00099F80C30990732D141F28833D9F8082053
:105700009A4219D910200FF001FAD9F8180064262E
:1057100090FBF6F000B20FF0E7F921200FF0F6F958
:10572000D9F8180090FBF6F306FB13000028B8BF69
:10573000404200B20FF0D8F914200FF0E7F9894B7E
:10574000B3F904000A2390FBF3F00FF0CDF91C200D
:105750000FF0DCF900200FF0C7F90FF0CFF9237B31
:105760005A0740F04A8102200FF0D0F97B4B4FF0EE
:105770000509D8696423323090FBF3F000B20FF0D2
:10578000B3F9794B0320B3F906600FF0BFF996FB2C
:10579000F9F6764BB6B21B785B070AD538460BF0A4
:1057A000E1FC20B92B6813F0100F18BF002630B2AF
:1057B00004E06F4B9889B0FBF9F000B20FF094F958
:1057C0002B689F0765D5DFF8CCA16A4E9AF80030A8
:1057D00032884FF0640909FB02325B00B2FBF3F33D
:1057E000278C06203F01BFB247EA0327BFB2C3F3AD
:1057F00003231F430FF08AF938B20FF075F9238C99
:105800009AF8001001339BB293FBF1F201FB1233C3
:10581000238494F82E30012B05D139200FF076F92E
:10582000B6F9000019E036886E235E43152796FB13
:10583000F7F63A20B7B20FF069F9B7FBF9F630B2D4
:1058400009FB16760FF050F93B200FF05FF9B0B26C
:10585000461D0A2096FBF0F000B20FF045F9282013
:105860000FF054F9236B0A2093FBF0F000B20FF015
:105870003BF904200FF04AF93D4B9B8913B103F02B
:1058800055F803E03C4B186880F3100000B20FF0AD
:105890002BF93A4B1B689E0640F1A580384F3B78A8
:1058A00098071BD511200FF031F9A08E4FF4F36645
:1058B0007043344B90FBF3F000B20FF015F9192050
:1058C0000FF024F9A08E4643642096FBF0F696FB79
:1058D000F0F300FB136000B20FF006F93B78E68EA0
:1058E00013F0020F08BF002601200FF00FF930B2AD
:1058F0000FF0FAF809200FF009F900200FF0F4F882
:10590000214B94F838601A88B2F5967F0AD9134B68
:105910001B7B03F00F03072B04D842F20F7696424D
:1059200028BF164605200FF0F1F894F82D300BB97A
:1059300030B239E0A6F1200010F0E4FB134910F07A
:10594000E9FC0021064610F0CFFD28BB4FF07C514A
:1059500024E000BFD43A0020E42B0020C00F002038
:10596000C81600209C32002066320020D33A002066
:1059700098140020AC140020A81400208C170020DC
:105980008C320020A0860100080000206666E63FF9
:1059900018150020610000204FF03F41304610F004
:1059A000FDFA10F0C9FD00B20FF09EF83B789907A0
:1059B00004D494F83930BE4E012B04D1012384F86D
:1059C0003930BC4815E0BC49706A10F0EFFB10F0AC
:1059D000B3FDB9490090B06A10F0E8FB10F0ACFDDF
:1059E0000190684605E0B54A92E803008DE803009F
:1059F00068460FF09BF80FF081F8237B282B21D10C
:105A0000AB4B0022D8F800001A734FF47A73B0FB46
:105A1000F3F74FF03C0917200FF078F8B7FBF9F6D1
:105A2000B6FBF9F009FB1060000200B20FF05CF861
:105A300018200FF06BF809FB167000B20FF054F845
:105A40000FF05CF894F84430994E002B00F05F8121
:105A500009F04AFCB36C9A4AC31A9342074640F2D3
:105A6000C180002386F84E3086F85030954B96F86A
:105A70007C101B88DAB21B0A86F86A2086F86B3025
:105A800086F8602086F86130B26FD8F800309A1A34
:105A90004FF47A734B439A420DD38B4B1B68B36719
:105AA0008A4B1B78013B012B9FBF102386F84E3099
:105AB000022386F85030226B0A21854B92FBF1F2CB
:105AC0001B6884F8682093FBF1F3121284F86920B4
:105AD000804A84F86C3012781B1284F86D3094F888
