:020000040800F2
:10000000005000209D3E01083D3F01088528010861
:100010003D3F01083D3F01083D3F01080000000051
:100020000000000000000000000000003D3F01084B
:100030003D3F0108000000003D3F01087BDF000854
:100040003D3F01083D3F01083D3F01083D3F01089C
:100050003D3F01083D3F01086589000861890008AE
:100060003D3F010889DF00083D3F01083D3F010891
:100070003D3F01083D3F0108DDB400083D3F010858
:1000800069B900083D3F01083D3F01083D3F0108B7
:100090003D3F01083D3F01083D3F01085D890008E3
:1000A0003D3F010811DA00083D3F010821DA000850
:1000B00001DA0008F1D90008E1D900085558000814
:1000C000595800084D580008515800083D3F010894
:1000D0003D3F0108D5B40008CDB40008C5B4000800
:1000E0008DDF00083D3F01083D3F01080000000092
:1000F0000000000000000000000000000000000000
:0C01000000000000000000005FF808F1A3
:100110002DE9F04F774B784EA3B033600023736026
:100120000FF010F8069618B90FF02EF807F094FCAF
:1001300007F038FD714A724C1378724D43F0010399
:10014000137000230A930B930C934FF4E0130D9359
:100150002368A87B43F480332360A36943F0100332
:10016000A361236803F400330B930A9B01330A93C2
:100170000B9B1BB90A9BB3F5A06FF2D123686049B2
:1001800013F4003301D0022315E00A6842F00102A3
:100190000A600A93236803F002030B930A9B01335E
:1001A0000A930B9B1BB90A9BB3F5A06FF2D123688E
:1001B0009A0739D501230C93534B54491A6842F0DE
:1001C00010021A601A6822F003021A601A6842F0DC
:1001D00002021A606368636063686360636843F483
:1001E000806363604A4B1A68043B22F070425A6095
:1001F000484A1160616821F47C116160596841F0DE
:1002000000415960D96821F40041D9609B681B0402
:1002100049BF414B4FF4E01313604FF480130D932B
:100220000C9B012B01D117E0FEE7022B18D168B11E
:100230000D9BB3F5801F02D14FF4A01305E00D9B79
:10024000B3F5E01F02D14FF400130D930D996368CD
:100250000B4343F4803302E0636843F4601363604C
:10026000236843F0807323602168254B8F01FBD501
:10027000596821F003015960596841F00201596041
:1002800063681F4903F00C03082BF9D14B6823481E
:1002900003F00C03042B03D0082B03D01B4B12E0FC
:1002A000136810E04B684F68C3F38343FE0303F108
:1002B000020301D41A4905E0496811F4003F1168AE
:1002C00018BF49084B43036063681649C3F303131F
:1002D0000B44197E0368CB400360EB7B0699003327
:1002E00018BF01230B721368084A93421CD10122E4
:1002F0001EE000BF3F7200082C0800206834002078
:1003000000100240601000200020024000127A001D
:10031000041001403C000020001BB70058000020E2
:1003200000093D00AC8E0108984A934202D1022296
:10033000974B1A70DFF8B4B2964B069ACBF80C3094
:10034000A369DFF8ACC243F00103A361636A924F73
:10035000D360636A604643F080736362A3694FF0C1
:10036000000843F01C03A36122AB03934FF6FF7315
:10037000039ACDF810C022F82C3D114603928DF857
:100380005E800BF0FCFB384603990BF0F8FB8348CA
:1003900003990BF0F4FB0223DDF810C08DF8433015
:1003A0000DF1880A4FF400732AF8483D4FF0100908
:1003B000604651468DF84290CCF81030CDF810C010
:1003C0000BF0DDFB764A0398536843F000735360EB
:1003D0000EF048FB734A179B4146B3FBF2F3724A97
:1003E00072481360182216F0A4F8714B4FF47A7219
:1003F0001B68B3FBF2F36F4A013B5360F0238BF8A9
:1004000023300723C2F808801360AB68DFF8E4816B
:10041000039EDFF8E4B1C8F800309BE80F0086E8DF
:100420000F00A369179843F00803A361A36918A9F3
:1004300043F00803A36108233B61C7F810900BF059
:100440009EFB19981AA90BF09AFBD8F800301807F0
:1004500014D5594B93F88E31012B0FD8564B93F886
:100460008F21564BDB6813F0805300F0198605E0AE
:10047000514B002283F88F2107F068FD64200DF0B6
:1004800072FDA0224E48002116F053F8E3690022C5
:1004900043F00703E361A36943F4006343F00C03F3
:1004A000A361464B4FF0000903F1100102F80190DF
:1004B00001320E2AF5D1FF229A77DA7783F82020CD
:1004C00083F821203F4B404A49461A603F483C226E
:1004D000D8F8004016F02DF84946C4F380170523DC
:1004E0003B4ADFF8E8E0885C0C224A4302F80E0041
:1004F00047B91E3801289FBFFF2003F1FF3302F8E0
:100500000E00DBB201310529EAD1324A95F8059097
:100510001370314B069983F80090304B274A4B6299
:100520002F49C0330B602F4BA10603EBC9035B7847
:1005300048BF01239362002340F2DC512A4A22F88B
:1005400013100133082BF7D1504600211C2215F05F
:10055000F0FF14F4007BDFF8A48004F4006A4FD0AD
:10056000A6040AD4BAF1000F0AD095F8822108F146
:100570000C03012A08BF434604E0CDF8148002E0D2
:1005800008F10C030593039B16933BE0001BB70097
:10059000933400200005FA05000C014000100140D2
:1005A0000000014040420F00B82A0020C81F002070
:1005B0005800002010E000E0601000202C0800200F
:1005C000002B0020702C002050120020742C0020E2
:1005D0004FB40108311000204003002070100020AB
:1005E0001C2C002054B40108980F002000ED00E0FE
:1005F0000008014040180020D48E0108AC8E01088C
:10060000CDF814B0B9F10E0F04D009F0EF09B9F12B
:10061000080F02D101238DF8523001200DF060FB4C
:1006200018B14088003018BF0120C4F340038DF892
:100630004630C4F3403300F001008DF84030C4F37D
:10064000C0338DF845008DF848708DF84330BAF10D
:10065000000F07D095F882A10AF1FF30D0F1000A0F
:100660004AEB000AC4F300438DF84930069B1BF1A6
:10067000000B9B6A18BF4FF0010B003318BF01231A
:100680008DF84B30C4F300538DF84C30B5F846313B
:10069000B5F84421E104ADF85030B5F85231ADF869
:1006A000562048BFB34AADF84E30C4F3804348BF2C
:1006B000B2F84C218DF84730B5F8503148BFADF84D
:1006C0005620B3F5FA7FADF8543084BF0023ADF85F
:1006D0005630069A95F8D23104F0010982F82C3090
:1006E000C4F3C007A448002164228DF844A08DF80B
:1006F00041908DF842708DF84AB015F01AFF9DF8C0
:100700005230002B0CBF00230223B9F1000F00D19F
:1007100007B1013308EB8308D8F838304FF0000BED
:100720009A1E1A3306920793069B33F8024F0693DC
:100730004FF6FF739C4200F0A8819DF84520E3B27C
:10074000240AE5B21AB19A1E012A40F299819DF855
:10075000482032B189491A018958894A914200F0EA
:100760008F819DF8490030B184491A018958844A23
:10077000914200F085819DF8462052B17F49049E48
:1007800001EB03114A68B24203D10A89102A00F032
:1007900077819DF8432052B17849049E01EB031103
:1007A0004A68B24203D10A89022A00F069819DF8A1
:1007B000442052B17149734E01EB03114A68B242B1
:1007C00003D10A89022A00F05B81169E7EB16B4F2D
:1007D000326807EB03177968914208D13A89B188EA
:1007E000914200F04D81F188914200F04981022C44
:1007F00002D19DF8402003E0012C04D19DF8412056
:10080000002A00F03D819DF84B205C4C1E015AB13E
:100810009DF8522042B9A3F10802012A04D8A25936
:1008200059498A4208BF04259DF84C20344452B1EE
:100830009DF852203AB910B10C3B012B01E0043B6A
:10084000032B40F2FE80012D48D1504FDFF82CA140
:10085000FF2387F8743087F875300AEB06035A7B5C
:10086000586803F108091B894FF00008ADF85C30A7
:1008700017A9022387F87880C7F884408DF85F3085
:100880008DF85E2087F83080C7F83480C7F838804C
:10089000C7F83C80C7F8708087F8768087F8778043
:1008A0000BF06DF95AF8060099F80210424607F06D
:1008B000A6FE204641462A460AF060FD344BC7F8A2
:1008C0009080C7F88830334B2046C7F88C3007F14A
:1008D000880107F18C020AF099FDD1E0022D5FD169
:1008E0005FFA8BF24FF01C0C0CFB02FC274B00272D
:1008F00003EB0C080893214B4FF001099A19517B27
:10090000506802F1080A128988F879B08DF85E10F3
:1009100088F87A7017A988F8827088F87890C8F8F3
:100920008440CDF824C0ADF85C208DF85F500BF00A
:1009300026F9124B9AF8021098593A4607F05FFED2
:10094000204639464A460AF019FD1349089BDDF84E
:1009500024C0C8F8881011496344C8F88C1003F10A
:100960008801C8F8907020460A1D0AF04FFDCB445C
:1009700086E000BF6010002080200020D8B1010870
:1009800000040040000C0140002C01402C08002015
:100990006D8000084D8100083986000845800008F8
:1009A000032D4CD19DF847309F4D8BB14FF6FF7210
:1009B0000023204608216E7807F076FE9B4B192213
:1009C00043F826009A4BC360AB7805EBC3032CE0D9
:1009D000BDF854206E78B2F5FA7F13D9954B2046B6
:1009E000B3FBF2F2082192B2BDF8563007F05CFE7C
:1009F0008E4B0D2243F826008F4BC360AB7805EB7E
:100A0000C30312E08D4B2046B3FBF2F2012192B2F8
:100A1000BDF8563007F048FE844B092243F8260003
:100A2000834BC360AB7805EBC3035A71AB786A782C
:100A300005EBC3010A7101328C606A701EE0042D5F
:100A40001ED1BDF84E207D4B774D93FBF2F2012174
:100A500092B2BDF8503020462E7807F025FE784B34
:100A60000A2203EB8603C3F85801AB7805EBC301F8
:100A70004A712A788C600A7101322A700133AB7096
:100A8000069B079A93427FF44FAE674A6C4E1278EA
:100A90006C4B86F878216C4A002415781C70A5F1FF
:100AA0001702022A984619D8736A0021185903EBD5
:100AB000040912F0A3F910B1B36A5BBB25E0634FE0
:100AC00099E80F00274487E80F0098F800301034A9
:100AD0000133C02C88F80030E6D1EDE75C4B13F809
:100AE00035E003EBC503D3F804C088F800E0BCF19F
:100AF000000FE1D07445DFDA544F23011F446344F3
:100B00000FCB013487E80F00F4E7524F3B68DA045B
:100B100024D41DE0504B514A13F8350003EBC503B4
:100B20005C681070002CF0D000238342EDDAC3EB38
:100B3000C3016218D2F800C0DFF848E1013341F880
:100B40000EC001EB0E079188B9809279BA71ECE77B
:100B500005F0EF03082B424B25D126E098F8003032
:100B6000012BF5D93F4C04EB031303F110081034AB
:100B70004445EDD054F8100C4FF07C5111F0AAFF11
:100B80004FF07C5144F8100C54F8140C11F0A2FFF3
:100B90004FF07C5144F8140C54F80C0C11F09AFFEF
:100BA00044F80C0CE3E70E2D08D11A78182D42F00A
:100BB00010021A7008D10DF0C5FC05E01A78192D45
:100BC00022F010021A70F5E70DF0A0FC3B68264CED
:100BD0005B035EBF254B01221A70254B25481A780E
:100BE000994642F004021A70234A1178904602296D
:100BF00034BF142310238DF85E304FF002038DF8BC
:100C00005F30A3694FF4805243F00403ADF85C20D9
:100C100038BF0025A36128BF012517A90AF0AFFF3F
:100C2000164B8DB3164A30E080200020CC2A0020DD
:100C30005D81000800127A006D81000840420F00BB
:100C40002C080020FC2A0020400300207C02002009
:100C500054B40108401800209C9C0108A82B0020D7
:100C60005C1800208402002000100240A807002029
:100C700068340020000801409334002078340020BC
:100C800055DA0008A92B0020724A00201A600DF0E6
:100C90007FF9714B714D93E80300039B4FF0030BF9
:100CA00083E80300A369179843F00803A36118A918
:100CB0000AF065FFE369284643F48043E361236952
:100CC000039943F48043236118238DF85E304FF479
:100CD0002043ADF85C308DF85FB00AF050FF04227D
:100CE0004FF48043284603998DF85E2004924FF418
:100CF000805AADF85C300AF042FF10232846039971
:100D00008DF85E30ADF85CA00AF039FF236932201F
:100D100043F480432361236923F480432361504BD0
:100D2000198801F4415141F4457141EA0B011980E0
:100D3000998B21F400610904090C99830721198218
:100D4000198889B241F0400119809F23C5F810A08D
:100D50008DF83C3000238DF83D308DF83E308DF815
:100D60003F300DF000F9049AC5F814A003980FA9BC
:100D700011F064FAC5F810A09DF85E309DF85D2072
:100D80001B0243EA02439DF85F201343354A934216
:100D900015D032200DF0E7F8C5F814A0F52011F0B9
:100DA00083FAFF2011F080FA7028C5F810A006D150
:100DB00098F80030022B04BF2B4B83F800B098F852
:100DC0000030032B0CBF1F20022009F05AF998F8BD
:100DD0000030032B03D001200BF026F907E002209E
:100DE0000CF07EFF0028F6D04388002BF3D03D683E
:100DF0004FF0100B05F40043039305F400630493D4
:100E00001A4B002118465A46069398F8008015F0B0
:100E100090FB4FF6FF72069BADF83C2002224FF08C
:100E2000000A15EA02018DF83E208DF83FA01D460C
:100E300020D022A921F84CBD0D480DF05DFE042301
:100E40002B700722012385F801A0AB70EA709A4647
:100E500011E000BF69DA0008F48E0108000C0140BF
:100E6000003800401520200093340020DC2C0020A6
:100E7000000801408A46039B8BB122A9022221F877
:100E80004C2DA2480DF038FE01220AEB0201072387
:100E900085F805A02A71AA71EB715FFA81FAB8F1A1
:100EA000010F12D9202222A921F84C2D97480DF0CC
:100EB00023FE052201232A72AB720AF101020723E5
:100EC00085F809A0EB725FFA82FA049B93B10222C3
:100ED00022A921F84C2D8E480DF00EFE0922012387
:100EE0002A73AB730AF10102072385F80DA0EB7397
:100EF0005FFA82FA6268874842F44042626062693F
:100F0000DFF8108242F001026261A26942F40072CD
:100F1000A2610DF0B8FE17A80DF08AFE7E4A0024EB
:100F200017927E4ABAF1010F189294BF224680228E
:100F30001C924FF480721D924FF480621E92202208
:100F400040461F9217A94FF4005220921994CDF8F1
:100F500068A01B9421940DF078FED8F80020704909
:100F600042F00102C8F800204A68BAF1010F22F4E9
:100F7000702294BF0020012022F4807242EA0022F5
:100F80004A608868674A0AF1FF33024042F46022EF
:100F900042F002028A60CA6ADBB222F4700242EABC
:100FA0000353CB6201232A199178002963D0285D6D
:100FB000591C0928C9B2D278DFF864C112D9A0F14E
:100FC0000A0EDCF80CA00EEB4E0E4FF0070808FAE4
:100FD0000EF82AEA080802FA0EF248EA0202CCF8F1
:100FE0000C200FE0DCF8108000EB400A4FF0070EF9
:100FF0000EFA0AFE28EA0E0E02FA0AF24EEA02027F
:10100000CCF81020062BDFF818E110D8013BDEF8F1
:10101000342003EB83034FF01F0C0CFA03FC22EA8D
:101020000C0200FA03F31343CEF8343022E00C2B09
:1010300010D8073BDEF8302003EB83034FF01F0C82
:101040000CFA03FC22EA0C0200FA03F31343CEF875
:1010500030300FE0A3F10D02DEF82C8002EB8202AB
:101060001F23934028EA030C00FA02F34CEA03031F
:10107000CEF82C300B460434102C94D1284B9A68AF
:1010800042F480729A609A6842F001029A609A680B
:1010900042F008029A609968214A0C0744D5FAE7A1
:1010A000013A092A3FF6EAA90593DBF82C00039BD5
:1010B000C7F814901946186004980AF060FD049B64
:1010C0003C201A46082313610CF04DFF059BC7F81E
:1010D00010901F4695F88F319F42BFF6C9A9049B17
:1010E000DFF82CB04FF00809CBF810907820C3F847
:1010F00014900CF02DFF049BCBF814907820C3F8CB
:1011000010900CF025FF0137E4E700BF0008014014
:10111000000C0140080002404C240140EC2C00204F
:1011200000240140FDF7F1FF936843F0040393604E
:10113000C14B9D6815F00405FAD1C04C9A68B4F80B
:10114000580142F4A0029A60002840F05186B4F998
:101150005A31002B40F04C86B4F95C31002B40F042
:1011600047863B6898031FD5C8200CF0FCFEAE20D4
:101170000AF0C5FE08B10AF0C7FE86F87901C8205A
:101180000CF0F1FEAE4B0021C6F87C31AD4E0C22C6
:10119000304615F0CEF90223F3700FF09CFC0CF0F2
:1011A000BBFEA94B0344B360A84E94F868C13368F2
:1011B000B4F86001B3F956E094F85F1194F8672130
:1011C0006346CDF800E007F0B9FC10B901200CF03F
:1011D0003BFF99F80030102243F0020389F80030F9
:1011E0009B4B4FF00A085A6108221A61DFF860929F
:1011F0001920D9F80C3008F1FF3883F01003C9F832
:101200000C30D9F80C3083F00803C9F80C300CF01E
:10121000AAFE01200CF0BCFE19200CF0A4FE002058
:101220000CF0B6FE18F0FF08E0D10823C9F8103022
:101230004FF0100A874BC9F810A01A68984612F0B0
:10124000080F09D0844BC9F814A01B689847834B3A
:101250000122C9F810A01A70814BDFF82C921B688C
:10126000187B11F0E3FB7F4911F034FC06F0D0FA53
:101270008246B9F8000011F0D9FB514611F02AFC62
:1012800015F064FB784B1880B9F8000011F0CEFB24
:101290000146764811F0D2FC754911F0CFFC754B30
:1012A00070491860744BD86811F014FC734911F040
:1012B00011FC734BFF211860724B1B22184615F06E
:1012C00038F9DFF8C8E1002273460270D8F8002030
:1012D000012112F0020F8EF800101FBF4170032190
:1012E0008EF80010022118BF8170510741BF9EF88F
:1012F000001001F1010E83F800E04FF0030E48BF2B
:1013000000F801E012F00A0F0ED01A78042181547F
:10131000511CC9B24FF0050E00F801E0D11C023299
:101320001970D2B20621815439688F0641BF1A78EC
:10133000571C1F70072748BF87540A0608D51A781C
:1013400009278754971C01321F70D2B20A2787548D
:101350006779082F01D00E2F08D11A7802F1010EFB
:1013600083F800E04FF00B0E00F802E01A7811F459
:10137000803F4FF00C0C00F802C002F1010E1CBFC0
:10138000DFF808C102325FFA8EFE83F800E01FBF6B
:101390008CF800203B4A4FF00E0C02F80EC04A07B2
:1013A00048BF1A784FF0120C41BF02F1010E83F8CA
:1013B00000E04FF0100E00F802E01A7811F4806F90
:1013C00002F1010E5FFA8EFE83F800E000F802C021
:1013D0000ED094F81CC2BCF1000F09D0DFF8ACC0ED
:1013E00002328CF80020274A4FF0130C02F80EC08E
:1013F0008A0541BF1A7802F1010E83F800E04FF030
:10140000150E48BF00F802E0182F41D11A784FF0AE
:10141000160E00F802E002F1010E5FFA8EFE4FF0A8
:10142000170C00F80EC002F1030E0232D2B283F89C
:1014300000E087542CE000BF002401406010002031
:10144000E611002020280020404B4C00A80F00206F
:10145000000C01405818002004200020F400002057
:10146000DC01002035FA8E3CF80100200AE81C411E
:1014700000401C4630010020501F0020BD3786353B
:10148000D8010020710F002024000020700F0020E0
:101490000F0341BF1A78571C1F70192748BF875484
:1014A000CA0541BF1A78511C19701A2348BF8354CA
:1014B00000219822774815F03CF807F072FA764937
:1014C000764B77481960B4F84E21764B0160764927
:1014D0001A800023754AD6F800E00B70B4F8941116
:1014E000138093701FFA81FA0EF17902DFF80C92E3
:1014F0006F48D9F80070DFF808C207F5967720F832
:1015000013A04CF823700133122BEFD1694F0EF169
:10151000C90ED7F800C01CF4805F08BFB4F89AA1C8
:10152000A0F806A01378B3B9937892F803A05345B6
:1015300011D20BB1013B01E00AF1010303EB83037C
:1015400092F801A003EB830303F561739BB20AF1E8
:10155000040A20F81A3004327245E3D11CF0080F57
:1015600000F0FC8094F88E31062B00F2F180DFE869
:1015700003F004070E355172720045F2F05201E09B
:1015800042F6F8224C4B1A8007F094FADFE042F65C
:10159000F822494B09011A800A2391FBF3F1002339
:1015A000A1F5B061454A42F823100133122BF9D15D
:1015B000434A444940201160434A13700CF0CAFB6F
:1015C000002800F0C58001234FF0070B90F90000C0
:1015D00040218DE808083D4A3D4BB3E042F6F82231
:1015E000354B40201A803B4A354B1A60364B10224F
:1015F0001A700CF0AFFB002800F0AA8001234FF016
:10160000000A90F9000040218DE80804324A4FF4A6
:10161000E13397E042F6F822274B40201A802F4A08
:10162000274B1A60284B08221A700CF093FB0028F5
:1016300000F08E8001234FF0000C90F90000402153
:101640008DE80810264A4FF4E1330CF062FD254B7B
:10165000C3F8800178E042F6F821174A062B118082
:1016600019494FF00C02DFF89CE01F4C1F480A702C
:101670004AD0002323708EF8003003701C4B1B21CE
:1016800019701C4B4FF4E1341A701B4B05221A7071
:1016900047E000BFA01E0020E6110020100E002031
:1016A00030340020140E00204B0D00203C3400206C
:1016B0008A32002040180020400200202033002001
:1016C00028000020F52401083C1F0020A126010865
:1016D000A0860100E1240108F5250108CD240108B8
:1016E000A92501082C080020492C0020482C0020A6
:1016F0006B2C00202B3400206C2C00203810002094
:10170000940D00202C3400200021217001708EF8EF
:1017100000103C49212008703B493C4C0A703C4A6F
:1017200013703C4A3C4B40201A600CF013FB78B11C
:1017300001234FF0000E90F900008DE80840234689
:10174000364A40210CF0E5FC003018BF012028B9D2
:10175000082006F04FF9324A2F4B1A603B68314A95
:1017600013F4804F1FBF122111702F482A4918BF50
:10177000086042F20101194099B144F620602B49FA
:101780000880980441BF082111702948224948BFA8
:101790000860D90741BF0C21117026481E4948BF77
:1017A000086011781C06A1F10401517040F182809B
:1017B000214B22484FF0000A214CC0F88431514699
:1017C000152200F5C470039384F801A0C4F804A0A6
:1017D000C4F808A014F0ADFE039BDFF868B0053B29
:1017E0005046CBF800300BF07AFED9F800300220DA
:1017F000E3600CF0AFFADE4630BB802006F0FAF86A
:1018000051E000BF6B2C00202B34002090D003004F
:101810006C2C0020EDE600082800002001E70008FD
:10182000552501083C1F0020252501084002002005
:101830004525010835250108501200202C080020FC
:101840004C0100206C010020637890F805C0C44969
:101850000C2202FB03125278624504D00133DBB242
:10186000042BF4D900236370DEF8003062781B7813
:1018700090F90000002B4FF00C0303FB021314BF80
:101880004FF0030E4FF0010E00225B78CDF800E020
:10189000019202210CF03DFCB24B18600028ACD044
:1018A00001200BF01CFE3068AF4B00F5C5721A60CA
:1018B0000BF0BCFE3B68980562D5AC4AAC4C059B6E
:1018C000102623609369AB4843F001039361059BA5
:1018D0000EA91B888DF83A60ADF8383002238DF8D8
:1018E0003B300AF04CF92368A2485B880EA9ADF89A
:1018F000383004238DF83A300AF041F9236801208A
:10190000197A0AF027F923689B4A5B684FF0000AAE
:10191000536117A88DF86160012617938DF860A0B8
:101920008DF862600DF047F923680FA85B7A8DF897
:101930003EA08DF83C3003238DF83D308DF83F609C
:1019400010F05EFCD9F800308C4A3C3B1360D8F8AC
:1019500000304FF4C87243F01003C8F80030884BD1
:10196000A3F89E21874BC8221A80874BE1221A8058
:1019700040F27112854B1A80854B4FF0FF321A608E
:10198000844B854A854C1360854A803313603B68DD
:101990000026D903267040F1B28040F22A39DFF8E0
:1019A00030A2DFF8C8B10EF06BF84FF001084A46DC
:1019B0005046314684F8008014F0BBFDDBF8183047
:1019C000784843F00403CBF818304023ADF83830A2
:1019D00018238DF83B300EA903238DF83A300DF013
:1019E0008BF8DBF81C30704A43F00203CBF81C3054
:1019F0006E4B6F4C1B68ABF6947BB3FBF2F3228803
:101A0000013B22F45C721204120C22809BB21D2254
:101A1000A2852385A4F81480238C23F001031B04E2
:101A20001B0C2384238CA188228B23F0020322F039
:101A3000730212041B04120C1B0C89B242F06002E8
:101A400043EA0803A1802283A6862384238B23F004
:101A500008031B041B0C43F008032383B4F8443031
:101A60006FEA43436FEA53439BB2A4F84430DBF878
:101A7000A83F43EA0803CBF8A83F58460DF003F906
:101A800017A80DF0D5F84B4BCDF860A01793802325
:101A90001C934FF480734FF0100A1D9358464FF477
:101AA000005317A92093CDF864A0CDF868901B9639
:101AB0001E961F9621960DF0C8F8A3890FA89BB219
:101AC00043F40073A381DBF8003043F00203CBF84A
:101AD00000308DF83CA08DF83D808DF83E608DF88B
:101AE0003F8010F08DFB344B1A68344B43F82520AF
:101AF0000135202DF7D109F04FFF09F04DFF3B686C
:101B00005A0540F191801E4C2D4BD4F8CC64042032
:101B10001E600CF01FF90421C4F8D0040CF0F4F896
:101B2000284B84F8D40408201E600CF013F9264BCF
:101B3000082118600CF0E8F8244D84F8D504002141
:101B400028462C2214F0F5FC8E236B704FF07C0994
:101B5000E0234FF07D08EB7085F800903AE000BF7D
:101B6000B48A01081C280020680E002000100240E2
:101B700048010020000C0140000401404401002005
:101B80002C08002016010020140100201C01002058
:101B9000CC0F00208C12002010200020A90700206C
:101BA000602800200008014000366E015800002027
:101BB0000004004034040040FC8E0108AA07002005
:101BC0004C180020A4180020F018002074180020E1
:101BD000CC09002085F82B80954D2C220021284629
:101BE00014F0A7FC8A236B701020A023EB7085F8FB
:101BF000009085F82B80C4F8D8640CF0ABF8102165
:101C0000C4F8DC040CF080F884F8E0042020C4F868
:101C1000E4640CF09FF82021C4F8E8040CF074F898
:101C200084F8EC040FF0A0FC824B834C1B78022B51
:101C300065D1824A00251388322023F040031B041B
:101C40001B0C138013884FF4805623F038031B04B9
:101C50001B0C138013889BB243F0400313809F2317
:101C60008DF83C308DF83D508DF83E508DF83F504A
:101C70000CF079F98DF85D50714D04226E6117A852
:101C80000FA910F0DBFA2E619DF85E309DF85D2003
:101C90001B0243EA02429DF85F301343694A9342B4
:101CA00019D00AD8A2F51A42033A93420CD002F591
:101CB0001A420232934209D01CE0634A934205D093
:101CC0000132934207D015E0202300E080232380D7
:101CD0004FF4807302E04FF4807323806380A38805
:101CE00022881B02A3605343E360584B012283F810
:101CF000ED2404E0002323806380A360E360E468B4
:101D00001CB3E40A26464FF00008A0450BDA08EBA6
:101D100004056D100DF15C09E802494610220AF035
:101D20009FF80F2806DC0BF0E5FD484BF602C3F8E0
:101D3000F0640AE0002359F82320013254D1013322
:101D4000042BF8D12E462C46DFE73B68404A13F4BB
:101D5000002318BF012313700CF0DEF83D4B186010
:101D60003D4B5A791946052A02BF3C4B4FF4C872C5
:101D70001A803B4B4FF47A721A803A4BC8221A8071
:101D8000394A137843F008031370384A137823F064
:101D90000203137040F602033A6813406BB13448F3
:101DA000344B1860344B03201870344B01201870EA
:101DB00033480023038033480380930341BF324BF1
:101DC00004221A71DA7844BF42F00102DA708B689B
:101DD00001223B602D4B1A702D4A137863F07F036C
:101DE000137023B0BDE8F08F05F101082546AAE77E
:101DF000284B00221A7000B210F018FE264910F08D
:101E000069FE1790B4F95A0110F010FE224910F043
:101E100061FE1890B4F95C0110F008FE1E4910F044
:101E200059FE1E49199017A805F0FCFCFFF799B957
:101E3000A91800209334002014000020003800402E
:101E4000000C014018BA20001740EF002C080020B9
:101E50004C3000201802002060100020200E0020CE
:101E60008A340020883400205C180020913400203F
:101E7000D811002044180020A81800204C00002091
:101E8000080F00200A0F002020280020A8070020AB
:101E9000683400204000002035FA8E3CB82C002029
:101EA0009F492DE9F04F0A689E4C02F59C43203370
:101EB00023609D4B89B01E780191C6B19B4909688A
:101EC0008A4240F20381013E1E70FFE0D9F80030E3
:101ED000072D98BF595D964B88BF29461B689548CA
:101EE0009847032D0CD904EB4505A8800136914B8A
:101EF000F5B21A78DFF86092AA421946E6D820E0D7
:101F0000D9F8002005F10E0302EB83039988DA88E3
:101F10000028E8D04FF47A73401A5843531A90FBC4
:101F2000F3F040F6C90300F57A70984205DC40F200
:101F3000EE239842B8BF184601E040F6CA0080B2CE
:101F4000D1E742F201087C4B1B6803EA0808B8FAA3
:101F500088F87A4B4FEA58181B68B8F1000F06D181
:101F600094F8292084F82820754A5078107094F845
:101F700028701FB1724A177887F0010794F82BB0C8
:101F80000326BBFBF6F60F2206EB460684F82A2052
:101F9000C6EB0B06D9F8002091F800A0DFF8C0913D
:101FA000F6B20025554559DA4FEA450C1FB165498F
:101FB00031F8150000E03846918ADFF8A8E1814247
:101FC00002D8D18A81421ED25EF82500554983424B
:101FD00003D25D4931F80C0019E0E8B20392029394
:101FE000049110F0D5FB032D029B039A0FDC04999A
:101FF0004FF0010C91F82AE00CFA05FC2EEA0C0EC9
:1020000081F82AE003E003F596714EF82510B8F147
:10201000000F1CD194F8BC1029F8160031B9BBF19F
:10202000020F14D93F49012081F8BC00B9F8021011
:10203000B9F800000844B9F804100844434980B2D4
:1020400021F8150000B2032190FBF1F080B23E4967
:1020500009F1060921F815000135A3E794F82A20B3
:102060003649A2F10F077A427A4184F8D620384BDC
:102070006AB1384A1268560109D40A68D9689A6068
:10208000521AC82A1DD9012283F8212019E02C4AAE
:102090000120507010700A689968DA605B68521A03
:1020A0009A4282BF2A4B002283F821200025554501
:1020B00007DAE8B210F06CFB234B23F8150001356A
:1020C000F5E794F82B30013384F82B301A4E33683F
:1020D000DD0405D51F4B1B68D80701D40FF0F4FCB5
:1020E000019B1F681C4B1A68907A00283CD0164947
:1020F000137B013831F810001BB1C0F53B6008308C
:1021000080B200B2A0F57A70B0F57A7FA8BF4FF424
:102110007A7020EAE07010F089FC104959E000BFA5
:1021200074340020200D0020383400203434002086
:10213000280000203C1F00204018002038100020FC
:1021400011000020240D00208A320020DE0D002026
:102150003C3400206C0F00203034002000007A4412
:102160004C0D0020940D0020336819043AD5D4F8A2
:10217000D810934B791A002934DB07F59C412031A4
:10218000C3F8D8108F494D798F4931F81550A9B24D
:10219000D57A91FBF5F593F8DC10013101F00F02CF
:1021A00083F8DC201A44034682F8DD50874A825CBB
:1021B0000130134410289BB2F8D11BB293FBF0F00E
:1021C00000B26428A8BF642020EAE07010F02EFC62
:1021D0007F4910F033FD7F4910F07CFC10F066FE63
:1021E0007D4B188033687D4D13F4807F00F00F81A4
:1021F0007B4BDFF8F0919F4205D999F8022012B984
:10220000012289F8022099F80220002A00F0FF80BC
:10221000744A95F8008092F82170C8F380087A1EFD
:1022200057425741704A002F9246116818BF4FF02D
:10223000000BC1F38063019308BF4FF0030B99F8C3
:102240002020052A00F2DD80DFE802F0034E5379FA
:1022500088A5B8F1000F3AD0D4F8F000B4F8F41023
:102260000BF017FE012809D16049614A096812681C
:10227000C988642000FB0122C9F81020019B6BB1C2
:102280005A4A126812794AB10FF09CFF032289F86A
:1022900020204FF47A72C9F81C20D0E7002F40F0BC
:1022A000B080534AD9F8101010684E4A88420AD9B3
:1022B00002920FF087FF029A032182F8201040F665
:1022C000B831D161BBE7012182F82010B7E7019B4B
:1022D0004FF4806013B105F07DFB01E005F069FB70
:1022E0000022C9F810208CE0002F49D10FF06AFFBE
:1022F000A5E727B1052289F82020012000E0384613
:10230000B8F1000F0CD0D4F8F0204FF0020BD189B7
:10231000384A118051809180344909684988D180B8
:10232000334A1168D9F81420914202D8B8F1000F4D
:1023300064D147F23052C9F81C20032221E02A78E8
:1023400042F002022A700FF0BFFB294AD9F81C1094
:1023500012680A44C9F81820042212E0244A9FB1E6
:102360001168D9F8182091424BD9234A92781AB9AA
:10237000DAF80020D30744D42A7822F002022A7027
:10238000052289F820205AE71268D9F81C100A445F
:10239000C9F8182035E01549154A09681268C98836
:1023A000642000FB01224FF48060C9F81020002255
:1023B00089F8202089F8032005F0FBFA3FE700BFE9
:1023C000200D0020DC2C0020EC2C0020FD0D002036
:1023D0000000C84200C07F44D00F0020913400208C
:1023E000404B4C003C3400206C0F00207432002025
:1023F000381000208A3200201100002000287FF4CD
:102400001EAFBBF1000F02D058460BF0DFFD8D4F21
:1024100007F5C370B7F84E110BF03BFD01978346EB
:1024200068B90FF0C5FE884B0022C3F800B0C3F8AE
:1024300004B0C3F808B0854B1A605A609A602B78D4
:102440005F0736D53368D80633D5814B1B78D9065C
:102450002FD4804B9B789BB1019B93F8DE31BBF16D
:10246000000F15D17BB17C4B1A68D4F8F8309B1A59
:10247000002B08DA0FF028FB784B83F8FCB018E04B
:10248000BBF1000F0DD110200BF0A0FD01230EE0D9
:102490003BB1714A4FF47A71126801FB0323C4F80F
:1024A000F83094F8FC3023B10BF078FD002384F869
:1024B000FC30019B93F8DCA193F8DD11B3F896E1B1
:1024C000B3F898C100231846654A800832F91370A2
:1024D00001337745C4BF60F07F00C0B26745B8BF25
:1024E00040F04000042B9146EED194F8FD305B4A59
:1024F000834205D192F8FE30F92B04D8013300E075
:10250000002382F8FE30534B84F8FD009A789846F9
:10251000544FE2B93B68DA0708D5BBF1000F16D17A
:102520002B78DB0713D50FF01FF910E02B78580735
:102530000DD54A4B93F828304BB14B4BDB7833B970
:1025400011B10FF0C1FA02E0BBF1000FF9D094F81D
:10255000FE30424A142BDFF82CB140F0AE8098F8E0
:1025600002301AF1000A18BF4FF0010A6BB392F85B
:10257000FD305F2B11D12B7803F0040303F0FF0132
:1025800013B10FF0A1FA08E00B20039102920BF0B7
:102590001DFD029A039982F8FE10BAF1000F14D0C3
:1025A00094F8FD307D2B10D12B7803F0040303F059
:1025B000FF0213B10FF088FA07E00B2002920BF034
:1025C00005FD264B029A83F8FE202B7803F00403C6
:1025D00003F0FF01002B70D194F8FD301F4A572BF8
:1025E00015D1224B4FF47A721A803368190601D53F
:1025F0000BF06CF81E4B1B685A0742BF1D4A0A219C
:10260000118013F0080358D11B4A138055E030683D
:10261000400739D55A2B37D1184B187820B119708B
:10262000174B01221A7048E092F8FF3083F0010343
:1026300082F8FF300BB10C2000E00D200BF0C6FC3F
:102640003BE000BF60100020102A00203C32002038
:102650005C1800201100002038100020200D002000
:102660008A3200206C0F00203C3400208A34002085
:10267000581800208834002050100020A72D00207A
:10268000A82D0020A80F00205D2B00F02E855B2BCD
:1026900000F02D855E2B00F02C85562B01D105F026
:1026A00055FC98F80230002B00F0F38494F8FD30CC
:1026B0006F2B40F0E8840FF057F83368580732D595
:1026C00094F8FF30A3B12B78590711D5019BB9F9C4
:1026D0000620B3F896319A420ADD3B6813F00103F5
:1026E00001BFAD4A32211180AC4A08BF82F8FF30E9
:1026F0003B68DA030AD5AA4B1A782AB9A94A127894
:1027000012B9A54A3221118001220BE0A54A1378A3
:102710004BB12B7803F0040303F0FF011BB9A24B6C
:10272000117001221A70DBF8009000233B6009F160
:102730007B0809F1CB0A98F8002098F8013018F8C6
:10274000010C9A420BD241460BF06EFB38B118F8DF
:10275000022C012303FA02F23B6813433B6008F1A9
:102760000408D045E7D1914B1B7853B1904B914F62
:102770001A68984612F0020FDFF8509240F03B833F
:1027800033E309F1CA0709F589783A787B7817F8B5
:10279000010C9A4225D239460BF046FB08B397F854
:1027A00004C00C21BB7801FB0C41834A013B03EBC5
:1027B00043031344D1F8082197F803909A427748CD
:1027C0000FD0C1F80831002390F83421C1F80C3142
:1027D000012303FA0CF322EA030381F8049180F841
:1027E000343106374745D0D1744BDFF8E4A1D3F834
:1027F0000080734B4FF0000B1B68029394F8283055
:102800000393DAF80030002B00F0E68293F8009092
:10281000B9F1000F00F0E082DAF8042002998A1A78
:10282000002A0CDB01F5FA72CAF8042094F834117E
:10283000012202FA0BF221EA020284F83421039AFF
:10284000002A00F0C9821AF8042C59780432D2B256
:10285000002940F082825B4931F912105A4AB2F8DD
:10286000942102F1C800814201DD9F7814E0C83A4A
:10287000914202DA99784F420EE094F83421012314
:1028800003FA0BF322EA030384F83431029B03F5C5
:10289000FA73CAF804309FE294F8343143FA0BF328
:1028A000DB0700F19982002FCCBF022001200BF042
:1028B000B3FB09F1FF32394B132A00F28582DFE8BE
:1028C00012F0140023003200440061008900EE0081
:1028D0005301B801ED011C02830244005500890038
:1028E000EE005301C00025018A0198F8001040460F
:1028F0000F44FA2FA8BFFA2727EAE77788F8007075
:102900000BF078FA01201EE098F8011040460F44C1
:10291000642FA8BF642727EAE77788F801700BF0D7
:1029200069FA02200FE098F8031040460F44642F24
:10293000A8BF642727EAE77788F80370D3F838112F
:102940000BF010FA03203946D4E198F805100D2059
:1029500039446429A8BF642121EAE17188F805108F
:102960000BF0C6FAB9F10D0F00F02E8298F80410A2
:102970000E2039446429A8BF642121EAE17188F856
:102980000410B7E198F806100520394481F30801D6
:1029900088F80610AEE100BF802D0020200D002039
:1029A000A62D0020A72D0020A82D00209634002061
:1029B0006C0F002058180020708F0108D40F0020E1
:1029C000381000208A3200206010002020190020DA
:1029D000280E0020D3F83C311A78022A22D138463A
:1029E000049310F023F8A94910F028F9049B596AC0
:1029F00005930FF067FF0021049010F009FA059B82
:102A000048B9049AA249104610F020FA049A059B8E
:102A100010B19F4A00E000225A620F2011460BF0CD
:102A200053FA0AE099780F203944C829A8BFC82171
:102A300021EAE17199700BF05BFAB9F10F0F00F028
:102A4000C381944BD3F83C9199F80030022B1AD1F2
:102A500038460FF0EBFF8D4910F0F0F8D9F8201050
:102A60000FF030FF0021074610F0D2F930B9384698
:102A7000874910F0EBF910B1854F00E00027C9F845
:102A80002070122059E199F8011012203944C82908
:102A9000A8BFC82121EAE17189F801102AE1D3F821
:102AA0003C311A78022A22D1384604930FF0BEFF37
:102AB000774910F0C3F8049B196B05930FF002FFE0
:102AC0000021049010F0A4F9059B48B9049A7049BC
:102AD000104610F0BBF9049A059B10B16C4A00E057
:102AE00000221A63102011460BF0EEF90AE0197B60
:102AF00010203944C829A8BFC82121EAE1711973FF
:102B00000BF0F6F9B9F1100F00F05E81614BD3F8CC
:102B10003C9199F80030022B1AD138460FF086FF0D
:102B20005B4910F08BF8D9F82C100FF0CBFE002188
:102B3000074610F06DF930B93846554910F086F95E
:102B400010B1534F00E00027C9F82C701320F4E0B7
:102B500099F80B1013203944C829A8BFC82121EACD
:102B6000E17189F80B10C5E0D3F83C311A78022ADC
:102B700022D1384604930FF059FF474910F05EF810
:102B8000049BD96B05930FF09DFE0021049010F07B
:102B90003FF9059B48B9049A3D49104610F056F993
:102BA000049A059B10B13A4A00E00022DA63112032
:102BB00011460BF089F90AE0997D11203944C829A2
:102BC000A8BFC82121EAE17199750BF091F9B9F11B
:102BD000110F00F0F9802F4BD3F83C9199F8003099
:102BE000022B1AD138460FF021FF2B4910F026F89E
:102BF000D9F838100FF066FE0021074610F008F9EA
:102C000030B93846224910F021F910B1204F00E0C8
:102C10000027C9F8387014208FE099F81510142097
:102C20003944C829A8BFC82121EAE17189F81510E3
:102C300060E0D3F83C9199F80030022B1AD1384665
:102C40000FF0F4FE11490FF0F9FFD9F828100FF03A
:102C500039FE0021074610F0DBF830B938460C4940
:102C600010F0F4F810B10A4F00E00027C9F82870FE
:102C7000092062E099F8031009203944C829A8BF47
:102C8000C82121EAE17189F8031033E000002041F6
:102C90000000C842200D002000007A44D3F83C9187
:102CA00099F80030022B1AD138460FF0BFFEB44914
:102CB0000FF0C4FFD9F834100FF004FE00210746CE
:102CC00010F0A6F830B93846AD4910F0BFF810B191
:102CD000AB4F00E00027C9F834700A202DE099F8C6
:102CE0000D100A203944C829A8BFC82121EAE17182
:102CF00089F80D100BF0FCF866E0D3F83C9199F8D8
:102D00000030022B1DD138460FF090FE9D490FF088
:102D100095FFD9F840100FF0D5FD0021074610F0BF
:102D200077F830B93846964910F090F810B1944FC2
:102D300000E00027C9F840700B2039460BF0C4F8BA
:102D400042E099F817100B203944C829A8BFC821C0
:102D500021EAE17189F81710CCE7012934D198787C
:102D6000894B33F91230B3F5617F05DB40F633024E
:102D70009342A8BF134601E04FF46173B9F10C0F01
:102D800022D14FF4966292FBF0F0A3F5617393FBAE
:102D9000F0F37E4ADFB21378BB4215D0042F34BF64
:102DA0003B4602231370019A09FB0323784A03F27E
:102DB000B67313600CF0A3F9484639460BF098F847
:102DC000781CC0B20BF028F994F83421012303FADF
:102DD0000BF3134384F834310BF1010BBBF1040FF7
:102DE0000AF10C0A7FF40DADC0E43368D80510D5A4
:102DF000684BDB786BB13B6899070AD5B9F80030AE
:102E000013F0010A0AD10FF0D3F9012004F0E2FD1A
:102E100004E0012004F0CDFD012300E00023D8F8F8
:102E2000002052070DD563B1012004F0C2FDB9F8AE
:102E300000309B0708D40FF0BBF9022004F0CAFD54
:102E400002E0022004F0B5FDB9F80030524A13F058
:102E5000030F4FF0100114BF516111613A6812F075
:102E60000A0F27D0D8F80020D00609D559070AD470
:102E7000042004F0AFFD494B1B88A4F8403102E068
:102E8000042004F096FDD8F800309A0607D5B9F86A
:102E900000305B0606D4402004F09CFD02E0402098
:102EA00004F087FDD8F80030580642BF3B4B1B8822
:102EB000A4F842313B68990609D4D8F800301A05C5
:102EC00040F1B0804FF4807004F084FDAEE0344BEC
:102ED0001B789B076ED5334B1B78042B6AD9D8F827
:102EE000003013F4007A0FD0B9F80030DF063AD47E
:102EF000102004F06FFD202004F05BFD2A48011D26
:102F00000AF04EFB02232AE0B9F8007007F0100720
:102F1000BFB22FB1102004F04CFD012784F844A16A
:102F2000D8F80030580512D5D4F848311F495A89CD
:102F3000B1F90030002BB8BF5B42934207DAB1F918
:102F40000230002BB8BF5B429342C0F20B81B9F84C
:102F50000030990608D5202004F02BFD002384F8CA
:102F60004431012700E0002794F84C319BBB0E2030
:102F70000BF02CF80E4B012283F84C212BE000BF04
:102F80000000C84200007A448A320020F92E002056
:102F9000D40F00203C340020000C014050100020D1
:102FA0005C18002062180020DC0F00205810002060
:102FB000200D0020B9F8003003F03003002B3FF45F
:102FC0007CAF102004F0F5FC202004F0F2FC00237C
:102FD00084F8443102E0002F3FF46FAF0022144622
:102FE0006D4B002023F814006C4B191D03F10A07E8
:102FF00021F814000021D15117447860B96023F8FA
:10300000140003F132075A33D151D15017441344FD
:103010007860B960586099601432002C7FF44DAF2D
:103020000124DDE74FF4807004F0C3FC5C4B5A7957
:103030001C46082A01D00E2A02D1402004F0B9FC17
:1030400033685A0540F1A48094F81C321BB92B78E0
:1030500013F0040F03E0D8F8003013F4002F0BD066
:10306000504B00221A703C200BF0B6FB002800F0F9
:103070008F800DF003FAF6E70EF076FA09B0BDE89E
:10308000F04F05F08EBCBAF1000F02D07E2B3FF45A
:1030900012AB94F8FD30972B06D1434B4FF4C87216
:1030A000A3F80021FFF709BBA72B06D13F4A1378ED
:1030B00043F004031370FFF700BB0022BB2B079201
:1030C00001D1022303E0B72B04D14FF6FE73ADF814
:1030D0001E301FE0BE2B01D1022303E0BD2B30D1F7
:1030E0004FF6FE73ADF81C3014E0012002E0022020
:1030F00000E003205FFA80F8019A08F1FF3382F8BC
:10310000B43704F0A9FC04F04DFD40460AF084FFFA
:10311000FFF7D3BADBF80030BDF81C10B3F8582025
:103120000A44A3F85820BDF81E10B3F85A200A44E8
:10313000A3F85A2004F00AFF002384F8FE30FFF7BA
:10314000BCBA792B04D11A4AD37823F0010306E0E4
:103150007A2B7FF4B2AA164AD37843F00103D370D6
:10316000FFF7ABBAB9F800309B063FF5FDAE202063
:1031700004F030FC0F4B10481A685B68011D436077
:1031800002600AF00DFA084B012783F84471EBE660
:1031900009B0BDE8F08F00BF8C3400206E0E002017
:1031A000601000206D2C0020200D00205C180020F5
:1031B0002028002064180020E40F0020BA4B2DE9DD
:1031C000F04FB3F90610B94B91B01F6801937A899B
:1031D00091420EDBB1F5FA6FFC79BFBF8B1A6343E6
:1031E000A2F5FA6493FBF4F4ACBFC4F16404643454
:1031F00000E06424AE4BAF4A1868B2F894A10546CB
:1032000092F95E21049092B205920293002240F25C
:10321000E630A54B4FEA420B33F912300393CAEB69
:10322000030303F2F316864203D8002BB8BF5B42B8
:1032300001E04FF4FA73022A049E4FF064002FD08D
:1032400096F811E1BEF1000F04D07345CCBFCEEB70
:103250000303002393FBF0FCDFF8A0E26FF06309A7
:103260003EF81C8009FB0C390CF1010C3EF91CE006
:103270000FFA88FCCCEB0E0E0EFB09FE9EFBF0FE57
:103280008D4EC64426F80BE0BE18367973438B4E3C
:1032900093FBF6F364339BB2634393FBF0F02DE0B2
:1032A00096F812E1BEF1000F04D07345CCBFCEEB0F
:1032B0000303002393FBF0F0DFF82C826FF0630C24
:1032C0000CFB003938F910E0013038F91000002B00
:1032D000CEEB000000FB09F999FBFCF90598CEEB59
:1032E000090909FB00F97448B8BF5B42A0F80490D3
:1032F000B8794343714893FBF0F064306B784FF03A
:10330000640E434393FBFEF36D4E022AB354EB7AF3
:103310006C4E00FB03F393FBFEF3B3546B7D664EE0
:1033200000FB03F090FBFEF0674B9854674B0FD106
:1033300083F802E0039B53450EDB5E4CB4F8962104
:10334000914215DBB1F5FA6FA8BF4FF4FA6110E0B6
:103350009C54039B534504DA36F80B305B4226F845
:103360000B300132032A05F101057FF450AFE4E789
:103370001146891A4FF47A735943C2F5FA62B1FBC8
:10338000F2F1642791FBF7F2DFF874E16FF0630369
:103390003EF8120003FB021101323EF9122003B283
:1033A000D21A514391FBF7F30344F380484B424D4B
:1033B0001B8858063BD5474A474B10881B88181A6C
:1033C00000B20FF033FB45490FF084FB074604F0D1
:1033D0001FFA8046384604F0A8F90746B5F90200FE
:1033E0000FF024FB8146B5F900000FF01FFB4146AA
:1033F00082460FF06FFB3946834648460FF06AFB62
:10340000014658460FF05CFA0FF02AFD414628802D
:1034100048460FF05FFB3946804650460FF05AFB96
:10342000014640460FF04EFA0FF01AFD68802C4F0F
:103430003B68990740F19F8045F20721294B2A4DAF
:103440001A686B69D31A8B4240F395806A610BF05E
:10345000B3FD264BDFF8AC901A789846032AB9F8EA
:10346000003051D10A2B59D90023282088F8003088
:103470000AF079FD0BF0A0FD1D4B18880BF086FDBE
:103480001C4B1A68D37890FBF3F0013008281A4BD4
:10349000A8BF08201870537980B243432B83137957
:1034A000584368833AE000BF8A320020D40F0020DE
:1034B000A80F002060100020581000200CFEFFFF15
:1034C00020320020FE0E002038320020E4290020A7
:1034D00020190020620E00205010002035FA8E3C8A
:1034E0004018002074340020F00E0020A81800209E
:1034F000F42C0020441800204C000020AA2A0020B0
:10350000922A0020481800200A2B07D803239A4A41
:1035100088F80030002313702B836B8398F80030F9
:10352000964A012B0CD002D3022B1BD023E02A8B0E
:10353000B9F800309A421EDD012388F800300FE010
:10354000B9F800106B8B8B4202DD022313700FE081
:103550008B4B1B8B0133994202DD002313700AE071
:10356000082006E06B8BB9F8002001339A42E3DCB7
:1035700007200AF02BFD3D682A0573D5814B804F4B
:103580001B68FA69C2EB030845F20722904569DD22
:10359000FB617D4BB6F906B0D3F80090B4F84E113C
:1035A00099F80A30ABF57A7B012B784E03D042D3E1
:1035B000022B20D041E0764B396A5A7B754B0820AC
:1035C00033F8122091FBF0F392B2C91A8B183B62C8
:1035D00093FBF0F3BA8440F6E4429BB25343B9F84C
:1035E0000820C2EB13334FF47A725343B9F9062023
:1035F00093FBF2F320E0684BB9F808A01B78C6F8FB
:1036000000A05B0719D565480AF043FC20B915F006
:10361000100F18BF4FF0000B0BFB0BF3322293FB84
:10362000F2F3B9F906205B445A434FF47A7392FBE4
:10363000F3F3534400E0002333603368D7E90A0111
:1036400003FB08F84FF47A7398FBF3F810EB0800CB
:1036500041EBE8710023C7E90A01514A0FF046FC2B
:10366000504B1860504E3368DF0427D52D0622D505
:103670004E4B1B7898071ED54D4B187804281AD945
:1036800000224C4B0521D718951C4FF00A0E122A28
:10369000D154E9B287F801E004D0B0EB510F2A46CB
:1036A000EFD800E014215A18322002F8010CFF2252
:1036B0005A540F2000E00A200AF088FC3E4D2A6888
:1036C000002A51D03D4B3E4F1868396898468142D8
:1036D0004AD83C4BDFF8F89019785268E1B94FF0BE
:1036E000010A83F800A0B9F80030D35C23B3504638
:1036F0000AF04EFC344B83F800A00FF09FF8B9F8A5
:103700000030CBB92B681B78053B534514D80AF021
:1037100003FC2E4B18600FE04FF0000A83F800A066
:10372000B9F80030D35C3BB150460AF031FC264B6F
:1037300083F800A00FF082F82B68B9F800205B68CE
:1037400023499B5CFE2B02D100230B800CE0FF2B56
:1037500002D10AF023FC07E0D8F800000A2505FB97
:10376000030301323B600A800B4D2B78590733D598
:10377000184B08225A6166E04C000020A81800206F
:10378000F00E00207434002044180020501800204F
:10379000DC2C0020EC2C002091340020E6110020CD
:1037A000407E0500541800206C0F00205C1800209B
:1037B00062180020182F0020C82A0020381000208E
:1037C000C02A0020BC2A00206034002004320020DF
:1037D000C42A0020000C01403268D2075CBF43F0CD
:1037E00001032B709A4B9B4A1B781B075EBF2B78FB
:1037F00023F001032B70984B1B6813F0040F02D0C9
:103800009649098851B99649098809B19F0705D495
:10381000944B1B88003318BF012333B1022313706C
:103820002B7823F001032B7004E02978CE0758BFD2
:10383000022313700AF070FB8B4B1B68C01A002820
:1038400001DB0EF0FBFF0DF08FFE884B1E7803931B
:10385000002E00F0B480864F3B68002B00F01087EC
:1038600038680AF0AEFC002800F00A87804B814CD3
:1038700018680AF0A3FC092801D03F2852D14FF064
:1038800000094D462668DFF8148236B17A48D8F828
:103890000010324612F09AFE10B9C14605B94546ED
:1038A000764B08F110089845EFD3EDB1D5F800C07C
:1038B000D9F8008023681CF803E018F8030070456D
:1038C00012D15A1C6C4958B92D2B09D8DFF8A4E144
:1038D000CEF800204FF0200E01F803E0885403E0FA
:1038E00001F803E02260E5E723680BB14D4510D0F5
:1038F00063480CF0C9FE4D4507D855F8100B0CF085
:10390000C3FE09200CF0B8FEF5E75E480CF0BCFEE3
:10391000002623689E42A3D2574B985D0CF0ACFE64
:103920000136F6E72368002B40F08E86042840F02D
:10393000CD86514808F024FE00F0A2BEDFF858A161
:10394000DAF800000AF03DFC30B3DAF800000AF0C3
:1039500035FC4D4B83461B6893F84820002A3DD127
:10396000242840F09F80012283F84820DFF818A126
:10397000DAF8003093F848B0BBF1060FDED193F8C7
:10398000490001F06BFF002800F0B6800CF0C4FD88
:103990003B68002283F848203C4B93F8353053B104
:1039A00058F8060006F062FB0AF08CFD04F02AF8D5
:1039B000374A384BDA604C36982E00F06186DFF8D3
:1039C000E08006EB080393F84A20012AF3D12E4F3A
:1039D000314A3B6056F808301360AFE7012A04D142
:1039E0004D2814BF00220222BEE7022A04D13C283F
:1039F00014BF00220322B7E7032A0AD140284FF060
:103A000000029FBF1A71DA715871987198BF042231
:103A1000AAE7042A08D19A7983F8490080EA020BC0
:103A200083F806B005229FE7052A9FD159791A79B4
:103A30009142997906D941409971511C19711344E9
:103A4000187293E781420CBF062200228CE700BF68
:103A50005C180020603400205818002088340020B2
:103A6000200E00208A340020643400209634002088
:103A7000142F00205C2800202C280020DC9B01084B
:103A8000B8B20108BDB2010800190020F00E0020F4
:103A90000400FA0500ED00E004190020FC9901087B
:103AA000A01E00202B78DFF85C9359073FF55EAF2E
:103AB0002328DAF8003012D1039A01211170C44989
:103AC000C4480B60C4490B630CF0DEFDC3480CF026
:103AD000DBFD99F8003043F0020389F80030C04B59
:103AE0001B681B785B4501BFBE4ABF4B1A60BF4ACB
:103AF00004BFBF4BDA6039E7DAF8002092F849904A
:103B0000B9F14C0F00F0818400F2A480B9F1350FB7
:103B100000F0458242D8B9F12B0F00F04E8424D832
:103B2000B9F1250F00F0248405D8B9F1230F00F076
:103B3000FD8100F0C7BDB9F1270F00F02084B9F175
:103B4000290F40F0BF850CF0C3FCA4F87E010CF0F7
:103B5000BFFCA4F880010CF0B1FC84F882010CF0E9
:103B6000B7FCA4F8840100F06ABDB9F12F0F00F092
:103B7000CD8405D8B9F12D0F00F0238400F0A2BD4B
:103B8000B9F1310F00F0D784B9F1330F40F09A85C5
:103B90000CF094FC84F8900100F051BDB9F1410F94
:103BA00000F06E841CD8B9F1390F00F0F58305D808
:103BB000B9F1370F00F0718400F084BDB9F13C0F0A
:103BC00000F0F780B9F13E0F40F07C850CF076FCF8
:103BD00084F8DE010CF072FC84F8DD0100F02FBDEA
:103BE000B9F1440F00F0DB8427D8B9F1430F40F05E
:103BF00069850CF063FC0023A36060710CF072FC1B
:103C0000A3681843A0600CF059FC84F88E010CF0F6
:103C10005FFCA4F858010CF05BFCA4F85A010CF00E
:103C200057FCA4F85C010CF053FCA4F87E010CF0E6
:103C30004FFCA4F8800100F002BDB9F1480F00F07C
:103C40002E83B9F14A0F40F03D850CF041FCA08174
:103C500000F0F5BCB9F1D10F00F04B8328D8B9F1D1
:103C6000CC0F00F0C38113D8B9F1C80F70D005D8BC
:103C7000B9F14E0F00F0D68300F024BDB9F1C90FA1
:103C800000F01083B9F1CA0F00F0BE8000F01ABD39
:103C9000B9F1CE0F00F0F682C0F0EB82B9F1CF0F90
:103CA00000F0F881B9F1D00F00F0D88200F00ABD21
:103CB000B9F1D90F00F0C1820ED8B9F1D30F41D0BC
:103CC0002DD3B9F1D40F00F03F82B9F1D60F40F0F7
:103CD000F9844FF0000916E2B9F1F20F00F0828288
:103CE00013D8B9F1EF0F40F0ED84DFF81491D9F853
:103CF00000A00CF0EDFBAAF85A00D9F800900CF0E7
:103D0000E7FBA9F8580000F09ABCB9F1F30F00F0F6
:103D10004B84B9F1FA0F00F0BE8200F0D3BC2B78CF
:103D200003F0040303F0FF09002B40F088840CF03B
:103D3000C5FB022884F8B40740F296822D4B83F825
:103D4000B49791E20CF0C4FB2B4B188000F077BCC9
:103D500092F805904FEA5909B9F1120F03D905F00D
:103D600085FB00F06CBC4FF0000ACA4507D20CF08E
:103D7000AFFB07AB23F81A000AF1010AF5E74A4640
:103D800000234B4507DA07A931F813001B4921F836
:103D900013000133F5E7122A05D0184B002123F850
:103DA00012100132F7E70C4B012283F8342000F0A7
:103DB00046BCDFF84C90D9F800A00CF07FFB8AF8E5
:103DC0000000D9F8003018780AF06AFC00F037BC1F
:103DD000142F0020EDB20108F00E0020BDB2010842
:103DE000702C0020EFBEADDEF04F00200400FA057D
:103DF00000ED00E060100020600E0020683300201D
:103E0000A80F002091340020C44B1A6899461278FC
:103E1000022A6ED14FF00009DFF800A309F1080B68
:103E2000DAF8003004930CF049FB0EF0FBFDBC49BE
:103E30000EF004FF049B43F82B00DAF800B00CF0FE
:103E40003DFB09F10A030BEB830B0EF0EBFDB549CB
:103E50000EF0F4FEDAF80030CBF8040004930CF016
:103E60002DFB0EF0DFFDB0490EF0E8FE09F10E0B60
:103E7000049B09F10109B9F1030F43F82B00CBD1E1
:103E8000B9F1070FDAF800B01AD10CF017FB0EF0F9
:103E9000C9FDA3490EF0D2FECBF84400DAF800B019
:103EA0000CF00CFB0EF0BEFD9D490EF0C7FECBF8EA
:103EB0004800DAF800B00CF001FB8BF84C0012E07F
:103EC0000CF0FCFACB448BF80100DAF800B00CF0EF
:103ED000F5FACB448BF80B00DAF800B00CF0EEFAF0
:103EE000CB448BF8150009F10109B9F10A0FC7D1CC
:103EF000A5E34FF0000AD9F800B00CF0DFFAD34484
:103F00008BF80100D9F800B00CF0D8FAD3448BF844
:103F10000B00D9F800B00CF0D1FAD3440AF1010A31
:103F2000BAF10A0F8BF81500E5D188E30CF0C6FA58
:103F3000132883463FF613AFDFF8E0A1DAF80090CC
:103F40000CF0BCFA002379490C2202FB0312117A0F
:103F5000814220D1137809EB8B0989F879300CF074
:103F6000ADFA89F87A000CF0A9FA89F87B000CF018
:103F7000A5FA6F4A6F4B89F87C001A60DAF80000E6
:103F80006D4B00211860793009F072FF6B4B80F0A7
:103F90000100187053E301331C2BD4D1DFE60CF081
:103FA0008DFA0B2881463FF6DAAE5C4BD3F800A0C1
:103FB0000CF084FA03283FF6D2AE0BFB09AB8BF86A
:103FC000CE000CF07BFA8BF8C9000CF077FA8BF876
:103FD000CA000CF073FA8BF8CB000CF06FFA8BF878
:103FE000CC000CF06BFA8BF8CD0028E35379092B49
:103FF0007FF6B5AE019BD3F800900CF05FFA019B01
:1040000089F80000D3F800900CF058FA89F8010004
:104010000CF054FA019B64281B68A8BF6420187137
:104020000CF04CFA019B64281B68A8BF64205871EF
:104030000CF044FA019BFF281B68A8BFFF20987171
:104040000CF03CFA019B6428D3F8009028BF642050
:1040500089F807000CF032FA019B89F80200D3F8C6
:1040600000900CF02BFA019B89F80300D3F8009024
:104070000CF02EFADAF80030A9F80A005B790A2B66
:1040800040F2DD822E4BD3F800900CF017FA89F83D
:104090000800D4E20CF01CFA6FF4AF6283189BB2F4
:1040A000C62B98BFA4F894010CF012FAA4F84001B2
:1040B0000CF00EFAA4F842010CF00AFAA4F844013C
:1040C0000CF006FAA4F8D6010CF0F8F984F8EB012C
:1040D0000CF0F4F90CF0F2F984F8EC010CF0EEF9C4
:1040E00084F883010CF0EAF984F890010CF0E6F909
:1040F0000A4BD3F800900CF0EBF900EB8000400085
:10410000A9F8560048E10CF0E3F90E4B23F819002A
:1041100009F10109B9F1080FF5D190E2A80F0020CB
:10412000000020410000C84200007A44DC8F0108F2
:10413000A0110020580E00205C0E0020130000206B
:10414000D40F0020FA2E002053790F2B7FF407AEF6
:104150000CF0B4F9072881463FF601AE029BD3F874
:1041600000A00CF0B5F90E2303FB09F9029BCA4429
:10417000AAF81901D3F800A00CF0AAF9CA44029BCE
:10418000AAF81B01D3F800A00CF0A2F9CA44029BC4
:10419000AAF81D01D3F800A00CF090F9CA44029BC4
:1041A0008AF81F01D3F800A00CF088F9CA44029BDA
:1041B0008AF82001D3F800A00CF080F9CA44029BD1
:1041C0008AF82101D3F800A00CF078F9CA44029BC8
:1041D0008AF82201D3F800A00CF084F9D144C9F880
:1041E00023012CE20CF06AF90F2881463FF6B7ADA7
:1041F0000CF064F9C9EBC90904EB090383F8D0009A
:1042000003F1D0090CF05AF989F801000CF056F9C5
:1042100089F802000CF052F989F803000CF04EF90D
:1042200089F804000CF04AF989F805000CF046F909
:1042300089F806000AF086F901E20CF049F9A4F8C1
:1042400048010CF045F9A4F84A010CF041F9A4F832
:104250004C010CF03DF9A4F84E01F0E12B785B071E
:1042600000F1ED810AF090FF03F0F6FB03F09AFCF9
:10427000E5E12B78580700F1E281D44B4FF4C87286
:104280001A80DCE12B78590700F1D981D04A1378E4
:1042900043F004032BE02B785A07E5D512E209F02E
:1042A00077FBCCE10CF00AF9C94B1A7810B142F057
:1042B000020201E022F002021A700CF0FFF8C54B76
:1042C000DFF8349318700CF00DF9C9F800000CF009
:1042D00009F9C9F804000CF0FBF8BF4B18800CF08A
:1042E000F7F8BE4BBE4A1880137843F002031370F0
:1042F000A5E10CF0E3F804900CF0F4F883460CF020
:10430000F1F882460CF0EEF881460CF0E1F80CF082
:10431000DFF80CF0D3F8049BA3B9B24B1020C3F81C
:1043200000B0C3F804A003F044FBA94A137843F09B
:1043300001031370B9F1000F00F08181AA4BC3F89B
:1043400000907CE1102B40F07A81A84BC3F800B0BC
:10435000C3F804A0B9F1000F02D0A34BC3F800903A
:10436000A248A34B0222011D1A7009F019F966E157
:10437000A0600CF0B7F8A3681843A0605FE10CF0F0
:10438000A7F8A4F858010CF0A3F8A4F85A010CF00F
:104390009FF8A4F85C0152E10CF090F884F87801E1
:1043A0000CF08CF884F87C010CF088F884F87B0120
:1043B0000CF084F884F87D0141E10CF07FF8607125
:1043C0003DE10CF07BF884F88E010CF081F8A4F844
:1043D00098010CF07DF8A4F894010CF079F8A4F899
:1043E00096010CF06BF83B6884F88F015B79DFF87D
:1043F0000C92082B40F223810CF06AF8A9F89A017C
:104400000CF066F8A9F89C0119E10CF057F884F853
:10441000D4010CF053F884F8D5010CF059F8A4F845
:10442000D6010CE192F805900323B9FBF3F9B9F139
:10443000120F3FF694ACDFF8C4A14FF0000BCB4550
:1044400080F0FD800CF03AF88AF89E010CF040F8FC
:1044500040F2ED23984205DD40F6CA039842A8BF1A
:10446000184601E040F2EE20A0F2EE20192390FB66
:10447000F3F00BF1010B8AF89F010AF1020ADEE763
:1044800081460CF01BF804EB090309F10109B9F1AD
:10449000080F83F88601F4D1D1E053794FF0070A71
:1044A000B3FBFAFACAEBCA029B1A13F0FF0F7FF4B0
:1044B00056AC5FFA8AFA0AF1FF3A5FFA8AFABAF161
:1044C000FF0F00F0BC800BF0F9FF5FFA80FB4FFAA2
:1044D0008BF009F005FC814600283FF440AC80F8E1
:1044E00000B00BF0F5FFA9F802000BF0E7FF89F828
:1044F00004000BF0E3FF89F805000BF0DFFF89F8FB
:1045000007000BF0DBFF89F80600D4E7DFF8EC903A
:1045100009F1400A0BF0DCFFA9F8AC020BF0CEFF6A
:1045200089F8AE020BF0CAFF09F1040989F8AB0261
:10453000D145EFD183E00BF0C1FF1F2881463FF644
:104540000EAC3B685B79082B7FF409AC0BF0C0FF25
:1045500009F18A0904EB890900F03F00A9F8060077
:104560000BF0B6FFB9F80630800100F4FE50184396
:10457000A9F806000BF0A2FF000189F804000BF077
:104580009DFF99F8043000F00F00184389F80400EB
:104590000BF094FF89F805000BF072FA4FE0154B11
:1045A000012283F835204AE00BF088FFFF2882467D
:1045B000DFF84CB026D105F00FFD01200BF0D0FF45
:1045C0009BF800000BF097FFFFF7E0B9200E0020EA
:1045D0005C18002062180020601800205E1800207F
:1045E000DA0F0020DC0F0020EC0F0020E40F002089
:1045F000640E0020F00E00206418002060100020DF
:10460000F82E00209BF800209042BFF4A8AB0020B9
:104610000BF0A6FF0BF080FF3A68106805F026FD4E
:104620005D4B18680BF02AFF504605F047FC0A2046
:1046300009F099FC04F0B5F93A6882F84990002035
:104640000BF08EFFFFF7A2B90C2841D00A2843D106
:10465000524D53480CF018F82846232111F09FFFC3
:1046600008B1401B20602368002B38D14B48002143
:104670003022236011F05DFF039B1B78002B61D17A
:10468000484B1B689B0614D5474B48491B688A6BEF
:104690009A1A002A0DDB464A1278042A09D903F532
:1046A000123303F5F873434A8B63D36883F0100326
:1046B000D360414B9B68002B6BD0404811B0BDE8E4
:1046C000F04F184704F0D2FEFFF760B90C2847D12D
:1046D0003B480BF0D9FF35E00D2835D1B8E75A1E1D
:1046E000A95C202901D11346BEE72C4A0021236092
:1046F000D154344B344DD3F80090D5F800A0DFF8F6
:104700009C80504611F059FF0646514632464046BD
:1047100011F05CFF2D4A28B918F806304B445B783D
:10472000580703D010359542E7D306E0954204D2EE
:10473000701CEB684044984702E025480BF0A4FF4A
:10474000002393E7234807E07F280DD1134A013B5C
:10475000002121482360D1540BF096FFFFF780B869
:104760007F2804D1FFF77CB82F2B3FF679A8A0F162
:104770002002D2B25E2A3FF673A813B920283FF474
:104780006FA85A1C2260054AD0540BF075FFFFF742
:1047900067B811B0BDE8F08F041900202C28002064
:1047A00035C001085818002074340020F00E002095
:1047B00062180020000C0140501F00202C0F002028
:1047C000C2B201085C000020FC990108DC9B0108D2
:1047D000CDB20108BDB20108E9B201089148F0B5B7
:1047E0000368914A9C8AA4B2E1B211F0010F2ED065
:1047F000198821F400610904090C1980198889B20B
:1048000041F48061198000211170517899B191783B
:1048100011B9D178FF290ED10121917011790229A6
:1048200001BF198889B241F400611980517941F0C2
:1048300001011982E1E0517901F0FE011982D3787A
:10484000FF2B00F0DA80784BFF211970D5E08E073E
:104850003AD5BFF35F8F1479E4B2012C13D15178AC
:1048600089B1917879B1198821F480610904090C22
:104870001980BFF35F8F198B1988947189B241F445
:10488000007119801BE0198BBFF35F8F14796649A3
:10489000022C0AD14C7844B1897831B1198821F4BD
:1048A00080610904090C1980A1E014795E49032C88
:1048B00005D14C781CB18978002940F098809988FE
:1048C00089B241F4806197E04D0756D5012191717D
:1048D0005178002937D09178002934D011791C887B
:1048E000022911781DD924F480642404240C1C802E
:1048F0001E8A9568CCB2F6B249B26E54198889B254
:1049000041F4007119800168A31C13700B8A0134F3
:10491000DBB264B22B558B889BB243F480638B80EF
:1049200026E0A4B244F400741C801D8A9668CCB2C0
:10493000EDB249B275541B8A611C49B2DBB2033433
:104940007354147014E09178374C09B9217B41B14C
:10495000198889B241F400711980137801331370FA
:1049600006E0198889B241F4807119800123A3708F
:1049700001680B88DB05FCD43FE001F0400101F049
:10498000FF05E1B114781F8A9668E5B2691C64B22C
:10499000FFB23755C9B21679117049B2CC1CA64284
:1049A00001BF9C8824F480642404240C08BF9C80EC
:1049B00013798B4221D11C4B02351D701DE0270657
:1049C0001BD511784CB2661C0AD0156901312C5DDB
:1049D000C9B21C821479117049B28C420DD106E023
:1049E000D17815701982517809B9117929B9998846
:1049F00021F480610904090C9980137992F900402F
:104A000001339C4208490CD100238B708B7933B160
:104A100001688B8823F440731B041B0C8B800023DC
:104A20001375F0BD14280020300F00202DE9F04F41
:104A300087B06C4C02916C4922888E690546C2EBA6
:104A400026135B435200C2EBE602B4F902601B136B
:104A50005643B4F90420B4F90A0053439B1303EB03
:104A6000E62606EB860380331B12B6F5FA384FEACA
:104A7000E6770493CB6947F1FF39A8FB08AB0393B2
:104A800008FB09F3B4F908200BEB430BE389A6619B
:104A90000593D31708FB03F102FB0911A8FB0223BE
:104AA0000B44C1171F030AFB01F300FB0B33AAFBE6
:104AB00000011603194447EA1257020A42EA01624A
:104AC00092194FEA2123E6887B410032A2FB0601BE
:104AD00043F5004306FB03114B100093CB170193E2
:104AE000DDE900231343B4F810E0B4F80CC06DD036
:104AF0000FFA8EF0C1170AFB01F1AAFB002300FB9D
:104B00000B11BDF914600B44F71708FB07F106FB06
:104B10000911A8FB06670F4479047004801841EA64
:104B2000D6315941039B0FFA8CF8C3F5801E7246AB
:104B3000D317002212184FEACE764FEAC3774FEA16
:104B4000C8034B4147EA5E07B61A67EB030740F616
:104B50003543A6FB030103FB0711DDE900230EF03B
:104B6000C5F9B4F916204E1302FB06FE470B47EABF
:104B7000C147D31707FB03EEA2FB07235643734439
:104B800007FB0366A2FB07233344560E46EAC3160F
:104B90008219B4F914604FEA636741EB070371436C
:104BA000F71700FB0717A6FB00013944C60C46EABD
:104BB000413692194FEAE1474FEA1221B4F9122027
:104BC0007B4141EA036113010B4400E000230DB176
:104BD0001B0A2B60029B13B11A46049B136007B09B
:104BE000BDE8F08FE41F0020300F002070477047B1
:104BF0006B4B6C4A2DE9F04F5E89146A4FEA062A26
:104C0000B4EB0A0A9C884FF000054FEA04481C895F
:104C10004FF0000BA4FB0A6765EB0B0B04FB0B7753
:104C2000F40944EA476418EB04065C884FF0000975
:104C30004FEAE7154FEAC438DC8849EB050787B02F
:104C4000CDE90467A4FB0A6704FB0B77340A44EA46
:104C5000076418EB04064FEA27259C894FF00009EA
:104C600049EB0507CDE90067AAFB046704FB0B7756
:104C7000F40D44EA472414F5FA664FEAE75545F186
:104C80000007B6F5FA6F77F10003CDE902679646A3
:104C900066DADDE90489A4FB046704FB05F34FF041
:104CA000050C07EB4307A6FB0C230CFB07335F1037
:104CB0004FEA3206B8EB06084FEA920646EA8376D8
:104CC00069EB07099F10DDE90023921B63EB0703E3
:104CD000CDE90023DDE90267334A4FF0FF33964206
:104CE00077EB0303CDE9048927DA40F6AC520023C1
:104CF000A4185D4104FB05F3A4FB04456FF0060214
:104D000005EB4305664202FB0566A4FB0223334420
:104D100018EB020649EB0307CDE904670B26A4FB59
:104D2000062306FB0533DDE900455B104FEA32023E
:104D3000A41A65EB0305CDE90045DDE902450AFB50
:104D40000BF3AAFB0AAB0BEB430B4FEADA7242EA16
:104D50004B02A41A4FEAEB7365EB0305CDE902455C
:104D6000DEF82440009B019DA4FB032304FB0533D4
:104D70004FEA525848EAC3284FEA6359DDE9042351
:104D8000B8EB020269EB03039946D30B43EA4943AC
:104D900000B1036009B1029B0B6007B0BDE8F08F62
:104DA000781F0020300F002024FAFFFF2DE9F0418A
:104DB000324C334D62892B8DB4F904809A1A2389C1
:104DC000B4F902E05A43B4F91230D613B4F91420FE
:104DD000DB02324493FBF2F232440A26E26156438C
:104DE000A2F57A6202FB02F3B4F90EC002FB0EFEDA
:104DF00002FB08F2B4F90C801B130CFB03FC03FB51
:104E000008F31B1403EB62320232E388921002F5BE
:104E1000004253434CF25032B4F920704FEAEE2E68
:104E2000B4F900400EEBEC2C0CEB8404BC40ED6AB2
:104E30000234A5EBA4043A4162434FEAD3384EBF93
:104E4000B2FBF8F35400B4FBF8F340F6DE3448BF8D
:104E50005B001A12524362430A4C08365C43241426
:104E600004EB224202F6CF62361103EB221300B1AB
:104E7000036001B10E60BDE8F08100BF8C1F00200F
:104E8000300F002043E3FFFF13B50C4B04465B6873
:104E90001B20022101AA984770B19DF804209DF8BB
:104EA000053043EA022303F54E5310334FF48C725E
:104EB00093FBF2F32333238002B010BD641F002064
:104EC00037B5104B04465D68187806216A46A84736
:104ED000A8B19DF800209DF80130012043EA02238B
:104EE00023809DF802209DF8033043EA022363806B
:104EF0009DF804209DF8053043EA0223A38003B007
:104F000030BD00BF641F002013B5104B04465B6822
:104F10003B2006216A469847A8B19DF800209DF8DD
:104F20000130012043EA022323809DF802209DF8EE
:104F3000033043EA022363809DF804209DF8053086
:104F400043EA0223A38002B010BD00BF641F00200B
:104F5000B0F5807F0ED0BB280ED861280ED8292846
:104F60000ED813280ED809280ED8002814BF062002
:104F700000207047002070470120704702207047D2
:104F800003207047042070470520704710B5224C5D
:104F90002368998A89B211F4706F1EBF1F4A0120DD
:104FA00082F8300011F4E06F2BD01A8B9A888905B3
:104FB00022F480624FEA02424FEA12429A8020D4E1
:104FC0001A8892051DD41A88D0050FD51A88D105E4
:104FD000FCD41A8892B242F400721A801A889205A0
:104FE000FCD40F4B187807F01FF80AE01A8892B229
:104FF00042F400721A809A8822F440721204120C51
:105000009A802268938A23F470631B041B0C93829A
:10501000024B00221A7510BD14280020300F00200A
:1050200018280020054A08B5138801339BB2138065
:10503000034B187806F0F8FF002008BD6A0F002027
:105040001828002008B54FF4804009F0E3FD01283E
:1050500001BF044B4FF480425A61034B08BF83F8F1
:10506000310008BD00040140300F002010B5054C90
:105070002368186909F0CEFD18B123681A69024B3C
:105080005A6110BD701F002000040140F8B50E46A3
:105090001746084C4FF48055656140F080000DF0D4
:1050A00003F93846002132460DF0C8F82561012089
:1050B000F8BD00BF000C014070B50E46054C4FF422
:1050C000805565610DF0F0F830460DF0EDF8256182
:1050D000012070BD000C014070B5FFF739FF104C86
:1050E0000546192008F03FFFA368152000219847C6
:1050F00010B9022008F0A8FF45F01801A368C9B252
:1051000016209847A368002117209847A36801211B
:105110003D209847A3683E200121BDE87040184714
:10512000641F0020F0B5284D85B095F83230002B73
:1051300047D1264C2368002B43D01A68244E12B165
:10514000B1690A43B2619A889868ADF800200222DA
:105150008DF80320694604228DF8022006F00FFD29
:10516000B369002743F00103B36123680126187B6C
:10517000197D06F0EFFC2368164993F9150008F035
:10518000ADFF2368144A1B695361029308230DEB9A
:1051900003008DF80D308DF80C708DF80E6009F05D
:1051A0000AFD236801A85B7D8DF806708DF8043038
:1051B00003238DF805308DF807600DF021F885F890
:1051C000326005B0F0BD00BF300F0020701F00201E
:1051D000001002406D5000080004014037B504463D
:1051E000FFF7A0FF254B1A68254B9A420ED14FF4CA
:1051F0000053ADF8043002238DF807300423214812
:105200000DEB03018DF8063006F0B9FC2046FFF7E0
:105210009FFE05461C4C8021A3686B2098476420A4
:1052200008F0A1FEA368072168209847642008F0D1
:105230009AFEA36800216B209847642008F093FE33
:10524000A36801216B209847A36818211B20984769
:10525000A36810211C209847A36829461A20984764
:10526000A368002119209847A36812213720984786
:10527000A36801213820984703B030BD3C000020CE
:10528000001BB70000100140641F002008B5FFF7A5
:1052900049FF024B4FF480521A8008BD24000020C1
:1052A00070B50446FFF73EFF2046FFF751FE054666
:1052B000144C8021A3686B209847642008F053FEAB
:1052C000A368002119209847A36803216B20984701
:1052D0000F2008F048FEA36829461A209847A368C3
:1052E00018211B209847A36810211C209847A36809
:1052F000022137209847A36838200121BDE870407B
:10530000184700BF641F002008B5FFF70BFF074BCD
:105310005B7813B1012B03D008BD4FF4006201E0AC
:105320004FF48052024B1A8008BD00BF601F00205E
:105330002400002010B51E4C4000C0B2A3602361C1
:105340001C4B6071E170012000212173607022719B
:105350002075186884F8301040B383889B0515D4F5
:105360000388D9050DD447F230530288920502D53F
:10537000013BFAD112E08BB103889BB243F48073F6
:10538000038083889BB243F44073838047F2305399
:10539000227D12B1013BFBD100E013B9BDE8104002
:1053A00040E6034B93F8300080F0010010BD00BFD1
:1053B000300F00201428002007B5F7216B46062285
:1053C0007620FFF7B7FF9DF800309DF801101B0312
:1053D00043EA01139DF80210094A43EA1113D3610D
:1053E0009DF803309DF804101B0343EA01139DF858
:1053F000051043EA1113936103B05DF804FB00BF8D
:10540000300F002007B5002101AB03227720FFF702
:1054100091FF9DF805309DF804001B0243EA00430C
:105420009DF80600184303B05DF804FB08B5FFF7CC
:10543000E9FF014B586208BD300F002008B5FFF7A7
:10544000E1FF014B186208BD300F0020104B13B56F
:105450001B78104C13B194F83130B3B1032201AB77
:105460007720F621FFF766FF9DF805309DF80420B0
:105470001B0243EA02439DF806201343064AB2F991
:105480002020C2F10802D340E36202B010BD00BF89
:105490002C000020300F00208C1F00200B4B13B578
:1054A0001B780B4C13B194F8313063B1022201AB7D
:1054B0007720F621FFF73EFF9DF804209DF8053088
:1054C00043EA0223238502B010BD00BF2C00002058
:1054D000300F002030B505460C46134629462246BB
:1054E000BDE83040682025E713B5062204460121B7
:1054F0001C206B46FFF71EFF08B39DF801309DF896
:105500000020042143EA022242F38D0292FBF1F2D1
:105510009DF8023022809DF8032042EA032242F3E4
:105520008D0292FBF1F29DF8043062809DF8052017
:1055300042EA032343F38D0393FBF1F3A38002B00C
:1055400010BD13B506220446022118206B46FFF752
:10555000F1FEB8B19DF800309DF801209B0803EBE7
:10556000022323809DF802309DF803209B0803EB63
:10557000022363809DF804309DF805209B0803EB0F
:105580000223A38002B010BD314B2DE9F3411B78FB
:105590000546002B3CD0002426462746A046013471
:1055A0005320322108226B46E4B2FFF7C3FE08B94C
:1055B00000204AE09DF801209DF80030202C03EBEC
:1055C00002231BB29DF8032098449DF8023003EBA0
:1055D00002231BB21F449DF805209DF8043003EB05
:1055E00002231BB21E449DF8073003F07F0301D055
:1055F000002BD4D198FBF4F897FBF4F796FBF4F664
:10560000144BA5F800806F80AE8083F833401CE017
:105610005320322106226B46FFF78CFE0028C7D0AC
:105620009DF801209DF8003003EB02232B809DF8AC
:1056300003209DF8023003EB02236B809DF80520C8
:105640009DF8043003EB0223AB8002B0BDE8F0818B
:10565000761F0020300F002013B5204B400002AC15
:10566000C0B2587104F8012DD970012200211A73BB
:1056700059701A711A751A4A1C6110689C6083F877
:10568000301040B38288920515D40288D4050DD419
:1056900047F230520188890502D5013AFAD112E069
:1056A0008AB1028892B242F480720280828892B2F9
:1056B00042F44072828047F23052197D11B1013AB2
:1056C000FBD100E012B9FFF7ADFC04E0034B93F807
:1056D000300080F0010002B010BD00BF300F00208C
:1056E000142800207620F4213122B5E777204821C4
:1056F0000122B1E7772058210122ADE7064B0021B6
:1057000093F82020054B9201343283F83110772032
:10571000F42102F0FC029FE78C1F0020300F0020D4
:10572000034B002283F831207720F4212E2293E7C7
:10573000300F002003460A46682019468CE713B54F
:1057400000222A211C20FFF787FF0E2102221C20A5
:10575000FFF782FF0F2103221C20FFF77DFF2B2183
:1057600012221C20FFF778FF164A0224936916487C
:1057700043F0040393612023ADF8043004230DEBC0
:1057800003018DF806308DF8074006F0F8F922463F
:105790002C211C20FFF760FF2D2101221C20FFF788
:1057A0005BFF2E2100221C20FFF756FF2A21052235
:1057B0001C20FFF751FF054B4FF480721A8002B096
:1057C00010BD00BF0010024000080140240000206E
:1057D00008B50F2108221820FFF73EFF0E221820DF
:1057E0001021FFF739FF024B4FF480521A8008BD99
:1057F0002400002008B5134B53201B782D210822CC
:105800007BB1FFF729FF31210A225320FFF724FF44
:105810002C210C225320FFF71FFF53203821902208
:1058200009E0FFF719FF31210A225320FFF714FF87
:1058300053202C210A22FFF70FFF40F20912024BDE
:105840001A8008BD761F002024000020FEF7C6BF86
:10585000FFF79CBBFEF7C2BFFFF798BB2DE9F047EF
:105860004B28A0B0044600F0E08500F2B380302859
:1058700000F0508651D8222800F02A8423D803282B
:1058800000F05E8114D8012800F04E81022840F01B
:10589000D88604200AF064FE43200AF02CFE4C2037
:1058A0000AF029FE46200AF026FE4C2000F0F1BD49
:1058B000042800F04E81052840F0C3861A200AF023
:1058C0004FFE002458E1282800F07D8515D82428B3
:1058D00000F06485262840F0B486B44C06200AF017
:1058E0003FFEB4F858010AF03EFEB4F85A010AF03F
:1058F0003AFEB4F85C0100F0A0BE2C2800F07685DA
:105900002E2800F0F1852A2840F09B8601200AF01D
:1059100027FEA64B587900F0BCBD3D2800F014834B
:105920001DD8362800F0C6850AD8322800F0AB858D
:10593000342840F0868648200AF012FE0025E9E36C
:105940003A2800F0B8823B2800F0BB83382840F0AA
:10595000788604200AF004FE944C00F025BD45280A
:1059600000F0478627D8402800F09685422840F06E
:1059700068868E4C10200AF0F3FD60790AF0BBFDBA
:10598000A0680AF0F9FD94F88E010AF0B4FDB4F8AD
:1059900058010AF0E8FDB4F85A010AF0E4FDB4F841
:1059A0005C010AF0E0FDB4F87E010AF0DCFDB4F819
:1059B000800100F042BE472800F0F985C0F0E6857E
:1059C000492840F03E8602200AF0CAFD774B9889AC
:1059D00000F033BE702800F0EA8258D8692800F041
:1059E00048822AD8652800F0FD8015D84D2800F09F
:1059F0002B85642840F0258607200AF0B1FDE720BA
:105A00000AF079FD694B58790AF075FD00200AF01B
:105A100072FD042000F0FCBD672800F0AF8100F2A9
:105A20001C8212200AF09CFD614B00241B88B3F5F8
:105A3000806F8CBF0825012582E16C2800F02C8244
:105A400017D86A2800F02E846B2840F0FA850520CC
:105A50000AF086FD574B18880AF085FD564B1888CA
:105A60000AF081FD554B93F8720000F0010000F040
:105A700010BD6E28514D00F0248200F27082062085
:105A80000AF06EFD286E0AF077FD4D4B11E2782882
:105A900000F0818118D8742800F05D830AD872283C
:105AA00000F0C083732840F0CC8508200AF058FD30
:105AB0000124F0E3762800F0158400F285832F207E
:105AC0000AF04EFD3F4CF4E2A42800F0328414D8D2
:105AD0007C2800F0A085A02840F0B3850C200AF0B7
