:020000040800F2
:1000000000500020256A0108C16A0108D92D0108A5
:10001000C16A0108C16A0108C16A01080000000044
:10002000000000000000000000000000C16A01089C
:10003000C16A010800000000C16A010839D3000844
:10004000C16A0108C16A0108C16A0108C16A0108E0
:10005000C16A0108C16A010829FE00083DFE0008C6
:1000600039FE000835FE000831FE000831D60008D0
:1000700029D6000821D6000819D6000811D6000894
:1000800009D6000801D60008C16A0108C16A010842
:10009000C16A0108C16A0108C16A01082DFE000891
:1000A000C16A0108A5AA0008C16A010895AA00084A
:1000B00085AA000875AA000865AA000847BC0008C0
:1000C0004BBC000845BC000849BC0008C16A0108D7
:1000D000C16A0108592601084D2601084126010878
:1000E00025FE0008C16A0108C16A0108000000007D
:1000F0000000000000000000000000000000000000
:0C01000000000000000000005FF808F1A3
:100110002DE9F04F3C4DD7B000236C1E6E1C0293AE
:10012000A4F11103049354F8113C002B01F0108545
:10013000364FDFF8E080DFF8E09054F8110C0DF056
:10014000CEF90390002801F0D98454F8110C0DF079
:10015000C0F914F8053C8246013B042B04D8DFE8C3
:1001600003F0070C202A2E00242857D1012347E052
:100170004D280CBF0223002342E000233C2804F852
:10018000053C02D03E2806D088E014F80D3C002B38
:1001900040F0848003E014F80D3C012B7ED1032352
:1001A0002EE040284FF000039EBF04F8043C04F802
:1001B000030C042324E004F8020C052320E014F8C7
:1001C000042C14F8033C9A420BD2531C1049029899
:1001D00004F8043C502303FB00131A4482F810A0D7
:1001E0005CE014F8022C611E5A4013F1FF3303D374
:1001F00011F8010B4240F8E792450CBF062300239B
:1002000004F8053C4AE000BFA2090020F04F00209E
:1002100090090020EFBEADDE0400FA05DFF878B0EB
:100220009BF8CC3013F0040338D1BAF1230F21D15D
:10023000012154F8112C8BF8A01013498BF8B5301C
:100240001023CBF8AC10CBF8B0208BF8B4300F48AB
:100250000BF1AC03CBF8C830CBF8A420CBF8A82026
:1002600009F0D6FB07F068FF9BF8CC3043F002039F
:100270008BF8CC30064B1B78534502BF054BC7F8B3
:100280000080C3F80C9009E0ADD50008B8C601089D
:10029000102A002000ED00E09009002014F8053C31
:1002A000062B7FF44AAF14F80D1C002941F0268478
:1002B00056AB14F8022C14F8037C0893631E0FFA53
:1002C00082FE16A80A93013A3B440790ADF8261027
:1002D0000B93ADF830E0ADF83210ADF824E0FD2A14
:1002E00001F2FD83DFE812F01A0123012B01360130
:1002F0003F01FB0BFB0BFB0BFB0BFB0BFB0BFB0B94
:10030000FB0BFB0BFB0BFB0BFB0BFB0BFB0BFB0BBD
:10031000FB0BFB0BFB0BFB0BFB0BFB0BFB0BFB0BAD
:10032000FB0BFB0BFB0B2505980A6903F80700057F
:10033000510A04055F0A1205830A3A05B20A3E050E
:10034000BA0AD0058D0BE905B90B9705350B8F035C
:100350001308A9056D0B1201710ACA026403D307C1
:10036000FF02C707FB0B9D053C0BFB0BFB0BF50BC3
:10037000C6062E064306CE09FB0BFB0B5B05EA0AFD
:1003800004010C0B79066906BA09BF06FB0BFB0BCF
:10039000FB0BFB0BFB0B7F09FB0BFB0BFB0BFB0BAB
:1003A000FB0BFB0BFB0BFB0BFB0BFB0BFB0B4C01D6
:1003B0005A01DC010B027202FE00400463048A024F
:1003C000C002CF020A034403FB0BFA03FB0BC0037A
:1003D00061037704E3030E02FB0BFB0BFB0BD5065B
:1003E000E306FB06F6050B01A0068606FB0BFB0BDE
:1003F000FB0BFB0BFB0BFB0BFB0BFB0BFB0BFB0BCD
:10040000FB0BFB0BFB0BFB0BFB0BFB0BFB0BFB0BBC
:10041000FB0BFB0BFB0BFB0BFB0BFB0BFB0BFB0BAC
:10042000FB0BFB0BFB0BF304FB0BFB0BFB0BA70406
:10043000FB0BFB0BFB0BFB0BFB0BFB0BFB0BFB0B8C
:10044000FB0BFB0BFB0BFB0BFB0BFB0BFB0BFB0B7C
:10045000FB0BFB0BFB0BFB0BFB0BFB0BFB0BFB0B6C
:10046000FB0BFB0BFB0BFB0BFB0BFB0BFB0BFB0B5C
:10047000FB0BFB0BFB0B7907DA09DE07FB0B3F08D5
:100480009409A00988088B090A0A62077107D6082F
:10049000FB0BC908FB0BFB0B420954096B097009E4
:1004A000CD0BFB0BFB0BFB0BFB0BFB0BFB0BFB0B4A
:1004B000FB0BFB0BFB0BFB0BFB0BFB0BFB0BFB0B0C
:1004C000FB0BFB0BBC07E80447021109FB0B480BB5
:1004D0000A07FB0BFB0BFB0BFB0BAE09FB0BFB0B30
:1004E000FB0BDC040027DFF86483DFF8649379E119
:1004F0000027DFF85893DFF85C8300F072BCC84B2C
:100500001B88FF2BA8BFFF2300F087BCC54B1A78C0
:1005100002705A789B78427000F0EABD00230DF11A
:100520005B02037001230792437019220FE0BE495A
:10053000042207A80DF0DDF9012301F0D2BA0E2242
:10054000012342700DF15B02079203700222827058
:1005500001F0C7BAB549042207A80DF0CAF9B44B97
:1005600093F8CD105FE30B22B24907A80DF0C1F953
:100570000822B14907A80DF0BCF90722AF49D8E716
:10058000E7230370AA4B042193F8D03043700DF198
:100590005B0307930023837000F076BDA44F07A888
:1005A000B7F8E0100DF0C3F9B7F8E21007A889B268
:1005B0000DF0BDF9D7F8E43007A8C3F3C001C3F3C9
:1005C0008002890041EA4201C3F340021143C3F3B0
:1005D000401241EAC20103F0100319430DF0A7F9DC
:1005E00000231A464FF2FF7CB7F8E800DFF868E214
:1005F0004FF0010812F90E10B1F1FF3F0CD04CFA88
:1006000002F919F0010F07D040FA02F919F0010FB1
:100610001CBF08FA01F10B4301320C2AEAD1D7F8CA
:10062000ECE000224FF0010C85480CFA02F1084082
:1006300018B111EA0E0F18BF0B430132202AF3D173
:1006400097F8CC20D7F8F08052074FF000021146FF
:10065000104648BF43F001034FF0010E0EFA02FCB2
:100660001CEA080F07D01CEA030F1CBF0EFA00FC9F
:1006700041EA0C01013001321D2AEFD107A80DF02B
:1006800042F9079B97F8F420591C07911A70B7F8A4
:10069000F61007A80DF04BF9B7F8F81000F01ABDE6
:1006A000634B0027B3F8042103F58478B2F5806F1B
:1006B00094BF4FF000094FF0030958F8271007A81E
:1006C00041FA09F189B201370DF031F9032FF4D164
:1006D000DFF88881002738F8271007A801370DF0C8
:1006E00026F9032FF7D1DFF87881002738F8271093
:1006F00007A801370DF01BF9032FF7D11CE71022D3
:10070000504916E7DFF828814FF000094FF00C0A36
:100710000AFB09F7D8F83C3107A8D95B0DF007F9B7
:10072000D8F83C3107A83B4459880DF000F9D8F8B7
:100730003C3107A83B4499880DF0F9F8D8F83C31D2
:1007400007A83B449A79079B09F10109591C0791B5
:100750001A70D8F83C313B44DA79079B591C079151
:100760001A70D8F83C311F44B9680DF0CCF8B9F1D3
:10077000080FCDD1E0E6344B03F17001079A13F86E
:10078000010C571C07971070079A1878571C079789
:100790001070079A5878571C07971070079A987826
:1007A000571C07971070079AD878571C0797107036
:1007B000079A1879571C07971070079A58790733CA
:1007C000571C8B4207971070D8D1B5E6DFF894809C
:1007D000002738F8171007A801370DF0A8F8082FE0
:1007E000F7D1A9E698F800309F42BFF6A5AE39F8D8
:1007F000171007A80DF09BF80137F3E70C4F07A877
:10080000B7F8C8110DF093F8B7F8CA1107A80DF0A2
:100810008EF8B7F9CC310A2193FBF1F100F002BC5C
:10082000D4290020F8290020F0C60108F5C60108E7
:1008300090090020FAC6010806C701080FC7010881
:10084000C0F11F1ABC0A0020D10A0020002A002093
:10085000942900204A0C002048A50108A40A002081
:10086000B00A0020400B0020BC4F07A8D7F8D011D9
:100870000DF049F8B7F8D41100F02CBCB74BD3F801
:10088000D81100F001BC4FF6FF79B44F0DF15902B9
:1008900097F8E281B7F8E43107EBC808D8F8EC1113
:1008A000FF2BA8BFFF234945A8BF494621EAE171B4
:1008B000037089B207A807920DF039F8B7F8F8115C
:1008C00007A80DF034F897F8FA31D8F8E8113BB1E1
:1008D0000A2359434945A8BF494621EAE171A1E3EA
:1008E00001F30F019EE39D4B93F8FD2193F8FC313A
:1008F00002700DF15A02079243701DE6974B0DF1FD
:100900005907D3F8002211780797017052780DF13A
:100910005A014270184607910021D0F800328F4AE0
:100920000B441F79079B013103F1010E0329CDF818
:100930001CE01F70F1D1D2F80032D979079B581C06
:1009400007901970D2F800329978079B581C0790CD
:100950001970D2F80032D978079B581C079019708B
:10096000D2F8007207A879890CF0E1FF3A7A32E2F6
:100970007A490023D1F80422D05C079A571C0797C4
:100980001070D1F804221A44907A079A571C0797DE
:100990001070D1F804221A44107D079A0133571CB5
:1009A0000A2B07971070E5D1C6E52F226C49C0E5E8
:1009B0006A4BD3F804329B7F2FE2DFF8A091002727
:1009C000D9F8083213F8270003EB870811F03AF939
:1009D000079B4279591C07911A70079B98F80120D0
:1009E000591C07911A70079B98F80220591C07910F
:1009F0001A70079B98F803200137591C142F079190
:100A00001A70DDD198E5DFF8548100224FF0060915
:100A100009FB02F1D8F80C02079F431893F805E090
:100A200007F1010CCDF81CC087F800E0405C079985
:100A300001324F1C07970870079958784F1C079789
:100A40000870079998784F1C079708700799D8780D
:100A50004F1C079708701979079B0C2A03F10100B6
:100A600007901970D4D167E5DFF8F09000274FF0B8
:100A700001084FF03B0AD9F8F02008FA07F31342B7
:100A800011D0F8B211F0DEF8D0F800B0584614F0EA
:100A900013FE5946024607A80CF02BFF079B5A1C71
:100AA000079283F800A001371D2FE4D144E5DFF859
:100AB000AC9000274FF00108D9F8F03008FA07F29F
:100AC0001A4207D0F8B211F0BDF8079B4279591CC1
:100AD00007911A7001371D2FEED12DE5DFF88480C4
:100AE0001E4FB8F8101007A80CF021FFB7F810122D
:100AF00007A80CF01CFFB7F8121207A80CF017FF9C
:100B0000B7F8141207A80CF012FFB7F81E1207A8C6
:100B10000CF00DFF079B97F82422591C07911A70BF
:100B2000079B5A1C079200221A70079B97F8251200
:100B3000581C07901970079B97F8FA11581C0790DA
:100B40001970079B98F80B10581C07901970079B99
:100B5000591C07911A70D7F82832B6E09009002086
:100B600054A50108B8290020BE4F0DF15A0297F88C
:100B70002C32D7F8301203F00203037097F82D32AD
:100B80000792437007A80CF0BEFED7F8341207A8EE
:100B90000CF0B9FEB7F8381207A80CF0C8FEB7F889
:100BA0003A1207A80CF0C3FEB7F83C1292E2AD4F20
:100BB00007A8B7F83E120CF0BAFEB7F8401207A823
:100BC0000CF0B5FE079A97F84232511C03F001036E
:100BD00007911370B0E414F8012C0A94A14B22B9C8
:100BE000D3F84412D3F8487207E0102A19BF00273F
:100BF0003946D3F84C12D3F8507202700DF15903F4
:100C000007A807930CF07FFE394607A80CF07BFE7F
:100C1000944B07A8D3F854120CF075FE002107A8D6
:100C20000CF085FE002107A80CF081FE079B5A1CE2
:100C300007920022D2E08B4A0DF1590192F8583206
:100C40000791037002F25927002392F858128B4241
:100C5000BFF672AC0799D85D01F1010ECDF81CE02A
:100C600008708149079813F801E000F1010CCDF8F4
:100C70001CC080F800E001F1100013F800E00798B4
:100C8000203100F1010CCDF81CC080F800E0585C68
:100C90000799013301F1010ECDF81CE00870D4E78B
:100CA000DFF8DC81002738F8171007A801370CF0AF
:100CB0003EFE042FF7D13FE46A4F07A8D7F8A432CD
:100CC00059880CF034FED7F8A432198802E2674B39
:100CD00007A819680CF017FE654B07A819680CF0F7
:100CE00012FE644B1968CFE15E4BD3F8A812CBE13A
:100CF0005C4F07A8B7F8AC120CF019FEB7F8AE12AB
:100D000007A80CF014FEB7F8B012E3E1554F07A89E
:100D1000B7F8B2120CF00BFEB7F8B41207A80CF03B
:100D200006FEB7F8B61207A80CF001FEB7F8B81225
:100D3000D0E14C4F0DF15B0297F8DD31B7F8E011CF
:100D4000037097F8DC310792437097F8DE318370B7
:100D500007A80CF0ECFD97F8E2213CE0414B93F83A
:100D6000D0305AE0444F0DF159023B7AB98A0370F2
:100D700007A807920CF0DBFD398A07A80CF0D7FD15
:100D8000798A07A80CF0D3FD079BBA7A591C079102
:100D90001A70F98A07A80CF0CAFD398B9AE1314F15
:100DA0000DF15A0297F81C320792037097F81D3222
:100DB0004370B7F81E1207A80CF0B9FD079B97F80F
:100DC0002022591C07911A70B7F8211207A80CF0BD
:100DD000AEFD97F82322079B591C07911A70FFF765
:100DE000ABBB99F800309F42BFF6A6AB079B18F843
:100DF0001720591C07911A7008EB4703597807A868
:100E000001EB810101EB810101F2EE2189B20CF0CD
:100E10008EFD0137E5E7184BDB7A0DF15902079299
:100E200025E1154F0023079AD95D0133501C082B8B
:100E300007901170F7D1FFF77FBB104FDFF8449098
:100E400007F1280817F9032C002313F90910914220
:100E500000F08C860C333C2BF7D10837B845F1D124
:100E6000FFF76ABB90090020F90B0020E8F7FF1F8D
:100E7000ECF7FF1FF0F7FF1FB8290020152A00200C
:100E80002A0C0020700C0020DFF89483002738F82B
:100E9000071007A80CF04BFD079A08EB0703997899
:100EA000501C07901170DA78079B0437591C402FAB
:100EB00007911A70EBD1FFF73FBBDFF8688300277B
:100EC00058F8271007A801370CF01DFD202FF7D187
:100ED000FFF732BBCA4F00234FF0060E0EFB037024
:100EE0000022079901F1010CCDF81CC00B70079985
:100EF00001F1010CCDF81CC00A70079910F802C06E
:100F0000013201F10108062ACDF81C8081F800C0E9
:100F1000E7D10133062BE1D1BA48002207994F1CD3
:100F200007970B7007994F1C07970A700799175C72
:100F3000013201F1010E0B2ACDF81CE00F70EDD14A
:100F4000FFF7FABA05F062FC079B40F002005A1C5A
:100F5000AD4F07921870398807A80CF0D4FCF968D7
:100F600007A80CF0D0FC09F077FC01468CE00AA839
:100F70000CF09EFC0746014607A80CF0C4FCDDF807
:100F80001C90089AA04BC9EB0208B8F1800FDB68EF
:100F9000A8BF4FF0800807EB08029A4288BFC7EB52
:100FA000030809F011FD42464946384605F062FC47
:100FB000079B18440790FFF7BFBA944A012392F8A1
:100FC0000D140370417092F80B1492F80C24817088
:100FD00017A90791C27000F084BD00270770477001
:100FE0000DF15B038770394607A807930CF08BFC63
:100FF000394649E0854B0DF15A0193F80E240791CB
:10100000033A18BF01220270B3F8E421FF2AA8BFF7
:10101000FF22427093F8E22103EBC203D3F8EC11F4
:1010200081F3100189B255E04FF6FF79DFF8F881BE
:1010300000274FF00A0A57F8081007A80AFB01F129
:101040004945A8BF494621EAE17189B20CF06FFC1D
:1010500008EB0703596807A808370CF054FC102F59
:10106000E9D1FFF769BA0DF1590307930023037023
:10107000FFF762BA0B22664907A80CF03AFC002180
:1010800007A80CF040FC002107A80CF03CFCFFF77F
:1010900053BA5E4F07A8B7F810140CF048FCB7F825
:1010A000121407A80CF043FCB7F8141412E0574BC5
:1010B0000DF15901D3F818341A78079102705A7853
:1010C0000DF15A01079142709A780DF15B0182701F
:1010D0000791D98807A80CF02AFCFFF72DBA4B4BD3
:1010E00093F81C24027093F81D2493F81E34427068
:1010F0000DF15B0207928370FFF71EBAC022002138
:10110000444819F0ADF84FF0000E724642494FF0D6
:101110000209A1F59C6C4FF0480A4FF0100B9CF8A7
:10112000E2043A4B864536DA4B7AD8072FD50B7A4C
:101130000CEB4303B3F9B031002B28DDCF6813016A
:101140000CEB0300B7F8088005937B68A0F82684B1
:10115000C0F820340027012303FA07F010EA080042
:1011600001D0384602E00137102FF4D1059B01323F
:101170006344A3F8288483F82B9483F82AA4A3F863
:101180002404D3F82804C3F82C0483F82EB40EF1F9
:10119000010E0831C3E7D2B20DF1590183F8582589
:1011A0008DF8582007911D4A00F095BC174A92F817
:1011B000CC305B073FF5C0A914F8013C0A94032B1F
:1011C00028BF002382F8F43042E20AA80CF086FB24
:1011D0000E4BA3F86005FFF7AFB97F08122F00F29E
:1011E0007E844FF000080DF1340947451ED90AA846
:1011F0000CF074FB29F8180008F10108F5E700BFAE
:101200006C0D0020900D00200000002090090020AF
:10121000FAC60108B00D0020700E00203916010832
:10122000AC0C0020EC0C0020780B00203A46CA4998
:1012300000230DA89F4205DD30F813E021F813E0EC
:101240000133F7E7C44B0021122A03D023F8121010
:101250000132F9E7C14A012382F8863500F041BC2A
:10126000BE4F0AA8D7F8A4820CF038FBA8F80200F9
:10127000D7F8A472FBE0B94B14F8012C0A9583F857
:10128000FD2115F8012C83F8FC21FFF755B9B34B6C
:1012900014F8010CD3F804320A94987710F054FA39
:1012A000FFF74AB9AD4BD3F80422531E02F10900EF
:1012B0000A9A511C0A91114611F8027B03F8017F2A
:1012C0000A9151789842997202F103010A91927839
:1012D0001A75EDD1FFF730B914F8011C0A941329DF
:1012E00000F3FD839D4815F801ECD0F80872DFF893
:1012F00070C20A950022D3000CEB030898F8058011
:10130000F04500F0578401321D2AF4D1E7E314F8C8
:10131000012C0A940B2A00F3E28315F8011C8F4B71
:101320000429D3F80C020A9500F3D98306235A4303
:101330008318597161780A9681540A9A511C0A914E
:1013400012785A700A9A511C0A9112789A700A9A65
:10135000511C0A911278DA700A9A511C0A9112787B
:101360001A71FFF7E9B8092F40F3B9837B4B0A9450
:10137000D3F8008214F8013C08F1030088F800302B
:101380000A9B5A1C0A921B78002288F801300A9B9B
:10139000022A03F101010A9193F800E014BF6421CD
:1013A000FF21714528BF71460132032A00F8011F51
:1013B000EDD19A1C0A925A780AA8642A28BF64229E
:1013C00088F80720DA1C0A929B7888F802300A9B7A
:1013D0005A1C0A921B7888F803300CF07FFA0A2F07
:1013E000A8F80A003FF4A8A80A9B5A1C0A921B7886
:1013F00088F80830FFF7A0B80AA80CF06FFA6FF46D
:10140000AF6E00EB0E03DFF85C81C62B98BFA8F827
:1014100010000AA80CF062FA504FA7F810020AA8B0
:101420000CF05CFAA7F812020AA80CF057FAA7F819
:1014300014020AA80CF052FA0A9BA7F81E025A1CC2
:101440000A921A4612F8031B0A929A7887F8241215
:1014500087F825221A1D0A92DA78063387F8FA21CE
:1014600013F8022CD7F8287288F80B200A930AA8E0
:101470000CF034FA3880FFF75FB8DFF8EC80002713
:101480000AA80CF02BFA28F817000137082FF7D11B
:10149000FFF752B80D2F40F0228314F8018C0A9404
:1014A000B8F1070F00F21B832C4F0AA8D7F83C9124
:1014B0000CF014FA0C2303FB08F829F808000AA81A
:1014C000D7F83C910CF00AFAC144A9F802000AA826
:1014D000D7F83C910CF002FA0A9AD7F83C31C14493
:1014E00098441346511CA9F804000A9113F8021BF2
:1014F0000AA888F806100A93537888F807300CF089
:10150000D7F9C8F80800FFF717B814F8013C0A9497
:101510000F2B00F3E482114AC3EBC303134415F805
:10152000012C83F84021627883F84121A27883F866
:101530004221E27883F84321227983F844216279B9
:1015400083F84521E21D0A92A27983F846210FF023
:101550003DF8FEF7F1BF00BFF20E00209009002019
:1015600084A50108B8290020180F00200AA80CF053
:10157000B5F9CD4FA7F810040AA80CF0AFF9A7F8F9
:1015800012040AA80CF0AAF9A7F81404FEF7D4BFB5
:10159000C54B0A94D3F8187414F8013C0AA83B70A0
:1015A0000A9B5A1C0A921B787B700A9B5A1C0A924F
:1015B0001B78BB700CF092F9F880FEF7BDBFBB48FA
:1015C00012F00AF8FEF7B8BFB74B14F8012C0A96D0
:1015D00083F81C2415F8012C83F81D24627883F805
:1015E0001E24FEF7A9BF08230021079A013B501CC7
:1015F00013F0FF0307901170F7D1FEF79DBFAA4BC0
:1016000093F8CC305F073EF597AF0DF023FD1FE058
:10161000A54B93F8CC2050073EF58EAF4FF4C8721F
:10162000A3F8A025FEF788BF9F4B93F8CC20510765
:101630003EF582AF93F82C2242F0040283F82C226C
:10164000FEF77ABF984B93F8CC305A0700F14782E7
:1016500010F082FB0DF00FFEFEF76EBF924B93F879
:10166000A225012A00F23B8214F8012C0A9683F885
:101670000D2415F8012C83F80B24627883F80C24D0
:10168000FEF75ABF05F01EF9874B002283F8A32509
:1016900083F8A425C3F8A825FEF74EBF14F8013C33
:1016A000814F23B197F82C3243F0020303E097F8FF
:1016B0002C3223F0020387F82C3215F8013C0AA8DB
:1016C00087F82D320A950CF0F3F8C7F830020AA813
:1016D0000CF0EEF8C7F834020AA80CF0FFF8A7F8EF
:1016E00038020AA80CF0FAF897F84232A7F83A0242
:1016F00043F0020387F84232FEF71EBF0AA80A949D
:1017000014F801BC0CF0D4F882460AA80CF0D0F80A
:1017100081460AA80CF0CCF880460AA80CF0DEF846
:101720000AA80CF0DBF80A9B5F4F01330A93BBF168
:10173000000F14D11020C7F844A2C7F8489210F047
:1017400093FA97F82C3243F0010387F82C32B8F162
:10175000000F3EF4F1AEC7F85482FEF7EDBEBBF1C8
:10176000100F7EF4E9AEC7F84CA2C7F85092B8F15A
:10177000000F01D0C7F854824D490223081F87F893
:10178000AC3508F097FEFEF7D7BE474F00230AA8F6
:10179000C7F8A8320CF08CF8D7F8A8321843C7F86D
:1017A000A802FEF7C9BE0AA80CF098F83E4FA7F8A9
:1017B000AC020AA80CF092F8A7F8AE020AA80CF046
:1017C0008DF8A7F8B002FEF7B7BE14F8013C0A94F2
:1017D000002B40F08481374B15F8012C1A70627889
:1017E0005A70E21C0A92A2789A70FEF7A5BE14F80D
:1017F000017C0A94012F00F372810AA80CF06EF8A4
:10180000294B03EB8707A7F8B2020AA80CF066F889
:10181000A7F8B402FEF790BE234F14F8013C0AA8C3
:1018200087F8DD3115F8013C0A9687F8DC316378DA
:1018300087F8DE310CF052F80A9BA7F8E0015A1C39
:101840000A921B7887F8E231FEF776BE14F8012C75
:10185000154B0A9483F8D020FEF76EBE164F14F88D
:10186000013C0AA83B720A940CF038F8B8820AA826
:101870000CF034F838820AA80CF030F80A9B788211
:101880005A1C0A921B78BB720B9B9B1A012B7EF78A
:1018900053AE0AA80CF022F8F8820AA80CF01EF841
:1018A0003883FEF749BE00BF90090020C8E6010852
:1018B000E00B0020F8290020B8290020B74F14F8C9
:1018C000013C0AA887F81C3215F8013C0A9587F8F4
:1018D0001D320CF003F80A9BA7F81E025A1C0A924C
:1018E0001B780AA887F820320BF0F8FF0A9BA7F8AC
:1018F00021025A1C0A921B7887F82332FEF71CBE7D
:1019000014F8017C0A94112F00F3E980DFF88C822F
:1019100015F8012C7F0008EB070383F8BA220AA808
:101920000A950BF0DBFF40F2ED23984205DD40F60F
:10193000CA039842A8BF184601E040F2EE20A0F288
:10194000EE20192390FBF3F0474487F8BB02FEF723
:10195000F3BD14F8012C924B0A94DA72FEF7ECBD39
:101960008F4900230A9A501C0A9012785A54013366
:10197000082BF7D1FEF7E0BD884F97F8CC305B0716
:101980003EF5DAAD14F9018C0A9440460BF0E4FB05
:1019900008B1436873B900220323009301924FF406
:1019A000E1334FF4006140460BF0DBFCC7F8B005B3
:1019B00010B994E0C7F8B0357A4BC7F85C35FEF73C
:1019C000BBBD072397FBF3F3C3EBC3039F4240F078
:1019D00086800A9A0B9B9B1A062B7EF7ADAD531C93
:1019E0000A9392F9002000236F49DF0007EB0108FA
:1019F00098F90210914200F000810133052BF3D1D8
:101A00006DE0DFF8A8810027C1460B9B0A9A9B1A5C
:101A1000032B7EF791AD0AA80BF060FF0A9BB0F58F
:101A2000B47F03F101020A921A4612F8021B0A92CD
:101A30005B784FEA870203DB5C4B002199504EE054
:101A400029F827000137102F88F8021088F8033092
:101A500008F10408D9D1FEF76FBD052F0A9414F8D8
:101A6000018C3CD1B8F11F0F39DC0AA80BF020FF24
:101A70004A4B03EB8803C3F85C0312F05DFCFEF7EE
:101A80005BBD464F4FF0060E0A995A1A022A7EF79E
:101A900053AD08464A1C0A9210F8022B01F1030CC0
:101AA0000A904878CDF828C089780F2917D8052AD8
:101AB00007D8052813D80EFB0272104480F8DC13F7
:101AC000E2E7062A0BD10A2809D8384480F8001426
:101AD000DAE7374A314BC3F85C25FEF72DBD4FF0EE
:101AE000FF33ADF82630079B07A90893049816AB7F
:101AF00007930BF017FD002304F8053C274FD7F898
:101B00005C3523B1049898470023C7F85C3514F876
:101B1000053CEBB954F8093CD3B1039AC2B956AAB3
:101B20000E924FF6FF72ADF83C20BDF80C2016AFB8
:101B30000D97ADF83E200DA8984730B10D9B0DA92B
:101B400004980E930D970BF0EDFC002344F8093C2C
:101B5000029B50350133022B029304F1500406F12D
:101B600050067EF4DDAA57B0BDE8F08F079B07A8AA
:101B7000591C07911A7037F8011C0BF0D8FE3A4631
:101B80000023079912F8010F013301F1010E042B14
:101B9000CDF81CE00870F4D1FFF75FB99009002080
:101BA000B829002029160108102A0020AC0C0020BA
:101BB000391D0108DFF874E007EB8102734493F8E4
:101BC000403007F821300A9B591C0A911B7853704A
:101BD0000A9B591C0A911B7893700A9B591C0A9105
:101BE0001B780021D370D0F808020DF033FB0D4BA9
:101BF00080F001001874FEF79FBC88F802200AA844
:101C00000BF06CFE084A7B1D1344A8F80400002268
:101C10000A990132481C0A900978042A03F8011F26
:101C2000F6D1D6E600000020102A002048A50108C1
:101C30002DE9F04F8BB00AF0E9FBC34B1D78002D66
:101C400041F0E882C14E33685C0541F1E382C04C4B
:101C5000DFF83C832378002B00F0FE81D8F80020C9
:101C60006368D31A7C2B40F2F781BA4BDFF824B3B8
:101C70001B68DFF82493DF88237A626001332372C4
:101C80004FF47A7A05F12400C0B20AF073FB5BF8D6
:101C90002500B9F808300AFB00F090FBF3F001359D
:101CA00000B20AF055FB032DECD130200AF062FBA4
:101CB000A94BDFF89C92B3F900000AF049FB0AF047
:101CC00051FB237A980733D141F28833D9F80420A5
:101CD0009A421AD910200AF04DFBD9F80C0064255D
:101CE00090FBF5F000B20AF033FB21200AF042FB32
:101CF000D9F80C0090FBF5F305FB130383EAE370BE
:101D0000A0EBE37000B20AF023FB14200AF032FBD0
:101D1000924BB3F904000A2390FBF3F00AF018FB8E
:101D20001C200AF027FB00200AF012FB0AF01AFB25
:101D3000237A590740F0688102200AF01BFB844B8C
:101D40004FF0050918696423323090FBF3F000B2BC
:101D50000AF0FEFA824B0320B3F906500AF00AFBA0
:101D600095FBF9F57F4BADB21B785A070AD538467B
:101D70000CF0FAFC20B9336813F0100F18BF0025DF
:101D800028B204E0784B9888B0FBF9F000B20AF072
:101D9000DFFA33689B0773D5A37DDFF8B491734FE7
:101DA00033B3DFF8F8A13A889AF80010642303FBF4
:101DB00002124B00B2FBF3F3B9F8185006202D01C4
:101DC000ADB245EA0325ADB2C3F303231D430AF0C8
:101DD000D1FA28B20AF0BCFAB9F818309AF8001013
:101DE00001339BB293FBF1F201FB1233A9F81830D7
:101DF00094F82630012B05D139200AF0BBFAB7F947
:101E000000001BE03D886E235D43152795FBF7F529
:101E10003A20AFB24FF064090AF0ACFAB7FBF9F51B
:101E200028B209FB15750AF093FA3B200AF0A2FAD2
:101E3000A8B2451D0A2095FBF0F000B24A4F0AF007
:101E400087FA4B4D97F8069028200AF093FA55F838
:101E500039300A2093FBF0F000B20AF079FA04203E
:101E60000AF088FABB8813B109F0C8FB05E0BB791A
:101E700005EBC305686880F3100000B20AF068FA49
:101E80003C4B1B689F0640F1B4803B4F3B789D075D
:101E90001FD5DFF80C9111200AF06CFAB9F8000098
:101EA0004FF4F3656843354B90FBF3F000B20AF052
:101EB0004FFA19200AF05EFAB9F800004543642091
:101EC00095FBF0F595FBF0F300FB135000B20AF020
:101ED0003FFA2B4B01201D883B7813F0020F08BFFF
:101EE00000250AF047FA28B20AF032FA09200AF06F
:101EF00041FA00200AF02CFA224B1D78224B1A8856
:101F0000B2F5967F09D9237A03F00F03072B04D883
:101F100042F20F75954228BF154605200AF02AFAAD
:101F200094F825300BB928B244E0A5F1200014F054
:101F300027F9164914F02CFA0021054614F012FB7B
:101F400080BB4FF07C512FE0300A00209029002008
:101F500004130020A80D0020640B0020580B002063
:101F6000502D00205C0A00206C0B0020740B002018
:101F7000780B0020740A0020BC0B0020A086010012
:101F8000C80B0020BD0B0020120000206666E63F53
:101F900040270020980A00208C0A002028000020FA
:101FA000CA0B00204FF03F41284614F035F814F0DA
:101FB00017FB00B20AF0CCF93B78980704D494F8E8
:101FC0002830C64D012B04D1012384F82830C448A1
:101FD00016E0C449E86914F027F914F001FBC1497F
:101FE0000290286A14F020F914F0FAFA039002A87B
:101FF00006E0BD4A02AB92E8030083E803001846FE
:102000000AF0C8F90AF0AEF9237A282B24D1B34B91
:10201000002217201A72D8F800500AF0ABF94EF6D9
:102020006020B5FBF0F03C27B0FBF7F207FB120095
:10203000000200B20AF08CF918200AF09BF94FF464
:102040007A73B5FBF3F3B3FBF7F007FB103000B284
:102050000AF07EF90AF086F994F829309F4D002B9A
:1020600000F077810BF0E6F8EB6AA04AC31A9342BE
:10207000074640F2C880002385F8323085F83430B6
:102080009B4B95F860101B88DAB21B0A85F84E202E
:1020900085F84F3085F8442085F84530EA6DD8F84A
:1020A00000309A1A4FF47A734B439A420DD3914BF6
:1020B0001B68EB65904B1B78013B012B9FBF1023E6
:1020C00085F83230022385F834308C4B8C499B796B
:1020D0000A2051F8332001EBC3014B6892FBF0F268
:1020E00093FBF0F384F84C20121284F84D2084F80E
:1020F0005030844A1B1284F85130834B12781B787D
:102100009107764D84F87B3003D42D2385F87C30FD
:1021100078E0042B8CBF3323322385F87C30704B5E
:102120007A4AD3F800A0DFF8FC819AFBF2F108FBB1
:1021300001A958684FF0060C0CFB09F990FBF2F26C
:10214000734B08FB020899FBF3F501EB810103FBDC
:1021500015990CFB08FC01EB81016DB205EB8101C7
:1021600089B284F86B10090A84F86C109CFBF3F1B7
:1021700003FB11C34FF0640E93FBFEF302EB8202EC
:1021800002EB820249B201EB820284F872301B1228
:1021900092B284F873305F4B84F87020120A84F88E
:1021A00071201A88242353434FF47A7293FBF2F37D
:1021B00099FBFEF984F86830C3F3072384F869308B
:1021C000554B4FEADA7A1B8884F86D9084F87430A6
:1021D0001B0A84F87530514B4FEA29291B88C00F20
:1021E00003F5FA739BB284F876301B0A84F87730D3
:1021F0004B4B84F86AA01B8884F86E9084F86F00BB
:1022000084F87D30E76294F88D90344DB9F1000F79
:102210000FD1D5F894000BF062F9012809D90228F2
:10222000DFF8048100F04D870AF084F8012388F874
:102230000230D4F89850294B002D00F08A8093F892
:102240008D203AB140F6B731D3F8A020BA1A8A42AD
:1022500018D87EE0012283F88D20D3F8A4201278CC
:10226000022A06D8D3F89400022104300AF04CF870
:1022700004E00221D3F894000BF070F8002384F8F6
:10228000A83064E093F89C20BAB9C3F8982083F88A
:102290008D20D3F8A4201278022A06D8D3F894000F
:1022A000012104300AF030F804E00121D3F8940051
:1022B0000BF054F80AF03EF849E0013AD2B283F844
:1022C0009C2093F8A81093F8A9007ABB4A1C01300F
:1022D00083F8A82083F8A90035E000BF041300208C
:1022E000C00B00208096184B78A601083F0D030014
:1022F000740B0020402700209E0D00206C0B002056
:10230000780B0020BC0B0020BD0B002080969800AD
:1023100040420F00CA0B0020CE0B0020C80B00204B
:10232000D00B0020806967FF120000202A4612F8B7
:1023300001EB01300EEB0105714683F8A850C3F89C
:10234000982083F8A900D3F894000BF0CBF8C4F8D8
:10235000A070C04F94F8AA803B680093BE4BB8F1C0
:10236000000F00F02682D3F8AC20002A00F0218272
:1023700093F8B020013A012A00F21B829A464FF0EE
:10238000020B0125B44AD4F8AC0001920BF0A7F877
:10239000019AD8B1DAF8AC000BF09BF89AF8B110BA
:1023A00081467E293A680ED11B288AF8B0B00AD13E
:1023B000DAF8AC0001920BF092F820B9019A8AF891
:1023C000B850CAF8B42084F8B190DBE7D2F8B41062
:1023D0003B685B1A41F658318B4203D9032382F8DC
:1023E000B030E6E10546DFF8A0A294F8B8E094F832
:1023F000B9300022BEF1000F00F0D8813968009892
:10240000091A012906D90AB184F8B930002384F8E1
:10241000B830CEE10AEB4302108910B903464FF4FD
:1024200003600133B0F5C06FDBB2424600F0BB8001
:102430001BD8B0F5047F50D00BD8B0F5887F00F0E2
:10244000F180B0F5007F00F08F80B0F5807FD1D1B2
:1024500099E0B0F5806F00F02481B0F5826F00F054
:102460005781B0F5407FC5D140E0B0F5006F00F076
:10247000A7800FD8B0F5E26F00F0E680B0F5E46F0A
:1024800000F00481B0F5E06FB4D184F8B930734B3B
:102490001968FFE0B0F5036F0ED004D8B0F5026FF5
:1024A00000F05F81A6E7B0F5046F00F0C580B0F5DD
:1024B000116F00F067819DE784F8B930684B1B68A5
:1024C0009B0692D5674B1B7899078ED5664B19886A
:1024D0004FF4F3634B43642160E184F8B93033680F
:1024E0009A0782D5614B0A211B8849E184F8B930EB
:1024F0003368DFF864B19B077FF577AF9BF8163040
:10250000002B3FF472AF594A594B128893F800E000
:1025100002EB820202EB82020EEB82024FEA4E01D4
:1025200092B292FBF1F24FF6F07C12019BF8BA10D6
:1025300002EA0C0C0EF00F0E4EEA0C0C01F00F012B
:1025400041EA0C11019309F0ABFE9BF8BA20019B04
:1025500001321978D2B2B2FBF1F301FB13228BF8EE
:10256000B8508BF8BA2040E784F8B93033681905C1
:102570007FF53BAF3F4B9A793F4B53F832100A231C
:1025800091FBF3F10CE184F8B930354BDFF8C8B0BA
:102590001B685A077FF529AFDBF80C1009F080FEA5
:1025A0008BF8B85021E784F8B93033681B057FF504
:1025B0001CAF304B9A79304B03EBC2035968EFE004
:1025C000274A84F8B930126891067FF50EAF254A84
:1025D000127892077FF509AF13F0010F274B10D047
:1025E0005A68192182EAE273A3EBE27303EB530307
:1025F000B3FBF1F3002A43F0004110DA43F040410D
:102600000DE01B68192283EAE371A1EBE37101EB92
:102610005101B1FBF2F1002BB8BF41F080414FF402
:1026200000608EE084F8B9300D4B1B685B077FF5C6
:10263000DCAE134B1968B3E084F8B930114B0A21B2
:10264000B3F9043059437CE084F8B930034B59683E
:1026500020E000BF4027002004130020980A00203B
:10266000740A0020BC0B0020CA0B0020740B002051
:10267000280000206C0B0020780B0020C00B0020ED
:10268000640B0020580B002078A6010884F8B930AC
:10269000954B996864234B43944A118993FBF1F15C
:1026A0004FE084F8B930924B42F211711A7842F23D
:1026B000107312F0010F08BF1946900748BF02318E
:1026C00053078C4B48BF04311B88D80748BF0A31D9
:1026D0009A0748BF143113F4106F18BF28315807F8
:1026E00048BF64311A0748BFC831980548BF01F593
:1026F000C8719A0648BF01F57A71D80648BF01F53E
:10270000FA615A0648BF01F57A614FF4806018E01B
:1027100084F8B930784B196811F0200B16D0774B3C
:102720001A7812F0020F14BF4FF47A71002112F0E0
:10273000010F734A14BF4FF4FA6300230B4411785E
:10274000194409F0ADFD84F8B8504EE633681B0615
:102750007FF54BAE594609F0A3FD6A4B83F8B8B03C
:1027600043E684F8B930644B1B6899067FF53DAEAB
:10277000624B1B789A077FF538AE634B64211B8848
:1027800059430DE084F8B93033689B077FF52DAECF
:102790005E4B5F4A19880A234B43117893FBF1F192
:1027A00009F07EFD574B83F8B8501EE60AB184F855
:1027B000B93094F8BB30DFF84C81002B00F0118168
:1027C000D8F8BC30002B00F00C813D68D8F8C03040
:1027D000EB1A632B40F20581DFF840A1412009F09C
:1027E00047FDBAF902004FF00A0990FBF9F080B2F8
:1027F00004F0A8FEBAF9000090FBF9F080B204F0F2
:10280000A1FEBAF9040090FBF9F080B204F09AFE40
:1028100004F07AFE98F8C48018F0010842D0364BD4
:102820001A689B4612F0200F00F0AE80334BDFF8A1
:10283000D0901B7813F0020F08D099F80030052BC8
:1028400034BF4FF002084FF0030801E04FF00108D9
:10285000DFF8CCA0472009F00BFDDAF8000004F007
:102860005FFEDAF8040004F05BFE2A4B4FF0640AC6
:102870001888B0FBFAF0C0B209F0EAFCDBF80030CF
:1028800013F0140F0BBF204B234B1888186808BF98
:102890000AFB00F004F044FE99F8000048EA8000CA
:1028A000C0B26DE0134B1B88D9053DD4DA060FD4B6
:1028B000980610D4590611D41A0712D4D80731D467
:1028C00013F0020F14BF4FF003084FF001082BE084
:1028D0004FF00D0828E04FF0090825E04FF00408FC
:1028E00022E04FF008081FE0980A00208C0A002020
:1028F0005C0A0020780A0020740A0020BC0B00202B
:10290000BD0B002004130020C80B0020740B002016
:1029100028000020CA0B0020600B0020580B00206C
:10292000C00B00204FF00208C24B93F80090C24B3E
:10293000C9F38009DB781BB149F002095FFA89F914
:10294000532009F095FCBD4B188800EB800000EB8C
:102950008000800080B204F0F5FD002004F0F2FD5C
:10296000B74B1888FE23584340F2FF3390FBF3F037
:10297000C0B209F06DFC002009F06AFC49EA880049
:1029800009F066FC04F0C0FD94F8C480B8F1000FB3
:102990001AD1DFF8DC924F2009F06AFCD9F8000068
:1029A00004F0BEFDD9F8040004F0BAFD404604F07E
:1029B000B7FD012009F04CFCA24B187800F0010093
:1029C00009F046FC04F0A0FD94F8C4300A2101335C
:1029D000DBB2B3FBF1F201FB1233C4F8C05084F850
:1029E000C43094F8C530002B00F03683964B1B683A
:1029F000002B00F031830AF01DFC44F61F62934B5C
:102A00000546D3F8C830C31A934240F2258302200A
:102A100004F04FFD002800F0868048F603418C4BFF
:102A20001A6849F6074312F0080F08BF0B46510712
:102A300044BF43F4005343F008039206326844BF96
:102A400043F4804343F0200312F0020116BF7B4899
:102A500008460088C3F3090E1FBF00EB800000EB9F
:102A60008000800080B2160549BF7A4A4FF0FF36D9
:102A70009679794A48BF32F93660E1B17749DFF893
:102A8000D49191F800806D4999F80120098808FBDC
:102A9000121C642101FB0CF199F800C0C2EB0C027E
:102AA00008FB02F2B1FBF2F2642AA8BF642222EA18
:102AB000E27252B200E06422029303930023ADF865
:102AC0001430ADF81A30ADF81C30ADF81E30ADF84A
:102AD0002030ADF82230ADF82430614BCDF810E055
:102AE0008DF82620ADF81600ADF8186002AA0DF199
:102AF000200E164603CE764518605960324603F123
:102B00000803F6D130681860B188B27999809A715B
:102B1000544B01227C211F20DA710BF0CBFD0BF00E
:102B2000B1FD0BF09BFD032004F0C3FC002863D033
:102B30004D4BD7F800A01B78002B00F003834B4AC5
:102B4000012BB2F800C040F2FE82022BB2F802E084
:102B500000F0FB82032BB2F8048000F0F882042B13
:102B6000B2F8069000F0F582052B168900F0F2828B
:102B7000062B508900F0EF82072B918914BFD28970
:102B8000002240F2FF3B2E4BADF81A201B8800229A
:102B9000C3EB032393FBFBF38DF81D30304BADF8F3
:102BA0000EE08DF81C20CDF808A0ADF80CC0ADF8F3
:102BB0001080ADF81290ADF81460ADF81600ADF8C5
:102BC000181002AA0DF1180E164603CE76451860AD
:102BD0005960324603F10803F6D13068F4211860D9
:102BE000B28816209A801F4B2322DA710BF062FD07
:102BF0000BF048FD0BF032FD062004F05AFC0028D3
:102C000000F0EC80124B1A689A4612F0200F00F088
:102C1000E5800C4BDFF85CB01B7813F0020F2BD073
:102C20009BF80030052B34BF4FF002084FF003082B
:102C300024E000BF5C0A0020A01B0020740B0020D1
:102C4000880B0020BC0B00204C280020041300201F
:102C5000740A00206C0B0020780B00202800002054
:102C60005828002050280020002A00209429002005
:102C7000D40B0020BD0B00204FF001080AF0DAFA57
:102C80009E494FF47A7E0B889D4E0EFB03F206920E
:102C90004FF6FF72029000209BF800B00390ADF851
:102CA0001C203068ADF81E20964A0DF1080E0490E5
:102CB0008DF8248070688DF825B08946B346F046BB
:102CC0001646914B0590B3F800C0904BADF820C06C
:102CD0001B880DF1200C03EB83035B00ADF8223061
:102CE000734603CB6345106051609E4602F10802B3
:102CF000F6D11868182110609B881E209380844BA1
:102D0000D97100930BF0D6FC0BF0BCFC0BF0A6FCC9
:102D10000AF090FAB9F800E04FF47A7C0CFB0EFE52
:102D2000DAF800C0009B1CF0140F99461EBF794BC7
:102D30004FF00A0C1B684FF00A0A18BF0CFB03FC8B
:102D4000754B08BFF446B3F90430CDF814E093FB9B
:102D5000FAF3C646DBF80020DBF804100392ADF866
:102D600022300022674BCDF818C002900491ADF8D4
:102D70001C20ADF81E20ADF820200DF1200C72466D
:102D800003CA624518605960964603F10803F6D1FC
:102D900010686821186021231C2089F807300BF087
:102DA00089FC0BF06FFC0BF059FC5C4B5A681B68FC
:102DB0000392029300230493434603CBC9F808000F
:102DC0001868716031232721B0600C2089F8073022
:102DD0000BF070FC0BF056FC0BF040FC0A2004F0EA
:102DE00068FB002846D04C4ED7F80090B6F900009A
:102DF00013F0C6F94A4913F0CBFA4A4913F014FA12
:102E00008046B6F90200404213F0BAF9444913F083
:102E1000BFFA444913F008FA0746B6F9040013F064
:102E2000AFF93F4913F0B4FA3E4913F0FDF900231E
:102E3000069307930893334B0497CDF80890CDF889
:102E40000C80059002AE08AF324603CABA42186041
:102E50005960164603F10803F6D11068272118605F
:102E60002B4B1E221C20DA710BF024FC0BF00AFC09
:102E70000BF0F4FB0B2004F01CFB002800F0EA80B0
:102E8000294B0026D3F8008018F020090BD01E4BE8
:102E9000188812F06BFD0022244B12F0F7FE13F09D
:102EA00065F8074600E0374618F0140F0AD0194BB2
:102EB000186812F05BFD00221C4B12F0E7FE13F0C5
:102EC00055F808E0B9F1000F04D00C4B188813F046
:102ED00053F900E00020104B0A22B3F9043093FBB1
:102EE000F2F2134BB3F90630B3F57A7F22DBB3F578
:102EF000FA6FA8BF4FF4FA631EE000BFC80B0020B2
:102F0000C00B002058280020CA0B0020CC0B00204A
:102F100050280020600B0020580B0020D40B00200C
:102F20000000204135FA8E3C740A00200000594010
:102F3000942900204FF47A73ADF81820A3F57A7322
:102F4000642253434FF47A7293FBF2F3ADF81A30D4
:102F5000B24B02AA0296039705961F4616460490A6
:102F60000DF1180C9646BEE80300E645186059605E
:102F7000724603F10803F5D1DEF800001421DFF8F2
:102F8000CC8218604A23084688F807300BF092FB81
:102F90000BF078FB0BF062FBA14B1B7803F00403F2
:102FA000002B0CBF4FF040094FF0C00903F0FF02A7
:102FB0009C4B1B78013BDBB2102B97BF9A494FF01B
:102FC000000B5B1893F82CB0984B1B8899071ABF1D
:102FD0004FF0000A49F010094FF0010A13F4027F84
:102FE00018BF4FF0020A13F0100F18BF4FF0060A77
:102FF00013F0200F18BF4FF0100A32B18C4BDB7862
:10300000002B14BF0523042305E00FF0C9FE0028A0
:1030100014BF022303238DF80F30334600224FF0F4
:10302000030E8DF80D208DF810E0CDF808A08DF876
:103030000CB08DF80E9003CB87F808E0386079600B
:103040000920322188F807200BF034FB0BF01AFB23
:103050000BF004FBC4F8C85094F8CC30002B00F0FF
:10306000D980744D704ED4F8D0000AF038FA002898
:1030700000F0D080D5F8D0000AF02BFA95F8D430C3
:1030800007461BB1013B85F8D430ECE76A490322BF
:10309000481E17F0CAF895F8D53095F8D62083F475
:1030A0007F4383F0FF039B1A9BB2B8B2B0EB132FA0
:1030B00085F8D870D7D195F8D710DBB28B42D2D132
:1030C0004CE098F802302BB1C5F8907088F8029067
:1030D000FFF7AFB8D5F89030FB1AB3F57A6FFFF46D
:1030E000A8A80123D5F8940088F802300AF0F1F975
:1030F0008046D5F894000AF0ECF918F07F0F7FF4C1
:1031000098A88A2803D08E280ED0FFF792B84B4B90
:103110001B689A067FF58DA895F88D30002B7FF4FB
:1031200088A805F1610306E095F88D30002B7FF447
:1031300080A805F13003C5F898302D2385F89C3020
:10314000FFF777B89C464FF0000E4FF000084FF0A5
:1031500000090026002000210A4612E595F8D93022
:1031600002F00F0013B908B185F8D90094F8D930EE
:103170009842FFF478AFC31AD9B202293FF673AF71
:1031800002F0F002802A08D1042360F07F008DF85D
:1031900008308DF80900022111E0902A13D1334440
:1031A00093F83D30062260F06F008DF80A3002235C
:1031B0008DF808208DF809008DF80B30042102A845
:1031C00004F032F94FE7A02A7FF44DAF334493F86F
:1031D0003D30022B19D0032B0AD0012B7FF443AFD3
:1031E00029690A23053191FBF3F101F5C8710AE061
:1031F000134B19880A23594395F8DA301BB1114B48
:103200001B7891FBF3F189B201E00F4BD98804F0F0
:103210003BF928E70BB0BDE8F08F00BF582800202D
:103220005C0A0020600A002078A60108780A0020C5
:10323000A01B002004130020DA130020740A0020D1
:10324000740B002028000020502D00205028002062
:103250009B4A2DE9F04F002313709A4B9046196852
:1032600053685160CB1A117A9748042908BF974ACE
:103270009BB297B008BF1380038009F0DBFF944B2B
:10328000944F1A88944B00971D680446934B9449B9
:1032900094481B6809680068A84798F80850042DEE
:1032A00004D109F0C7FF894B001B988009F0C2FFC9
:1032B000012D04900AD18C49D8F80C30834A096852
:1032C000C31A93805B1AD380C8F80C00874B8849D7
:1032D000DB78884A0593884B1C78032C17D98E8895
:1032E000B6F5FA7F13D2854BB2F904E0B3F9045076
:1032F000704285EAE57CACEBE57CCCEB00039E45B7
:1033000004DB06EB0C037345A8BF734693807C4B2C
:103310001D6815F0006511D1784B91F90280B3F961
:103320000690C8F10003B2F90480B2F902A003FBD1
:1033300008F8B2F900B0734E734B65E100263546CC
:10334000B24691F90270B2F902307942B2F90470D2
:10335000B2F900B04F43DFF8D091A24535D21846FC
:10336000079312F00DFFD9F8081012F05DFF0690D8
:10337000584612F005FFD9F8041012F055FF069ACE
:103380000146104612F048FE0690384612F0F8FE4C
:10339000D9F80C1012F048FF069A0146104612F0B8
:1033A0003BFE13F01DF900B20FAAA84222F81A0042
:1033B000079B02DCB04202DB2846054630460AF194
:1033C000010A09F110090646C7E7504BAD1B1A6800
:1033D0000FFA85FB12F4805F99464D4F33D04D4B69
:1033E0001B7813F0040F3B4B08BF1A8A188A4A4B0C
:1033F00008BFA8F8D0201B68484AB2F90660DA88EE
:10340000474B811A8E4204DCB3F90050B7F90040F3
:1034100006E00244964206DBB7F90250B3F90240D7
:10342000A8F8D06016E0B8F9D0209142A9BFB3F94E
:103430000050B3F90240B7F900402E46BCBFB7F9BF
:103440000250264606E02D4BB7F90040B3F906605E
:10345000B7F90250ADB2A4B2C4EB050A0FFA8AFA6A
:10346000D345304B62DD01221A70504612F088FEBF
:103470000546584612F084FE0146284612F088FFA1
:1034800083461D4A002513789D4211D20FAB33F9B4
:1034900015000792069312F073FE594612F0C4FE0F
:1034A00015F010FE069B079A23F815000135EAE790
:1034B00002239AFBF3FA544424B2254640E000BFAD
:1034C000E013002044260020700A00202A0C00206F
:1034D000D02B0020B829002024040020340C002028
:1034E000900B0020940B0020FC2D0020A01B00203E
:1034F000600A0020C02D0020EC2D0020502D00205F
:103500007C0A0020F8130020400B002090290020A6
:10351000A00B00205C0A0020A80D002094290020A8
:10352000A00D0020642D0020F013002000221A704E
:1035300002239BFBF3FB5C44CBEB050524B22DB2CD
:10354000D9F80020BB8802F480520A92B8F9D02042
:10355000B7F802A00692AA4AB7F80090128AA94FBB
:103560000792A94A4FF0000812680892A74A1188EA
:10357000B2F802B0A64A0991127852000B920B9A47
:10358000904500F00A810FAA38F8022030460C92CC
:103590000D9312F0F5FD9F4B53F8381012F044FED6
:1035A00013F01EF8A04221460C9A0D9B03DBA842A3
:1035B0000146A8BF29460A44059912B227F8022FEE
:1035C00019B19A4217DA1A461AE00A9989B108998C
:1035D0000798C988411A0698884206DC4A450EDBDE
:1035E00009998A42A8BF0A460AE05A4503DA5A46B0
:1035F00006E0914503DC5245A8BF524600E04A462A
:103600003A8008F10208BAE7A54206F11006824A9C
:1036100035D24846079312F0B3FD56F8181C12F045
:1036200003FE0690504612F0ABFD56F8101C12F047
:10363000FBFD069A0146104612F0EEFC0690584635
:1036400012F09EFD56F8141C12F0EEFD069A01468B
:10365000104612F0E1FC0690404612F091FD56F83B
:103660000C1C12F0E1FD069A0146104612F0D4FC43
:1036700012F0B6FF079B23F815000135C4E7B2F935
:10368000001001239C4206D932F913000133814214
:10369000B8BF0146F6E7614BB7F810E05888604BB9
:1036A00081421B68C8BF091A03F480520C925D4A1C
:1036B00003F0100392F801905B4A0D93B2F90650A3
:1036C000514AC8BF09B21268D8BF002106924F4ABA
:1036D000B2F800A0B2F802C00FFA8AF208924F4A7C
:1036E0000FFA8CF6B2F80080079696887A8A0FFA5D
:1036F00088F30992484A0B9333B20A9302EB4404CD
:1037000094424AD013880C9F5B1A1BB222F8023BEA
:10371000F7B1B9F1000F08D1069FFF88C7EB0E0B78
:103720005D4502DD7744BD420BDB754503DD634536
:1037300014DA63462EE0B34214DB5345A8BF534668
:1037400028E07545CCBFBDF81C30BDF8203021E025
:10375000059F4FB132F9023C9E4203DC8342A8BF71
:10376000034617E0334615E0434503DB8342A8BF19
:10377000034600E0434622F8023C099B9D42BFDA23
:103780000D9B13B1BDF8283004E0B9F1000FB7D19B
:10379000BDF82C3022F8023CB2E7244B1A7802F034
:1037A000040202F0FF0322B9194A1B49127820488B
:1037B00005E01C4B1A78192A00F2468107E0934273
:1037C000F7D230F8134021F813400133F7E7012313
:1037D00003FA02F2174B1340002B00F03581164B11
:1037E00007481B88104913F4807F29D0134B1A888F
:1037F000ADF83C205A889B88ADF83E2035E000BFEC
:10380000B82900203E0B0020A80D0020A00D0020AC
:10381000EC2D0020F0130020400B0020A00B002016
:1038200090290020600A0020942900205C0A0020D2
:10383000180F002032413003780A0020502D00205C
:10384000B54B1A88ADF83C205A88B3F90430ADF86E
:103850003E20B24AADF840301268D20407D5B1F923
:103860000640028A944202DA5B42ADF84030AC4D29
:103870004FF47A72B5F902304FF4616403F5E163F5
:10388000534393FBF4F3A3F5FA73ADF85430B5F951
:10389000003003F5E1635A4392FBF4F2A14BA2F529
:1038A000FA721B88ADF85620A3F2DC530A88ADF8F3
:1038B0004230038AD21AADF844204A88D21AADF8B1
:1038C00046208A88D21AADF84820CA88D21AADF8A4
:1038D0004A200A89D21AADF84C204A89D21AADF88A
:1038E0004E208A89D21AADF85020CA89D31AADF871
:1038F0005230002319468C4A22F813100133082B4A
:10390000FAD18A4B8A491B688A4D08938A4BDFF8A3
:1039100018A21B684FF0640E0593884B4FF0010905
:103920001B78C3EBC303CB180993099B8B4271D05F
:103930000B7833B11533DBB2089A09FA03F313405D
:1039400064D0059B11F806CC0C2202FB0C38B8F9A8
:103950000230B8F9002011F9010C9A1A11F9023C51
:1039600092B2534393FBFEF34FEA520B11F8057CDE
:10397000CBEB0303079011F8030C1BB206937E00F8
:1039800028B916A8064436F81C0C288019E016AB96
:103990001E44B5F9004036F91C6CB44208DA2044E4
:1039A000844203DC86423446A8BF04462C8008E0EB
:1039B00007DD201AB04203DB8442A8BF0446264636
:1039C0002E80D8F8080009FA07F73842B5F90060E8
:1039D00011F9040C069B00FB06F090FBFEF00CBFF7
:1039E00001244FF0FF34984209DB079B5A4392FBB6
:1039F000FEF2CBEB02031BB28342A8BF03463AF8A8
:103A00001CB004FB03B32AF81C3000E02B80023505
:103A100007318AE7484B4A4ED3F8008000254FF023
:103A20000C09642709FB058393F9064036F9023F28
:103A3000E8B25C4394FBF7F434800CF0EFFD013501
:103A40002044082D3080EDD1344D3B4C2B6813F0D1
:103A5000200F33D000200CF0E1FD334E07463080BC
:103A600001200CF0DBFD314B70801B681B0625D557
:103A7000344B2B4AD3F8F4301B78012B25D1D4F8E2
:103A80000080B2F9021098F906304FF0320C5B4218
:103A90004B4393FBFCF3B2F900201FFA83FE98F925
:103AA00012306FF03101534393FBF1F193FBFCF3C0
:103AB0007144791A7344318018447080DFF8808033
:103AC0002368424603F1600619E0D4F800E0B2F939
:103AD00002309EF906105943322391FBF3F1394429
:103AE00031809EF91270B2F9001001FB07F292FBCF
:103AF000F3F21044E1E70C33B342118024D032F9E1
:103B0000020FB3F90010B3F902708842F3DB874269
:103B10003946A8BF0146EEE7C02D002090290020BD
:103B2000580B0020400B0020BC0A00207C0A00201B
:103B30001A2E0020B2140020081A0020132E002094
:103B4000BA0A0020E01300209E4E96F90C3093B97B
:103B50003378013B182B75D8DFE803F03574744FC8
:103B60007474744874747474745A74747474744F80
:103B70006774745A3500DFF8889200274FF01C0AEA
:103B80004FF00C0B38F9020F12F0FAFA01460AFB5B
:103B900007900FF05FF915F095FA236800B20BFB60
:103BA0000733A8F80000B3F90020B3F902309042BF
:103BB00003DB8342A8BF03461A460137082FA8F843
:103BC0000020DFD1C4E7B3791BB17F4B00205989B6
:103BD00008E07E4B1B7803F0040303F0FF01002B89
:103BE000F3D1084609F0FEF901242CE0764C0020C0
:103BF000E18809F0F7F9218905E0734C002021895B
:103C000009F0F0F96189012009F0ECF902241AE0C9
:103C10006D4F0224A01E37F81410C0B2013409F011
:103C2000E1F9082CF6D106240DE0674F0324E01ECD
:103C300037F81410C0B2013409F0D4F9072CF6D1CA
:103C4000042400E000242B68990602D43378052B65
:103C50000BD15D4E2046318809F0C4F9601C718893
:103C6000C0B209F0BFF90234E4B22B68DA0206D41C
:103C7000574C94F8D83173B10CF0EAFC0BE0554E78
:103C80000025601936F8021FC0B209F0ABF90D2DFE
:103C9000EED00135F5E7237A042B05D109F0CAFAF5
:103CA000049BC01A4C4BD88009F0C4FA4B4B0790C8
:103CB0009B680BB14A4898474A4B4B4E1B684B4D8B
:103CC00013F4801F5ED0298801F400618FB2002FA9
:103CD00045D13E4B1B785B0741D54FF400600DF09A
:103CE000D3FFD4F8DC014FF47A7302893946534389
:103CF0003F4AB8461288D6F800E093FBF2F33D4AFB
:103D00005B421BB292F800C0A4F8E031C778027899
:103D10000FB1BA4204D8BCF1030F03D8022901D174
:103D200080F803809EF800700130974238BF8EF80B
:103D300000201EF8017B264ABF0102F5F17929F81F
:103D4000117002F5F47727F8118002F5F77727F85C
:103D5000113001310329D9D1012382F8F4312B88A4
:103D60001D051AD4194B1B7803F0040303F0FF055B
:103D70009BB994F8F43183B10EF0E4F8144B83F856
:103D8000F4510AE02B88180507D5104B1B7859070A
:103D900003D54FF400600DF067FF174A174B156805
:103DA000B3F906306A8993422CDBB3F5FA6FEC79EC
:103DB000BFBF9B1A6343C2F5FA6493FBF4F4C4F1EA
:103DC000640420E0600A0020BC0A00205C0A002095
:103DD000E01300209A2900202A0C0020281E002031
:103DE000BA1500207C0A0020940B0020780A0020DD
:103DF000700A0020EC2D0020900B00209429002058
:103E0000D81400206424BC4B0021B3F810E0BB4B55
:103E10006420D3F800C03368B94E0593133306937A
:103E2000B84B4FEA410833F91190CEEB0903002B50
:103E3000049305DDB3F5FA7FA8BF4FF4FA7306E0EB
:103E4000C9EB0E03B3F5FA7FA8BF4FF4FA7302294A
:103E500004932ED09CF800202AB1049B9A42B4BF50
:103E60009B1A00230493049B6FF0630B93FBF0F207
:103E7000A54B02F1010A33F9127033F91AA0049B21
:103E8000C7EB0A0A0BFB023202FB0AF292FBF0F2CA
:103E90003A4426F808206A18127953439B4A93FB48
:103EA000F2F364339BB26343994A93FBF0F35454A7
:103EB0002FE09CF801202AB1049B9342CCBF9B1AAF
:103EC00000230493049B6FF0630B93FBF0F2914B80
:103ED000571C33F912A033F91770049BCAEB07077C
:103EE0000BFB02327A4392FBF0F292449CF90420DD
:103EF000002BC2F100020AFB02FAA6F804A0AA797C
:103F0000B8BF5B425343814A93FBF2F3804A643368
:103F10009070059A804F525CF14503FB02F292FBD0
:103F2000F0F27A54069F17F8012F03FB02F393FB7C
:103F3000F0F37A4A06975354B8BF36F8083001F1C7
:103F40000101BCBF5B4226F8083003297FF468AF4B
:103F50006C4BB3F90650684B5E8AB54206DBB5F58B
:103F6000FA6F2A46A8BF4FF4FA6200E032464FF4D7
:103F70007A73921B5A43C6F5FA61B2FBF1F16424DD
:103F800091FBF4F3664A5F1C32F9130032F91720F3
:103F9000DFF86C81171A6FF0630202FB03127A4399
:103FA00092FBF4F31C185F4BA4B21F88A8F80640DC
:103FB0007A0644D55C4B0A20B3F9043093FBF0F049
:103FC0005A4B1B88C01A00B212F0DAF8584912F0A6
:103FD0002BF981460FF0B2F9824648460FF03EF9C0
:103FE0008146B8F9020012F0CBF88346B8F9000018
:103FF00012F0C6F801460690504612F015F95946DF
:104000000490484612F010F9049A0146104612F046
:1040100001F812F0E5FA5946A8F80000504612F0EF
:1040200003F9069B82461946484612F0FDF8014600
:10403000504611F0F1FF12F0D3FAA8F802003D4B00
:10404000DFF810811968994611F0140F00F0A28072
:1040500017F4027F00F09E80374B294A1B7803F04B
:10406000100303F0FF0C43B1344B98F9F5011C68C1
:10407000538804FB003353808CE0204B1868304B8E
:1040800090F803E0B3F900308078BEF1000F20D043
:10409000C3EB050A8AEAEA7EAEEBEA7E86450DDDD1
:1040A000DFF8B4E09D42C8BF4042CEF800C00444EF
:1040B0004FF0010E88F8F6E1D4806BE098F8F63105
:1040C000002B57D01F4B88F8F6C118681E4B18609C
:1040D00050E0EB1A83EAE374A4EBE37484423DDD21
:1040E000022093FBF0F31948036019480123037081
:1040F00088F8F6313EE000BFB8290020A80D002066
:10410000502D002094290020122B00200CFEFFFFD0
:10411000ED2D0020042B0020802D0020BC2D002040
:10412000EC2A0020780A0020580B002026170020D7
:1041300035FA8E3C740A0020BC0B00209826002023
:1041400094170020600B0020E40B00208C26002038
:104150009C260020E01300209426002098F8F631D9
:1041600043B1AF4B88F8F6E11868AE4B1860AE4B20
:1041700083F800E0AD4BAE4CB3F90000AD4B1B68CB
:10418000034420886488834203DB9C422046A8BF06
:104190001846D0800B0736D5A748A84A84880A213C
:1041A00004F10E039BB21C2BA54BB3F9043027D8A6
:1041B00017F0040F24D093FBF1F11288A14B891A58
:1041C00089B20AB212F1B30FBCBF01F5B4710AB2E1
:1041D000B32A1B78C4BFA2F5B47212B21B0712D562
:1041E000994B1B6893F90410059B49424A431B7A7B
:1041F00012B25A431E2392FBF3F3E31A838002E0C8
:1042000093FBF1F31380914B1B7883B1B5420EDC25
:104210008F4A1378012B01D0192B01D1927932B931
:104220000E2B04D0082B1EBF834B00229A80894B93
:104230001B689C786CB3BF072BD0874B87491D6ADE
:10424000284612F099F9F8B928460EF04CFF844B35
:10425000196811F0E9FF14F035FFB0F5617FA8BFD0
:104260004FF4617011F08CFF7E4912F091F80EF05E
:10427000F5FF0546204611F083FF294611F0D4FFD3
:1042800014F020FF00B200E000206B4AD3881844ED
:10429000D080754B9B7B002B61D0744B1B78002B1F
:1042A0003BD0734BD3F81421B2F57A7F05DB44F68B
:1042B00020639342A8BF134601E04FF47A736D4A1E
:1042C00003F57A7312689BB2B3FBF2F3581C80B209
:1042D000B8F9FAE1DFF860C1A8F8F8010022664CED
:1042E0003CF9126004F5FE7737F9121004F50175F8
:1042F0000EFB01F191FBF0FA35F8121025F812606F
:10430000711A514427F812100132042AE7D1574A92
:1043100000211170A4F8FA3104E0B8F8FA31013B39
:10432000A8F8FA31B8F9FA41534A002C4FF00003CB
:1043300013DD414EB2F9F85102F501724F4932F8DE
:10434000130031F91310614391FBF5F1411A26F87E
:1043500013100133042BF1D101E0A2F8FA31D9F89E
:1043600000309E0640F1C880454B1B8803F03003A7
:10437000002B00F0C180334B1B78DD0740F1BC807F
:104380002F4BDFF80CB1B3F904000A2390FBF3F0D4
:1043900011F0F6FE3B4911F047FF04460EF05EFFB8
:1043A000074620460EF0CAFF374B06461B68374DBE
:1043B000DB78002B70D0DFF8DCA0BBF90200BAF983
:1043C00002900493C9EB000006F062F8049B5C4283
:1043D000A04203DB9842A8BF184600E02046BAF985
:1043E00000208144BBF900000FFA89F9801A049279
:1043F0000593AAF8029006F04BF88442049A04DC74
:10440000059B8342A8BF03461C46144424B2484679
:10441000AAF8004011F0B4FE8146204643E000BFF8
:10442000600B0020E40B00209C2600209617002043
:10443000A00B002098260020502D0020F00E002018
:10444000580B0020BC0B0020A80D002010000020FD
:10445000600A0020D82B0020642F00208FC2753CFA
:10446000E82B0020EFB6B044B829002088170020C0
:1044700040000020FC2D0020E0130020DC1500206F
:10448000780A002035FA8E3C28170020742D002071
:10449000321700202E170020BBF9020011F070FE29
:1044A0008146BBF9000011F06BFE494604463046D8
:1044B00011F0BAFE21468246384611F0B5FE01469B
:1044C000504611F0A7FDA74911F062FF12F088F8DD
:1044D00049462880384611F0A7FE21460746304657
:1044E00011F0A2FE0146384611F096FD9D4911F0EB
:1044F0004FFF12F075F868809B4B1878002840F049
:10450000E2819A4D2B681C0340F1DD81984C2378A1
:10451000033B052B1DD8974B9B7833B1012B08D15A
:1045200006F090FAC0F17F0003E0D8F80C0208F022
:10453000D3FFD8F8103298F814221344B3F5807FD3
:10454000A8BF4FF480738342D4BFC8F81032C8F8B4
:1045500010022378023B092B00F2B081DFE813F050
:104560000A0015004A006D0083009C00AE0068013F
:10457000850190010023C8F81032C8F818327E4B2C
:104580001B68C8F81C32032397E17B4B1A68D8F8E4
:104590001C326433934280F09181402010F0C2FDC0
:1045A000002840F08B81754F754D4026D8F81832A1
:1045B000F85C78B110F08EFED5F81032013E03F1B0
:1045C000FF33C5F81032D5F8183203F10103C5F8EE
:1045D0001832EBD1D8F818226849694B8A5C002A56
:1045E00040F06C81C3F818224FF0FF32C3F81C2250
:1045F000042362E1634A5021A2F10C0301932623B4
:10460000029200934920A2F10A03163A02F0B0FA8E
:10461000002840F053812B684FF0FF3213F08003E5
:104620000FBFC8F81832C8F81802C8F81C220523B2
:1046300004BFC8F81C2207233FE102230093524B1A
:10464000002102910191A3F10802482002F090FAA2
:10465000002840F033814FF0FF33C8F81C32C8F80F
:104660001802062329E1494A0725A2F10C03029208
:1046700001930095A2F108030021143A472002F0AB
:1046800077FA002840F01A814FF0FF33C8F818027B
:10469000C8F81C32257011E1052300933C4B002122
:1046A00002910191A3F10802532002F061FA00285F
:1046B00040F00481C8F818020823FEE0402010F002
:1046C00031FD002840F0FA80D8F818320D2B00F2A6
:1046D0000F81DFE803F0070B0E12171F292D31356C
:1046E000398D95992B4810F0BFFE9BE02A492B4845
:1046F00017E02B4A2B492C4892E01E4B2B485A7846
:1047000019788DE02A4B2B4A2B491B6812680968DF
:104710002A4872E02A4B2B481A780C2353432A4A22
:10472000D15C10F0A1FE7DE0284B29481988F8E7FC
:10473000264B28485988F4E7274B2848D968F0E7E2
:10474000274B28481989ECE7D8F82032D80403D53C
:10475000254B26481978E4E7094B0C22C3F81822A8
:1047600060E000BF00002041300A002090290020B6
:10477000320F00209B0D002040270020B8A6010822
:10478000E01300202EA70108E8A8010804A90108E9
:104790004CA90108E7C701080FC7010801C80108B3
:1047A00006C70108FAC6010816C801082AC8010888
:1047B000F0F7FF1FECF7FF1FE8F7FF1F3BC80108EA
:1047C000840A00204FC80108EC180020A00B00202C
:1047D00059C8010868C80108281E002077C80108C8
:1047E0008C0A002087C80108F829002091C8010818
:1047F000464947480B788A78497810F035FE11E031
:10480000B8F8241243488CE72B6819050AD53F4BAA
:1048100041489A79414B03EB8201498833F92220C0
:1048200010F022FED8F818320133C8F8183245E0EB
:104830003B4B1B689A0115D5B8F82832394D8BB916
:10484000D5F82C320FA90F93374B0E201B6810930D
:1048500002F032F94FF48053A5F826320A23237070
:1048600002F00EFB02F00AF928E098F83032002B33
:10487000F6D02B4B1B689B01F2D409232370F1E780
:104880002A4B1A68D8F81C32C833934203D2284BFB
:104890009D788DB904E010F089FC0028F7D10DE077
:1048A000D8F80C0208F0E8FB98F83132C8F80C523E
:1048B000022B01D108F09EFD0123237010F060FC53
:1048C00008B10123237098F80830042B06D108F0B2
:1048D000B1FC079BC01A174B588013E0052B11D170
:1048E000154A144B12889A80DA880132DA8009E07E
:1048F00010F05CFC0028E1D04FF48053A8F8263279
:104900000A23DAE717B0BDE8F08F00BF6C0B002078
:104910009EC80108B7C80108C2C80108420C00209F
:104920007C0A0020E01300204426002040270020BD
:104930009B0D00202A0C0020700A00209F492DE9C1
:10494000F04F0A689E4C02F59C43203323609D4B38
:104950008DB01E78049126B99B4FDFF884A2B8462B
:1049600016E09A4909688A4240F2FD80013E1E70B5
:10497000F9E0072D94BF15F80A102946D8F804303D
:1049800091489847032D09D904EB4505A8800136C5
:1049900097F80090F5B24D45EBD31EE00028F3D018
:1049A0008B4A4FF47A7332F8251002EB8502401AD5
:1049B000584353885B1A90FBF3F040F6C90300F5A7
:1049C0007A70984205DC40F2EE239842B8BF184650
:1049D00001E040F6CA0080B2D6E742F201087D4B02
:1049E0001B6803EA08087C4B1B680193B8F1000FB1
:1049F00006D094F8293084F82830784B5A781A7009
:104A000094F828301BB1754B1B7883F00103009399
:104A10000F2384F82A30724B94F82BB0B3F816A009
:104A20001B8B03200293BBFBF0F303EB4303C3EBAD
:104A30000B03DBB20393019B6A4E03F59673059358
:104A4000694B0025A6F12C0706904D454DDA0098DC
:104A500008B3664830F81500504502D3029A9042D8
:104A60001DD9634A52F82500019A904202D933F8C1
:104A7000150018E0E8B2079304F063FE032D079BCE
:104A800011DC97F82AC0012202FA05FE2CEA0E0E6C
:104A900087F82AE007E0BAF1000FE2D15046059A04
:104AA000534941F82520B8F1000F19D0039A97F81F
:104AB000BCE026F81200BEF1000F06D1BBF1020FD8
:104AC0000ED94FF0010287F8BC20B6F802E030881A
:104AD000069A7044B6F804E0704480B2B0FBF2F07D
:104AE00023F8150006360135AFE794F82A303A4A24
:104AF0000F2B0CBF0123002384F8BD303D4B12D196
:104B00003D4909684D0103D532490968C8050AD4F1
:104B100012689A60DB68D21AC82A1FD9354B012265
:104B200083F821201AE02D4901201268487008708E
:104B30009968DA605B68521A9A4284BF2D4B002252
:104B4000294E88BF83F821200025A94506DDE8B25B
:104B500004F0F7FD26F815000135F6E794F82B3040
:104B6000013384F82B301B4B1A689B4612F4805F8C
:104B700005D0214B1B68D90701D40EF0DDF8049B4A
:104B80001E68174BD87A0093002839D0164A5B7BF1
:104B9000013832F910001BB1C0F53B60083000B29B
:104BA000A0F57A70B0F57A7FA8BF4FF47A7020EA4A
:104BB000E07011F0E5FA11495AE000BF44260020E8
:104BC0003C1600209C1B0020002A0020981B00207F
:104BD000C41B002090290020402700201500002041
:104BE000B8290020681600209429002040160020D3
:104BF000B0160020A01B00207C0A002000007A4490
:104C0000DBF800301A043CD5D4F8C030A84AF31AB7
:104C1000002B36DB06F59C432033C2F8C030A54B91
:104C2000597AA54B33F811108BB20099097B93FB8D
:104C3000F1F192F8C430013303F00F0382F8C4306D
:104C4000134483F8C5100346C532815C01300B4420
:104C500010281BB2F9D193FBF0F000B2002803DB5F
:104C60006428A8BF642000E0002011F089FA93496D
:104C700011F08EFB924911F0D7FA11F0D7FC914B4D
:104C80001880DBF80030904D13F4807F00F0F48042
:104C90008E4BDFF83CA29E4205D99AF8022012B949
:104CA00001228AF802209AF80220002A00F0E4800B
:104CB000874A2E7892F82170864A012F116806F0F3
:104CC000040601F080630293DFF818820CBF002312
:104CD0000323DFF81492F6B2039201939AF820208E
:104CE000052A00F2C480DFE802F003475A7E8DAC4B
:104CF000AEB3794A1268D08809F036FD012808D190
:104D0000B9F80510D8F80020642000FB0122CAF889
:104D10001020029B53B199F804203AB10CF0C4FF63
:104D200003228AF820204FF47A7235E0012F00F038
:104D30009E80D8F80010DAF81000654A88420AD23E
:104D400004920CF0B1FF049A032182F8201040F67F
:104D5000B831D161C2E7012182F82010BEE7029B81
:104D60004FF4806013B10CF08FFF01E00CF07CFF7A
:104D70000022CAF810207AE0012F56D099F80720B7
:104D8000012A02D00CF090FFA8E70CF08DFF03225F
:104D90008AF8202040F6B832CAF81C209EE7012F7E
:104DA00004BF05228AF820207EB1009B4B4AB3F94C
:104DB0001010022311805180918099F8021099F807
:104DC0000300019341EA0021D180D8F80020DAF8ED
:104DD0001410914201D3002E46D147F23052CAF846
:104DE0001C20032222E02A7842F002022A700DF0F1
:104DF000A3FFD8F80020DAF81C100A44CAF81820DB
:104E0000042213E0012F14D1D8F80020DAF818108A
:104E100091422CD2324B1A781AB9039B1A68D307E5
:104E200025D42A7822F002022A7005228AF820204E
:104E300054E72C4ADAF81C1012680A44CAF8182001
:104E400015E0B9F80510D8F80020642000FB012215
:104E50004FF48060CAF8102000228AF820208AF8D7
:104E600003200CF001FF39E7012F3FF437AF019B1E
:104E700013B118460AF06AFF174B184E1B68D88802
:104E800009F072FC009BB6F902201B8A814603F1EF
:104E90000B0191422ADB0B3B9A4227DBB6F900203B
:104EA000914223DB9342CCBF002301231FE000BFCC
:104EB0003C1600200C2000201C2000200000C842CE
:104EC00000C07F44880B00205C0A0020404B4C004F
:104ED000A01B00207C0A0020A80D0020942900209F
:104EE0001000002040270020AC0B00200023B9F167
:104EF000000F0FD1954A1268100111D5944AD2784B
:104F000072B92A7851070BD523B1924A137843F02E
:104F1000200303E08F4A137823F0200313700CE082
:104F20008D4A00238D48136053608D4A0021036031
:104F3000116043605160836091602B785A0736D5C9
:104F4000DBF80030DB0632D5824B1B78DF062ED42F
:104F5000844B1B7893B1844B9B78B9F1000F15D12A
:104F60007BB1824B1A68D4F8D8309B1A002B08DA30
:104F70000DF0E2FE7E4B83F8DC9018E0B9F1000FF3
:104F80000DD110200AF0E2FE01230EE03BB1774A7A
:104F90004FF47A71126801FB0323C4F8D83094F8F7
:104FA000DC3023B10AF0BAFB002384F8DC306E4B0E
:104FB00000221F785978009BB3F812E0B3F814C0B0
:104FC000134636F912009B087045C4BF63F07F0397
:104FD000DBB201326045B8BF43F04003042AF0D190
:104FE00094F8DD2062489A4205D190F8DE20F92A33
:104FF00004D8013200E0002280F8DE2084F8DD30A1
:10500000584B1A789846EAB9504B1B68D80708D510
:10501000B9F1000F16D12B78D90713D50DF0E2FCAA
:1050200010E02B785A070DD5514B93F828304BB12F
:10503000474BDB7833B911B10DF07EFE02E0B9F1D8
:10504000000FF9D094F8DE30DFF82491142B40F0F3
:105050009E8098F800302BB399F8DD305F2B0DD18E
:105060002B7803F0040303F0FF0A13B10DF064FE84
:1050700004E00B200AF06AFE89F8DEA097B194F8EC
:10508000DD307D2B0ED12B7803F0040303F0FF09F4
:1050900013B10DF051FE05E00B200AF057FE344B22
:1050A00083F8DE902B7803F0040303F0FF01002B5C
:1050B0006DD194F8DD302E4A572B10D14FF47A730E
:1050C000A2F8E030DBF800301B0601D505F088FAC5
:1050D000284B1B685F075AD50A22274B33E0DBF8C1
:1050E0000000400717D55A2B15D192F8E2302BB1AA
:1050F000012382F8E21082F8E33048E092F8E430CD
:1051000083F0010382F8E4300BB10C2000E00D20A5
:105110000AF01CFE3BE05D2B00F0F6845B2B00F0F8
:10512000F5845E2B00F0F484562B01D10CF00AFFBD
:1051300098F8003023BB94F8DD30972B40F0C28400
:105140000E4B4FF4C8721A8021E000BF7C0A002089
:10515000A01B0020BC0B0020782D0020582D002023
:105160006C360020100000208B0B00204027002010
:105170003C160020740A00204C260020300F00202E
:1051800094F8DD306F2B40F095840DF02BFCDBF8AC
:1051900000305F0736D594F8E430AB49AB4A8BB1A9
:1051A0002B7858070ED5009BB6F906005B8A98420B
:1051B00008DD136813F0010302BF3220A1F8E600F6
:1051C00081F8E4301368D9030DD594F8E8209E4B9C
:1051D0002AB993F8E22012B93222A3F8E62001237B
:1051E00084F8E8300EE094F8E230974A53B12B7817
:1051F00003F0040303F0FF0123B9012382F8E21056
:1052000082F8E330924B00271B684FF001089D1C89
:1052100003F152062A786B789A420AD2294615F889
:10522000010C09F0F3FF20B115F8023C08FA03F372
:105230001F430435B542EDD1844B1F60854B1E786A
:105240004EB1824EDFF82C923368834F13F0020F79
:1052500040F0F481EBE1814BDFF81C921F684FF0C6
:1052600001087D1C0323493729786A7805F1FF3A44
:10527000914229D2294615F8010C019309F0C6FF85
:10528000019B08B328790C2202FB00FE09EB0E02F9
:105290009168514518D0C2F808A0E978566009F81D
:1052A0000E10A97808FA00F05170A9780C2907BFF0
:1052B00082F80280D370967082F8038094F8E92017
:1052C00022EA000084F8E9000635AF42CCD1644BF5
:1052D000644ED3F80090644B4FF00008D3F800A060
:1052E00094F8283001933778002F00F09781D6F892
:1052F0000330C3EB0A03002B0CDB0AF5FA73C6F884
:105300000330012303FA08F294F8E93023EA020398
:1053100084F8E930019B002B00F0808116F8013CF5
:1053200072780433DBB2002A40F02C814F4A32F904
:105330001320009B1B8A03F1C8018A4201DDB57866
:1053400013E0C83B9A4202DAB5786D420DE00123C2
:1053500003FA08F294F8E93023EA020384F8E9300A
:105360000AF5FA73C6F8033058E194F8E93043FAC5
:1053700008F3DA0700F15281002DCCBF0220012092
:105380000AF00EFD7B1E132B00F28B80DFE803F08A
:105390000A0F192333394A7689898989232D394A95
:1053A00076445581FA232A460121484604E02A46DC
:1053B0006423022109F1010009F0B2FA09F008FFA3
:1053C00024E1032164232A4609EB010009F0A8FA2D
:1053D00009F09CFE1AE164232A460D2109F105001B
:1053E00009F09EFA0D2F00F0118164232A460E2148
:1053F00009F1040053E0FF232A46052109F10600C4
:10540000BDE01B4B2A4618680F21C823013009F064
:1054100087FA0F2F00F0FA801548C8232A46122178
:1054200000683CE0124B2A4618681021C8230B3054
:1054300009F076FA102F00F0E9800D4B2A46186823
:105440001321C8230A302AE03C1600207C0A0020E1
:10545000980B0020300A0020780A00209C0B0020C6
:10546000900B0020252B00204027002094290020AD
:10547000940B0020740A0020242B00209C4B2A4609
:1054800018681121C823153009F04AFA112F00F0CD
:10549000BD802A46964B14211868C823084409F099
:1054A0003FFAA7F109031D2B00F2B080DFE803F0FB
:1054B0000F1317AEAEAEAEAEAEAEAEAE272B2F57BD
:1054C0005B5F5333373B3F43474B4F1B1F23884B97
:1054D000186802304EE0864B18680C304AE0844B66
:1054E0001868163046E0824B1868073042E0804B5F
:1054F000186811303EE07E4B18681B303AE07C4B58
:105500001868033036E07A4B18680D3032E0784B7B
:10551000186817302EE0764B186804302AE0744B78
:1055200018680E3026E0724B1868053022E0704B88
:1055300018680F301EE06E4B186819301AE06C4B7B
:105540001868063016E06A4B1868103012E0684B95
:1055500018681A300EE0664B186808300AE0644B91
:105560001868093006E0624B1868133002E0604B9F
:1055700018681D30002849D02A463946C82309F04A
:10558000CFF943E0012A41D15A4A32F91320B2F54A
:10559000617F05DB40F633039342A8BF134601E069
:1055A0004FF461730C2F31D1B0784FF4966292FBB7
:1055B000F0F0A3F5617393FBF0F3DDB24E4B1B7873
:1055C000AB4223D0032D38BF2B464B4A28BF0023C4
:1055D00013704A4A07FB0323494A136009F0F8FD98
:1055E00009F0DCFD09F092FD464B1B681B0309D551
:1055F000002309A90D208DF824700A958DF8253017
:1056000001F05AFA681CC0B20AF0CAFB012303FA7F
:1056100008F294F8E930134384F8E93008F10108FE
:10562000B8F1040F06F10C067FF45DAE09E6DBF875
:105630000030DD0511D5344BDB7873B1D9F800307B
:1056400098070AD53D8815F001050BD12F4B012095
:105650001D605D600CF018FB05E001200CF004FB00
:10566000012500E00025336859070FD575B10120E9
:105670000CF0FAFA3B8803F002039BB24BB9234AC1
:105680000220136053600CF0FFFA02E002200CF0DD
:10569000EBFADFF884803B88D8F80820B8F80C10C3
:1056A00013F0030F14BF51611161D9F8002012F0FB
:1056B0000A0F41D03268D2060DD55B070ED4042004
:1056C0000CF0E2FA124B0A22B3F9043093FBF2F326
:1056D000104A138002E004200CF0C6FA33689D06DD
:1056E0001CD53B8858061CD440200CF0CDFA18E09D
:1056F000940B002094290020721B0020EC1800203D
:10570000900B002090290020A01B0020782D002065
:10571000580B0020F00E00202827002040200CF01D
:10572000A3FA3368590607D5AE4B0A22B3F9043001
:1057300093FBF2F3A4F8EA30D9F800309A0608D4C3
:1057400033681B0540F190804FF480700CF09CFA98
:105750008EE0A54B1B789D074FD5A44B1B78042BDF
:105760004BD9336813F4007A0ED03B88D80638D46E
:1057700010200CF089FA20200CF076FA9C49081FC2
:1057800004F098FE022228E03D8805F01005ADB235
:1057900035B110200CF068FA964B012583F800A073
:1057A0003368590512D5D4F8EC3093495A89B1F9C8
:1057B0000030002BB8BF5B42934207DAB1F90230E8
:1057C000002BB8BF5B429A4200F3C3813B889A0624
:1057D00008D520200CF048FA0022864B01251A70CB
:1057E00000E0002594F8F030B3B90E200AF0AEFACC
:1057F000824B012283F8F0200EE03B8803F0300357
:10580000002B9DD010200CF02FFA20200CF02CFA49
:10581000784B00221A7001E0002D91D078490023C6
:1058200000220B80A4F8F230A4F8F630C4F8FC2073
:10583000C4F80031C4F80421C4F82421C4F8283184
:10584000C4F82C214B80A4F8F430A4F8F830C4F844
:105850001021C4F81431C4F81821C4F83821C4F850
:105860003C31C4F840216BE74FF480700CF0FCF938
:10587000644B1B78082B01D00E2B02D140200CF07A
:10588000F3F9DBF800305B051BD55F4B1B7823B9C0
:105890005E4B1B7813F0040F02E0336813F4002F03
:1058A0000AD05B4B00221A7040F23C5009F018F805
:1058B00038B107F0F5FBF7E706F0A8FD08B107F0EF
:1058C00099FD012384F84C31504B4C4D1A789B467E
:1058D00012F0040F05D0D8F80030B8F804205A614F
:1058E00075E0D6F800A01AF0010F04BF42F00102E3
:1058F0001A70484BD87810F043FC474910F094FCDC
:105900000DF01CFD454A0090146A214610F02AFE55
:1059100028B99BF8002022F001028BF800200DF03E
:105920003FFA18B93E4A1288642A05D99BF800202C
:1059300022F001028BF800200DF032FAB0B91AF013
:10594000806F16D1374B93F82030032B11D02146AE
:10595000009810F007FE78B1334B1B787BB9304BC1
:10596000324C1B88642B98BF00240AE048F255147F
:1059700007E040F6150404E042F2550401E040F26D
:105980000524C5F8504107F055FCD5F85431C31A29
:10599000002B1CDD264B1A68012A9FBF174A1C608A
:1059A0000021C2F850111A685AB1D8F80010B8F89E
:1059B000044012F0010F4FEA520214BF4C610C6117
:1059C0001A6000F5433000F5A070C5F85401D9F80D
:1059D00000305C0746D5336818072BD408200CF03C
:1059E00043F93FE0580B0020BC0B0020BD0B00200A
:1059F000D80B00203C0F0020502D00203C1600202A
:105A0000742D0020600A0020181300205C0A00207A
:105A10000F2A00208B0B002035FA8E3C642F0020CB
:105A2000860A0020A01B0020300A00205505020035
:105A3000082C00203C8804F00804A4B294B9082083
:105A40000CF022F94F4B1A684F4B1A604F4BDB8812
:105A5000A5F858314E4BDB88A5F85A314D4B1C60E8
:105A60004D4B1C60D9F80030D90640F1878033686F
:105A70009A0204D44FF400700CF0F6F87EE03C88F3
:105A800004F40074A4B2002C78D14FF400700CF030
:105A9000FBF83C4B1A683C4B1A603C4BDB88A5F882
:105AA00058313B4BDB88A5F85A313A4B1C603A4BD6
:105AB0001C6063E0002F3FF43EAB7E2B7FF43BABDA
:105AC000FFF763BBA72B06D1344A137843F00403D6
:105AD0001370FFF75CBB0022BB2B099201D102239C
